{
	"CrowdFund.sol": {
		"CrowdFund": {
			"abi": [
				{
					"inputs": [
						{
							"internalType": "address",
							"name": "_token",
							"type": "address"
						}
					],
					"stateMutability": "nonpayable",
					"type": "constructor"
				},
				{
					"inputs": [
						{
							"internalType": "uint256",
							"name": "",
							"type": "uint256"
						}
					],
					"name": "campaigns",
					"outputs": [
						{
							"internalType": "address",
							"name": "creator",
							"type": "address"
						},
						{
							"internalType": "uint256",
							"name": "goal",
							"type": "uint256"
						},
						{
							"internalType": "uint32",
							"name": "startAt",
							"type": "uint32"
						},
						{
							"internalType": "uint32",
							"name": "endAt",
							"type": "uint32"
						},
						{
							"internalType": "bool",
							"name": "claimed",
							"type": "bool"
						}
					],
					"stateMutability": "view",
					"type": "function"
				},
				{
					"inputs": [
						{
							"internalType": "uint256",
							"name": "_id",
							"type": "uint256"
						}
					],
					"name": "cancel",
					"outputs": [],
					"stateMutability": "nonpayable",
					"type": "function"
				},
				{
					"inputs": [],
					"name": "count",
					"outputs": [
						{
							"internalType": "uint256",
							"name": "",
							"type": "uint256"
						}
					],
					"stateMutability": "view",
					"type": "function"
				},
				{
					"inputs": [
						{
							"internalType": "uint256",
							"name": "_goal",
							"type": "uint256"
						},
						{
							"internalType": "uint32",
							"name": "_startAt",
							"type": "uint32"
						},
						{
							"internalType": "uint32",
							"name": "_endAt",
							"type": "uint32"
						}
					],
					"name": "launch",
					"outputs": [],
					"stateMutability": "nonpayable",
					"type": "function"
				},
				{
					"inputs": [
						{
							"internalType": "uint256",
							"name": "_id",
							"type": "uint256"
						},
						{
							"internalType": "uint256",
							"name": "_amount",
							"type": "uint256"
						}
					],
					"name": "pledge",
					"outputs": [],
					"stateMutability": "nonpayable",
					"type": "function"
				},
				{
					"inputs": [
						{
							"internalType": "uint256",
							"name": "",
							"type": "uint256"
						},
						{
							"internalType": "address",
							"name": "",
							"type": "address"
						}
					],
					"name": "pledgedAmount",
					"outputs": [
						{
							"internalType": "uint256",
							"name": "",
							"type": "uint256"
						}
					],
					"stateMutability": "view",
					"type": "function"
				},
				{
					"inputs": [
						{
							"internalType": "uint256",
							"name": "_id",
							"type": "uint256"
						}
					],
					"name": "refund",
					"outputs": [],
					"stateMutability": "nonpayable",
					"type": "function"
				},
				{
					"inputs": [],
					"name": "token",
					"outputs": [
						{
							"internalType": "contract IERC20",
							"name": "",
							"type": "address"
						}
					],
					"stateMutability": "view",
					"type": "function"
				},
				{
					"inputs": [
						{
							"internalType": "uint256",
							"name": "_id",
							"type": "uint256"
						},
						{
							"internalType": "uint256",
							"name": "_amount",
							"type": "uint256"
						}
					],
					"name": "unpledge",
					"outputs": [],
					"stateMutability": "nonpayable",
					"type": "function"
				}
			],
			"devdoc": {
				"kind": "dev",
				"methods": {},
				"version": 1
			},
			"evm": {
				"assembly": "    /* \"CrowdFund.sol\":81:946  contract CrowdFund {... */\n  mstore(0x40, 0xa0)\n    /* \"CrowdFund.sol\":422:489  constructor(address _token) {... */\n  callvalue\n  dup1\n  iszero\n  tag_1\n  jumpi\n  0x00\n  dup1\n  revert\ntag_1:\n  pop\n  mload(0x40)\n  sub(codesize, bytecodeSize)\n  dup1\n  bytecodeSize\n  dup4\n  codecopy\n  dup2\n  dup2\n  add\n  0x40\n  mstore\n  dup2\n  add\n  swap1\n  tag_2\n  swap2\n  swap1\n  tag_3\n  jump\t// in\ntag_2:\n    /* \"CrowdFund.sol\":475:481  _token */\n  dup1\n    /* \"CrowdFund.sol\":460:482  token = IERC20(_token) */\n  0xffffffffffffffffffffffffffffffffffffffff\n  and\n  0x80\n  dup2\n  0xffffffffffffffffffffffffffffffffffffffff\n  and\n  dup2\n  mstore\n  pop\n  pop\n    /* \"CrowdFund.sol\":422:489  constructor(address _token) {... */\n  pop\n    /* \"CrowdFund.sol\":81:946  contract CrowdFund {... */\n  jump(tag_6)\n    /* \"#utility.yul\":88:205   */\ntag_8:\n    /* \"#utility.yul\":197:198   */\n  0x00\n    /* \"#utility.yul\":194:195   */\n  dup1\n    /* \"#utility.yul\":187:199   */\n  revert\n    /* \"#utility.yul\":334:460   */\ntag_10:\n    /* \"#utility.yul\":371:378   */\n  0x00\n    /* \"#utility.yul\":411:453   */\n  0xffffffffffffffffffffffffffffffffffffffff\n    /* \"#utility.yul\":404:409   */\n  dup3\n    /* \"#utility.yul\":400:454   */\n  and\n    /* \"#utility.yul\":389:454   */\n  swap1\n  pop\n    /* \"#utility.yul\":334:460   */\n  swap2\n  swap1\n  pop\n  jump\t// out\n    /* \"#utility.yul\":466:562   */\ntag_11:\n    /* \"#utility.yul\":503:510   */\n  0x00\n    /* \"#utility.yul\":532:556   */\n  tag_20\n    /* \"#utility.yul\":550:555   */\n  dup3\n    /* \"#utility.yul\":532:556   */\n  tag_10\n  jump\t// in\ntag_20:\n    /* \"#utility.yul\":521:556   */\n  swap1\n  pop\n    /* \"#utility.yul\":466:562   */\n  swap2\n  swap1\n  pop\n  jump\t// out\n    /* \"#utility.yul\":568:690   */\ntag_12:\n    /* \"#utility.yul\":641:665   */\n  tag_22\n    /* \"#utility.yul\":659:664   */\n  dup2\n    /* \"#utility.yul\":641:665   */\n  tag_11\n  jump\t// in\ntag_22:\n    /* \"#utility.yul\":634:639   */\n  dup2\n    /* \"#utility.yul\":631:666   */\n  eq\n    /* \"#utility.yul\":621:684   */\n  tag_23\n  jumpi\n    /* \"#utility.yul\":680:681   */\n  0x00\n    /* \"#utility.yul\":677:678   */\n  dup1\n    /* \"#utility.yul\":670:682   */\n  revert\n    /* \"#utility.yul\":621:684   */\ntag_23:\n    /* \"#utility.yul\":568:690   */\n  pop\n  jump\t// out\n    /* \"#utility.yul\":696:839   */\ntag_13:\n    /* \"#utility.yul\":753:758   */\n  0x00\n    /* \"#utility.yul\":784:790   */\n  dup2\n    /* \"#utility.yul\":778:791   */\n  mload\n    /* \"#utility.yul\":769:791   */\n  swap1\n  pop\n    /* \"#utility.yul\":800:833   */\n  tag_25\n    /* \"#utility.yul\":827:832   */\n  dup2\n    /* \"#utility.yul\":800:833   */\n  tag_12\n  jump\t// in\ntag_25:\n    /* \"#utility.yul\":696:839   */\n  swap3\n  swap2\n  pop\n  pop\n  jump\t// out\n    /* \"#utility.yul\":845:1196   */\ntag_3:\n    /* \"#utility.yul\":915:921   */\n  0x00\n    /* \"#utility.yul\":964:966   */\n  0x20\n    /* \"#utility.yul\":952:961   */\n  dup3\n    /* \"#utility.yul\":943:950   */\n  dup5\n    /* \"#utility.yul\":939:962   */\n  sub\n    /* \"#utility.yul\":935:967   */\n  slt\n    /* \"#utility.yul\":932:1051   */\n  iszero\n  tag_27\n  jumpi\n    /* \"#utility.yul\":970:1049   */\n  tag_28\n  tag_8\n  jump\t// in\ntag_28:\n    /* \"#utility.yul\":932:1051   */\ntag_27:\n    /* \"#utility.yul\":1090:1091   */\n  0x00\n    /* \"#utility.yul\":1115:1179   */\n  tag_29\n    /* \"#utility.yul\":1171:1178   */\n  dup5\n    /* \"#utility.yul\":1162:1168   */\n  dup3\n    /* \"#utility.yul\":1151:1160   */\n  dup6\n    /* \"#utility.yul\":1147:1169   */\n  add\n    /* \"#utility.yul\":1115:1179   */\n  tag_13\n  jump\t// in\ntag_29:\n    /* \"#utility.yul\":1105:1179   */\n  swap2\n  pop\n    /* \"#utility.yul\":1061:1189   */\n  pop\n    /* \"#utility.yul\":845:1196   */\n  swap3\n  swap2\n  pop\n  pop\n  jump\t// out\n    /* \"CrowdFund.sol\":81:946  contract CrowdFund {... */\ntag_6:\n  mload(0x80)\n  codecopy(0x00, dataOffset(sub_0), dataSize(sub_0))\n  0x00\n  assignImmutable(\"0x277ab82e5a4641341820a4a2933a62c1de997e42e92548657ae21b3728d580fe\")\n  return(0x00, dataSize(sub_0))\nstop\n\nsub_0: assembly {\n        /* \"CrowdFund.sol\":81:946  contract CrowdFund {... */\n      mstore(0x40, 0x80)\n      callvalue\n      dup1\n      iszero\n      tag_1\n      jumpi\n      0x00\n      dup1\n      revert\n    tag_1:\n      pop\n      jumpi(tag_2, lt(calldatasize, 0x04))\n      shr(0xe0, calldataload(0x00))\n      dup1\n      0x40e58ee5\n      gt\n      tag_12\n      jumpi\n      dup1\n      0x40e58ee5\n      eq\n      tag_7\n      jumpi\n      dup1\n      0x711853ab\n      eq\n      tag_8\n      jumpi\n      dup1\n      0xaa4fb63a\n      eq\n      tag_9\n      jumpi\n      dup1\n      0xfc0c546a\n      eq\n      tag_10\n      jumpi\n      dup1\n      0xfde327be\n      eq\n      tag_11\n      jumpi\n      jump(tag_2)\n    tag_12:\n      dup1\n      0x06661abd\n      eq\n      tag_3\n      jumpi\n      dup1\n      0x141961bc\n      eq\n      tag_4\n      jumpi\n      dup1\n      0x278ecde1\n      eq\n      tag_5\n      jumpi\n      dup1\n      0x2c63f146\n      eq\n      tag_6\n      jumpi\n    tag_2:\n      0x00\n      dup1\n      revert\n        /* \"CrowdFund.sol\":282:299  uint public count */\n    tag_3:\n      tag_13\n      tag_14\n      jump\t// in\n    tag_13:\n      mload(0x40)\n      tag_15\n      swap2\n      swap1\n      tag_16\n      jump\t// in\n    tag_15:\n      mload(0x40)\n      dup1\n      swap2\n      sub\n      swap1\n      return\n        /* \"CrowdFund.sol\":305:347  mapping(uint => Campaign) public campaigns */\n    tag_4:\n      tag_17\n      0x04\n      dup1\n      calldatasize\n      sub\n      dup2\n      add\n      swap1\n      tag_18\n      swap2\n      swap1\n      tag_19\n      jump\t// in\n    tag_18:\n      tag_20\n      jump\t// in\n    tag_17:\n      mload(0x40)\n      tag_21\n      swap6\n      swap5\n      swap4\n      swap3\n      swap2\n      swap1\n      tag_22\n      jump\t// in\n    tag_21:\n      mload(0x40)\n      dup1\n      swap2\n      sub\n      swap1\n      return\n        /* \"CrowdFund.sol\":901:944  function refund(uint _id) external {... */\n    tag_5:\n      tag_23\n      0x04\n      dup1\n      calldatasize\n      sub\n      dup2\n      add\n      swap1\n      tag_24\n      swap2\n      swap1\n      tag_19\n      jump\t// in\n    tag_24:\n      tag_25\n      jump\t// in\n    tag_23:\n      stop\n        /* \"CrowdFund.sol\":495:714  function launch(... */\n    tag_6:\n      tag_26\n      0x04\n      dup1\n      calldatasize\n      sub\n      dup2\n      add\n      swap1\n      tag_27\n      swap2\n      swap1\n      tag_28\n      jump\t// in\n    tag_27:\n      tag_29\n      jump\t// in\n    tag_26:\n      stop\n        /* \"CrowdFund.sol\":724:767  function cancel(uint _id) external {... */\n    tag_7:\n      tag_30\n      0x04\n      dup1\n      calldatasize\n      sub\n      dup2\n      add\n      swap1\n      tag_31\n      swap2\n      swap1\n      tag_19\n      jump\t// in\n    tag_31:\n      tag_32\n      jump\t// in\n    tag_30:\n      stop\n        /* \"CrowdFund.sol\":836:895  function unpledge(uint _id, uint _amount) external {... */\n    tag_8:\n      tag_33\n      0x04\n      dup1\n      calldatasize\n      sub\n      dup2\n      add\n      swap1\n      tag_34\n      swap2\n      swap1\n      tag_35\n      jump\t// in\n    tag_34:\n      tag_36\n      jump\t// in\n    tag_33:\n      stop\n        /* \"CrowdFund.sol\":353:415  mapping(uint => mapping(address => uint)) public pledgedAmount */\n    tag_9:\n      tag_37\n      0x04\n      dup1\n      calldatasize\n      sub\n      dup2\n      add\n      swap1\n      tag_38\n      swap2\n      swap1\n      tag_39\n      jump\t// in\n    tag_38:\n      tag_40\n      jump\t// in\n    tag_37:\n      mload(0x40)\n      tag_41\n      swap2\n      swap1\n      tag_16\n      jump\t// in\n    tag_41:\n      mload(0x40)\n      dup1\n      swap2\n      sub\n      swap1\n      return\n        /* \"CrowdFund.sol\":247:276  IERC20 public immutable token */\n    tag_10:\n      tag_42\n      tag_43\n      jump\t// in\n    tag_42:\n      mload(0x40)\n      tag_44\n      swap2\n      swap1\n      tag_45\n      jump\t// in\n    tag_44:\n      mload(0x40)\n      dup1\n      swap2\n      sub\n      swap1\n      return\n        /* \"CrowdFund.sol\":773:830  function pledge(uint _id, uint _amount) external {... */\n    tag_11:\n      tag_46\n      0x04\n      dup1\n      calldatasize\n      sub\n      dup2\n      add\n      swap1\n      tag_47\n      swap2\n      swap1\n      tag_35\n      jump\t// in\n    tag_47:\n      tag_48\n      jump\t// in\n    tag_46:\n      stop\n        /* \"CrowdFund.sol\":282:299  uint public count */\n    tag_14:\n      sload(0x00)\n      dup2\n      jump\t// out\n        /* \"CrowdFund.sol\":305:347  mapping(uint => Campaign) public campaigns */\n    tag_20:\n      mstore(0x20, 0x01)\n      dup1\n      0x00\n      mstore\n      keccak256(0x00, 0x40)\n      0x00\n      swap2\n      pop\n      swap1\n      pop\n      dup1\n      0x00\n      add\n      0x00\n      swap1\n      sload\n      swap1\n      0x0100\n      exp\n      swap1\n      div\n      0xffffffffffffffffffffffffffffffffffffffff\n      and\n      swap1\n      dup1\n      0x01\n      add\n      sload\n      swap1\n      dup1\n      0x02\n      add\n      0x00\n      swap1\n      sload\n      swap1\n      0x0100\n      exp\n      swap1\n      div\n      0xffffffff\n      and\n      swap1\n      dup1\n      0x02\n      add\n      0x04\n      swap1\n      sload\n      swap1\n      0x0100\n      exp\n      swap1\n      div\n      0xffffffff\n      and\n      swap1\n      dup1\n      0x02\n      add\n      0x08\n      swap1\n      sload\n      swap1\n      0x0100\n      exp\n      swap1\n      div\n      0xff\n      and\n      swap1\n      pop\n      dup6\n      jump\t// out\n        /* \"CrowdFund.sol\":901:944  function refund(uint _id) external {... */\n    tag_25:\n      pop\n      jump\t// out\n        /* \"CrowdFund.sol\":495:714  function launch(... */\n    tag_29:\n        /* \"CrowdFund.sol\":624:639  block.timestamp */\n      timestamp\n        /* \"CrowdFund.sol\":612:620  _startAt */\n      dup3\n        /* \"CrowdFund.sol\":612:639  _startAt <= block.timestamp */\n      0xffffffff\n      and\n      gt\n      iszero\n        /* \"CrowdFund.sol\":604:658  require(_startAt <= block.timestamp, \"start at < now\") */\n      tag_51\n      jumpi\n      mload(0x40)\n      0x08c379a000000000000000000000000000000000000000000000000000000000\n      dup2\n      mstore\n      0x04\n      add\n      tag_52\n      swap1\n      tag_53\n      jump\t// in\n    tag_52:\n      mload(0x40)\n      dup1\n      swap2\n      sub\n      swap1\n      revert\n    tag_51:\n        /* \"CrowdFund.sol\":686:694  _startAt */\n      dup2\n        /* \"CrowdFund.sol\":676:694  _endAt <= _startAt */\n      0xffffffff\n      and\n        /* \"CrowdFund.sol\":676:682  _endAt */\n      dup2\n        /* \"CrowdFund.sol\":676:694  _endAt <= _startAt */\n      0xffffffff\n      and\n      gt\n      iszero\n        /* \"CrowdFund.sol\":668:706  require(_endAt <= _startAt, \"end at \") */\n      tag_54\n      jumpi\n      mload(0x40)\n      0x08c379a000000000000000000000000000000000000000000000000000000000\n      dup2\n      mstore\n      0x04\n      add\n      tag_55\n      swap1\n      tag_56\n      jump\t// in\n    tag_55:\n      mload(0x40)\n      dup1\n      swap2\n      sub\n      swap1\n      revert\n    tag_54:\n        /* \"CrowdFund.sol\":495:714  function launch(... */\n      pop\n      pop\n      pop\n      jump\t// out\n        /* \"CrowdFund.sol\":724:767  function cancel(uint _id) external {... */\n    tag_32:\n      pop\n      jump\t// out\n        /* \"CrowdFund.sol\":836:895  function unpledge(uint _id, uint _amount) external {... */\n    tag_36:\n      pop\n      pop\n      jump\t// out\n        /* \"CrowdFund.sol\":353:415  mapping(uint => mapping(address => uint)) public pledgedAmount */\n    tag_40:\n      mstore(0x20, 0x02)\n      dup2\n      0x00\n      mstore\n      mstore(0x20, keccak256(0x00, 0x40))\n      dup1\n      0x00\n      mstore\n      keccak256(0x00, 0x40)\n      0x00\n      swap2\n      pop\n      swap2\n      pop\n      pop\n      sload\n      dup2\n      jump\t// out\n        /* \"CrowdFund.sol\":247:276  IERC20 public immutable token */\n    tag_43:\n      immutable(\"0x277ab82e5a4641341820a4a2933a62c1de997e42e92548657ae21b3728d580fe\")\n      dup2\n      jump\t// out\n        /* \"CrowdFund.sol\":773:830  function pledge(uint _id, uint _amount) external {... */\n    tag_48:\n      pop\n      pop\n      jump\t// out\n        /* \"#utility.yul\":7:84   */\n    tag_60:\n        /* \"#utility.yul\":44:51   */\n      0x00\n        /* \"#utility.yul\":73:78   */\n      dup2\n        /* \"#utility.yul\":62:78   */\n      swap1\n      pop\n        /* \"#utility.yul\":7:84   */\n      swap2\n      swap1\n      pop\n      jump\t// out\n        /* \"#utility.yul\":90:208   */\n    tag_61:\n        /* \"#utility.yul\":177:201   */\n      tag_91\n        /* \"#utility.yul\":195:200   */\n      dup2\n        /* \"#utility.yul\":177:201   */\n      tag_60\n      jump\t// in\n    tag_91:\n        /* \"#utility.yul\":172:175   */\n      dup3\n        /* \"#utility.yul\":165:202   */\n      mstore\n        /* \"#utility.yul\":90:208   */\n      pop\n      pop\n      jump\t// out\n        /* \"#utility.yul\":214:436   */\n    tag_16:\n        /* \"#utility.yul\":307:311   */\n      0x00\n        /* \"#utility.yul\":345:347   */\n      0x20\n        /* \"#utility.yul\":334:343   */\n      dup3\n        /* \"#utility.yul\":330:348   */\n      add\n        /* \"#utility.yul\":322:348   */\n      swap1\n      pop\n        /* \"#utility.yul\":358:429   */\n      tag_93\n        /* \"#utility.yul\":426:427   */\n      0x00\n        /* \"#utility.yul\":415:424   */\n      dup4\n        /* \"#utility.yul\":411:428   */\n      add\n        /* \"#utility.yul\":402:408   */\n      dup5\n        /* \"#utility.yul\":358:429   */\n      tag_61\n      jump\t// in\n    tag_93:\n        /* \"#utility.yul\":214:436   */\n      swap3\n      swap2\n      pop\n      pop\n      jump\t// out\n        /* \"#utility.yul\":523:640   */\n    tag_63:\n        /* \"#utility.yul\":632:633   */\n      0x00\n        /* \"#utility.yul\":629:630   */\n      dup1\n        /* \"#utility.yul\":622:634   */\n      revert\n        /* \"#utility.yul\":769:891   */\n    tag_65:\n        /* \"#utility.yul\":842:866   */\n      tag_98\n        /* \"#utility.yul\":860:865   */\n      dup2\n        /* \"#utility.yul\":842:866   */\n      tag_60\n      jump\t// in\n    tag_98:\n        /* \"#utility.yul\":835:840   */\n      dup2\n        /* \"#utility.yul\":832:867   */\n      eq\n        /* \"#utility.yul\":822:885   */\n      tag_99\n      jumpi\n        /* \"#utility.yul\":881:882   */\n      0x00\n        /* \"#utility.yul\":878:879   */\n      dup1\n        /* \"#utility.yul\":871:883   */\n      revert\n        /* \"#utility.yul\":822:885   */\n    tag_99:\n        /* \"#utility.yul\":769:891   */\n      pop\n      jump\t// out\n        /* \"#utility.yul\":897:1036   */\n    tag_66:\n        /* \"#utility.yul\":943:948   */\n      0x00\n        /* \"#utility.yul\":981:987   */\n      dup2\n        /* \"#utility.yul\":968:988   */\n      calldataload\n        /* \"#utility.yul\":959:988   */\n      swap1\n      pop\n        /* \"#utility.yul\":997:1030   */\n      tag_101\n        /* \"#utility.yul\":1024:1029   */\n      dup2\n        /* \"#utility.yul\":997:1030   */\n      tag_65\n      jump\t// in\n    tag_101:\n        /* \"#utility.yul\":897:1036   */\n      swap3\n      swap2\n      pop\n      pop\n      jump\t// out\n        /* \"#utility.yul\":1042:1371   */\n    tag_19:\n        /* \"#utility.yul\":1101:1107   */\n      0x00\n        /* \"#utility.yul\":1150:1152   */\n      0x20\n        /* \"#utility.yul\":1138:1147   */\n      dup3\n        /* \"#utility.yul\":1129:1136   */\n      dup5\n        /* \"#utility.yul\":1125:1148   */\n      sub\n        /* \"#utility.yul\":1121:1153   */\n      slt\n        /* \"#utility.yul\":1118:1237   */\n      iszero\n      tag_103\n      jumpi\n        /* \"#utility.yul\":1156:1235   */\n      tag_104\n      tag_63\n      jump\t// in\n    tag_104:\n        /* \"#utility.yul\":1118:1237   */\n    tag_103:\n        /* \"#utility.yul\":1276:1277   */\n      0x00\n        /* \"#utility.yul\":1301:1354   */\n      tag_105\n        /* \"#utility.yul\":1346:1353   */\n      dup5\n        /* \"#utility.yul\":1337:1343   */\n      dup3\n        /* \"#utility.yul\":1326:1335   */\n      dup6\n        /* \"#utility.yul\":1322:1344   */\n      add\n        /* \"#utility.yul\":1301:1354   */\n      tag_66\n      jump\t// in\n    tag_105:\n        /* \"#utility.yul\":1291:1354   */\n      swap2\n      pop\n        /* \"#utility.yul\":1247:1364   */\n      pop\n        /* \"#utility.yul\":1042:1371   */\n      swap3\n      swap2\n      pop\n      pop\n      jump\t// out\n        /* \"#utility.yul\":1377:1503   */\n    tag_67:\n        /* \"#utility.yul\":1414:1421   */\n      0x00\n        /* \"#utility.yul\":1454:1496   */\n      0xffffffffffffffffffffffffffffffffffffffff\n        /* \"#utility.yul\":1447:1452   */\n      dup3\n        /* \"#utility.yul\":1443:1497   */\n      and\n        /* \"#utility.yul\":1432:1497   */\n      swap1\n      pop\n        /* \"#utility.yul\":1377:1503   */\n      swap2\n      swap1\n      pop\n      jump\t// out\n        /* \"#utility.yul\":1509:1605   */\n    tag_68:\n        /* \"#utility.yul\":1546:1553   */\n      0x00\n        /* \"#utility.yul\":1575:1599   */\n      tag_108\n        /* \"#utility.yul\":1593:1598   */\n      dup3\n        /* \"#utility.yul\":1575:1599   */\n      tag_67\n      jump\t// in\n    tag_108:\n        /* \"#utility.yul\":1564:1599   */\n      swap1\n      pop\n        /* \"#utility.yul\":1509:1605   */\n      swap2\n      swap1\n      pop\n      jump\t// out\n        /* \"#utility.yul\":1611:1729   */\n    tag_69:\n        /* \"#utility.yul\":1698:1722   */\n      tag_110\n        /* \"#utility.yul\":1716:1721   */\n      dup2\n        /* \"#utility.yul\":1698:1722   */\n      tag_68\n      jump\t// in\n    tag_110:\n        /* \"#utility.yul\":1693:1696   */\n      dup3\n        /* \"#utility.yul\":1686:1723   */\n      mstore\n        /* \"#utility.yul\":1611:1729   */\n      pop\n      pop\n      jump\t// out\n        /* \"#utility.yul\":1735:1828   */\n    tag_70:\n        /* \"#utility.yul\":1771:1778   */\n      0x00\n        /* \"#utility.yul\":1811:1821   */\n      0xffffffff\n        /* \"#utility.yul\":1804:1809   */\n      dup3\n        /* \"#utility.yul\":1800:1822   */\n      and\n        /* \"#utility.yul\":1789:1822   */\n      swap1\n      pop\n        /* \"#utility.yul\":1735:1828   */\n      swap2\n      swap1\n      pop\n      jump\t// out\n        /* \"#utility.yul\":1834:1949   */\n    tag_71:\n        /* \"#utility.yul\":1919:1942   */\n      tag_113\n        /* \"#utility.yul\":1936:1941   */\n      dup2\n        /* \"#utility.yul\":1919:1942   */\n      tag_70\n      jump\t// in\n    tag_113:\n        /* \"#utility.yul\":1914:1917   */\n      dup3\n        /* \"#utility.yul\":1907:1943   */\n      mstore\n        /* \"#utility.yul\":1834:1949   */\n      pop\n      pop\n      jump\t// out\n        /* \"#utility.yul\":1955:2045   */\n    tag_72:\n        /* \"#utility.yul\":1989:1996   */\n      0x00\n        /* \"#utility.yul\":2032:2037   */\n      dup2\n        /* \"#utility.yul\":2025:2038   */\n      iszero\n        /* \"#utility.yul\":2018:2039   */\n      iszero\n        /* \"#utility.yul\":2007:2039   */\n      swap1\n      pop\n        /* \"#utility.yul\":1955:2045   */\n      swap2\n      swap1\n      pop\n      jump\t// out\n        /* \"#utility.yul\":2051:2160   */\n    tag_73:\n        /* \"#utility.yul\":2132:2153   */\n      tag_116\n        /* \"#utility.yul\":2147:2152   */\n      dup2\n        /* \"#utility.yul\":2132:2153   */\n      tag_72\n      jump\t// in\n    tag_116:\n        /* \"#utility.yul\":2127:2130   */\n      dup3\n        /* \"#utility.yul\":2120:2154   */\n      mstore\n        /* \"#utility.yul\":2051:2160   */\n      pop\n      pop\n      jump\t// out\n        /* \"#utility.yul\":2166:2810   */\n    tag_22:\n        /* \"#utility.yul\":2361:2365   */\n      0x00\n        /* \"#utility.yul\":2399:2402   */\n      0xa0\n        /* \"#utility.yul\":2388:2397   */\n      dup3\n        /* \"#utility.yul\":2384:2403   */\n      add\n        /* \"#utility.yul\":2376:2403   */\n      swap1\n      pop\n        /* \"#utility.yul\":2413:2484   */\n      tag_118\n        /* \"#utility.yul\":2481:2482   */\n      0x00\n        /* \"#utility.yul\":2470:2479   */\n      dup4\n        /* \"#utility.yul\":2466:2483   */\n      add\n        /* \"#utility.yul\":2457:2463   */\n      dup9\n        /* \"#utility.yul\":2413:2484   */\n      tag_69\n      jump\t// in\n    tag_118:\n        /* \"#utility.yul\":2494:2566   */\n      tag_119\n        /* \"#utility.yul\":2562:2564   */\n      0x20\n        /* \"#utility.yul\":2551:2560   */\n      dup4\n        /* \"#utility.yul\":2547:2565   */\n      add\n        /* \"#utility.yul\":2538:2544   */\n      dup8\n        /* \"#utility.yul\":2494:2566   */\n      tag_61\n      jump\t// in\n    tag_119:\n        /* \"#utility.yul\":2576:2646   */\n      tag_120\n        /* \"#utility.yul\":2642:2644   */\n      0x40\n        /* \"#utility.yul\":2631:2640   */\n      dup4\n        /* \"#utility.yul\":2627:2645   */\n      add\n        /* \"#utility.yul\":2618:2624   */\n      dup7\n        /* \"#utility.yul\":2576:2646   */\n      tag_71\n      jump\t// in\n    tag_120:\n        /* \"#utility.yul\":2656:2726   */\n      tag_121\n        /* \"#utility.yul\":2722:2724   */\n      0x60\n        /* \"#utility.yul\":2711:2720   */\n      dup4\n        /* \"#utility.yul\":2707:2725   */\n      add\n        /* \"#utility.yul\":2698:2704   */\n      dup6\n        /* \"#utility.yul\":2656:2726   */\n      tag_71\n      jump\t// in\n    tag_121:\n        /* \"#utility.yul\":2736:2803   */\n      tag_122\n        /* \"#utility.yul\":2798:2801   */\n      0x80\n        /* \"#utility.yul\":2787:2796   */\n      dup4\n        /* \"#utility.yul\":2783:2802   */\n      add\n        /* \"#utility.yul\":2774:2780   */\n      dup5\n        /* \"#utility.yul\":2736:2803   */\n      tag_73\n      jump\t// in\n    tag_122:\n        /* \"#utility.yul\":2166:2810   */\n      swap7\n      swap6\n      pop\n      pop\n      pop\n      pop\n      pop\n      pop\n      jump\t// out\n        /* \"#utility.yul\":2816:2936   */\n    tag_74:\n        /* \"#utility.yul\":2888:2911   */\n      tag_124\n        /* \"#utility.yul\":2905:2910   */\n      dup2\n        /* \"#utility.yul\":2888:2911   */\n      tag_70\n      jump\t// in\n    tag_124:\n        /* \"#utility.yul\":2881:2886   */\n      dup2\n        /* \"#utility.yul\":2878:2912   */\n      eq\n        /* \"#utility.yul\":2868:2930   */\n      tag_125\n      jumpi\n        /* \"#utility.yul\":2926:2927   */\n      0x00\n        /* \"#utility.yul\":2923:2924   */\n      dup1\n        /* \"#utility.yul\":2916:2928   */\n      revert\n        /* \"#utility.yul\":2868:2930   */\n    tag_125:\n        /* \"#utility.yul\":2816:2936   */\n      pop\n      jump\t// out\n        /* \"#utility.yul\":2942:3079   */\n    tag_75:\n        /* \"#utility.yul\":2987:2992   */\n      0x00\n        /* \"#utility.yul\":3025:3031   */\n      dup2\n        /* \"#utility.yul\":3012:3032   */\n      calldataload\n        /* \"#utility.yul\":3003:3032   */\n      swap1\n      pop\n        /* \"#utility.yul\":3041:3073   */\n      tag_127\n        /* \"#utility.yul\":3067:3072   */\n      dup2\n        /* \"#utility.yul\":3041:3073   */\n      tag_74\n      jump\t// in\n    tag_127:\n        /* \"#utility.yul\":2942:3079   */\n      swap3\n      swap2\n      pop\n      pop\n      jump\t// out\n        /* \"#utility.yul\":3085:3700   */\n    tag_28:\n        /* \"#utility.yul\":3160:3166   */\n      0x00\n        /* \"#utility.yul\":3168:3174   */\n      dup1\n        /* \"#utility.yul\":3176:3182   */\n      0x00\n        /* \"#utility.yul\":3225:3227   */\n      0x60\n        /* \"#utility.yul\":3213:3222   */\n      dup5\n        /* \"#utility.yul\":3204:3211   */\n      dup7\n        /* \"#utility.yul\":3200:3223   */\n      sub\n        /* \"#utility.yul\":3196:3228   */\n      slt\n        /* \"#utility.yul\":3193:3312   */\n      iszero\n      tag_129\n      jumpi\n        /* \"#utility.yul\":3231:3310   */\n      tag_130\n      tag_63\n      jump\t// in\n    tag_130:\n        /* \"#utility.yul\":3193:3312   */\n    tag_129:\n        /* \"#utility.yul\":3351:3352   */\n      0x00\n        /* \"#utility.yul\":3376:3429   */\n      tag_131\n        /* \"#utility.yul\":3421:3428   */\n      dup7\n        /* \"#utility.yul\":3412:3418   */\n      dup3\n        /* \"#utility.yul\":3401:3410   */\n      dup8\n        /* \"#utility.yul\":3397:3419   */\n      add\n        /* \"#utility.yul\":3376:3429   */\n      tag_66\n      jump\t// in\n    tag_131:\n        /* \"#utility.yul\":3366:3429   */\n      swap4\n      pop\n        /* \"#utility.yul\":3322:3439   */\n      pop\n        /* \"#utility.yul\":3478:3480   */\n      0x20\n        /* \"#utility.yul\":3504:3556   */\n      tag_132\n        /* \"#utility.yul\":3548:3555   */\n      dup7\n        /* \"#utility.yul\":3539:3545   */\n      dup3\n        /* \"#utility.yul\":3528:3537   */\n      dup8\n        /* \"#utility.yul\":3524:3546   */\n      add\n        /* \"#utility.yul\":3504:3556   */\n      tag_75\n      jump\t// in\n    tag_132:\n        /* \"#utility.yul\":3494:3556   */\n      swap3\n      pop\n        /* \"#utility.yul\":3449:3566   */\n      pop\n        /* \"#utility.yul\":3605:3607   */\n      0x40\n        /* \"#utility.yul\":3631:3683   */\n      tag_133\n        /* \"#utility.yul\":3675:3682   */\n      dup7\n        /* \"#utility.yul\":3666:3672   */\n      dup3\n        /* \"#utility.yul\":3655:3664   */\n      dup8\n        /* \"#utility.yul\":3651:3673   */\n      add\n        /* \"#utility.yul\":3631:3683   */\n      tag_75\n      jump\t// in\n    tag_133:\n        /* \"#utility.yul\":3621:3683   */\n      swap2\n      pop\n        /* \"#utility.yul\":3576:3693   */\n      pop\n        /* \"#utility.yul\":3085:3700   */\n      swap3\n      pop\n      swap3\n      pop\n      swap3\n      jump\t// out\n        /* \"#utility.yul\":3706:4180   */\n    tag_35:\n        /* \"#utility.yul\":3774:3780   */\n      0x00\n        /* \"#utility.yul\":3782:3788   */\n      dup1\n        /* \"#utility.yul\":3831:3833   */\n      0x40\n        /* \"#utility.yul\":3819:3828   */\n      dup4\n        /* \"#utility.yul\":3810:3817   */\n      dup6\n        /* \"#utility.yul\":3806:3829   */\n      sub\n        /* \"#utility.yul\":3802:3834   */\n      slt\n        /* \"#utility.yul\":3799:3918   */\n      iszero\n      tag_135\n      jumpi\n        /* \"#utility.yul\":3837:3916   */\n      tag_136\n      tag_63\n      jump\t// in\n    tag_136:\n        /* \"#utility.yul\":3799:3918   */\n    tag_135:\n        /* \"#utility.yul\":3957:3958   */\n      0x00\n        /* \"#utility.yul\":3982:4035   */\n      tag_137\n        /* \"#utility.yul\":4027:4034   */\n      dup6\n        /* \"#utility.yul\":4018:4024   */\n      dup3\n        /* \"#utility.yul\":4007:4016   */\n      dup7\n        /* \"#utility.yul\":4003:4025   */\n      add\n        /* \"#utility.yul\":3982:4035   */\n      tag_66\n      jump\t// in\n    tag_137:\n        /* \"#utility.yul\":3972:4035   */\n      swap3\n      pop\n        /* \"#utility.yul\":3928:4045   */\n      pop\n        /* \"#utility.yul\":4084:4086   */\n      0x20\n        /* \"#utility.yul\":4110:4163   */\n      tag_138\n        /* \"#utility.yul\":4155:4162   */\n      dup6\n        /* \"#utility.yul\":4146:4152   */\n      dup3\n        /* \"#utility.yul\":4135:4144   */\n      dup7\n        /* \"#utility.yul\":4131:4153   */\n      add\n        /* \"#utility.yul\":4110:4163   */\n      tag_66\n      jump\t// in\n    tag_138:\n        /* \"#utility.yul\":4100:4163   */\n      swap2\n      pop\n        /* \"#utility.yul\":4055:4173   */\n      pop\n        /* \"#utility.yul\":3706:4180   */\n      swap3\n      pop\n      swap3\n      swap1\n      pop\n      jump\t// out\n        /* \"#utility.yul\":4186:4308   */\n    tag_76:\n        /* \"#utility.yul\":4259:4283   */\n      tag_140\n        /* \"#utility.yul\":4277:4282   */\n      dup2\n        /* \"#utility.yul\":4259:4283   */\n      tag_68\n      jump\t// in\n    tag_140:\n        /* \"#utility.yul\":4252:4257   */\n      dup2\n        /* \"#utility.yul\":4249:4284   */\n      eq\n        /* \"#utility.yul\":4239:4302   */\n      tag_141\n      jumpi\n        /* \"#utility.yul\":4298:4299   */\n      0x00\n        /* \"#utility.yul\":4295:4296   */\n      dup1\n        /* \"#utility.yul\":4288:4300   */\n      revert\n        /* \"#utility.yul\":4239:4302   */\n    tag_141:\n        /* \"#utility.yul\":4186:4308   */\n      pop\n      jump\t// out\n        /* \"#utility.yul\":4314:4453   */\n    tag_77:\n        /* \"#utility.yul\":4360:4365   */\n      0x00\n        /* \"#utility.yul\":4398:4404   */\n      dup2\n        /* \"#utility.yul\":4385:4405   */\n      calldataload\n        /* \"#utility.yul\":4376:4405   */\n      swap1\n      pop\n        /* \"#utility.yul\":4414:4447   */\n      tag_143\n        /* \"#utility.yul\":4441:4446   */\n      dup2\n        /* \"#utility.yul\":4414:4447   */\n      tag_76\n      jump\t// in\n    tag_143:\n        /* \"#utility.yul\":4314:4453   */\n      swap3\n      swap2\n      pop\n      pop\n      jump\t// out\n        /* \"#utility.yul\":4459:4933   */\n    tag_39:\n        /* \"#utility.yul\":4527:4533   */\n      0x00\n        /* \"#utility.yul\":4535:4541   */\n      dup1\n        /* \"#utility.yul\":4584:4586   */\n      0x40\n        /* \"#utility.yul\":4572:4581   */\n      dup4\n        /* \"#utility.yul\":4563:4570   */\n      dup6\n        /* \"#utility.yul\":4559:4582   */\n      sub\n        /* \"#utility.yul\":4555:4587   */\n      slt\n        /* \"#utility.yul\":4552:4671   */\n      iszero\n      tag_145\n      jumpi\n        /* \"#utility.yul\":4590:4669   */\n      tag_146\n      tag_63\n      jump\t// in\n    tag_146:\n        /* \"#utility.yul\":4552:4671   */\n    tag_145:\n        /* \"#utility.yul\":4710:4711   */\n      0x00\n        /* \"#utility.yul\":4735:4788   */\n      tag_147\n        /* \"#utility.yul\":4780:4787   */\n      dup6\n        /* \"#utility.yul\":4771:4777   */\n      dup3\n        /* \"#utility.yul\":4760:4769   */\n      dup7\n        /* \"#utility.yul\":4756:4778   */\n      add\n        /* \"#utility.yul\":4735:4788   */\n      tag_66\n      jump\t// in\n    tag_147:\n        /* \"#utility.yul\":4725:4788   */\n      swap3\n      pop\n        /* \"#utility.yul\":4681:4798   */\n      pop\n        /* \"#utility.yul\":4837:4839   */\n      0x20\n        /* \"#utility.yul\":4863:4916   */\n      tag_148\n        /* \"#utility.yul\":4908:4915   */\n      dup6\n        /* \"#utility.yul\":4899:4905   */\n      dup3\n        /* \"#utility.yul\":4888:4897   */\n      dup7\n        /* \"#utility.yul\":4884:4906   */\n      add\n        /* \"#utility.yul\":4863:4916   */\n      tag_77\n      jump\t// in\n    tag_148:\n        /* \"#utility.yul\":4853:4916   */\n      swap2\n      pop\n        /* \"#utility.yul\":4808:4926   */\n      pop\n        /* \"#utility.yul\":4459:4933   */\n      swap3\n      pop\n      swap3\n      swap1\n      pop\n      jump\t// out\n        /* \"#utility.yul\":4939:4999   */\n    tag_78:\n        /* \"#utility.yul\":4967:4970   */\n      0x00\n        /* \"#utility.yul\":4988:4993   */\n      dup2\n        /* \"#utility.yul\":4981:4993   */\n      swap1\n      pop\n        /* \"#utility.yul\":4939:4999   */\n      swap2\n      swap1\n      pop\n      jump\t// out\n        /* \"#utility.yul\":5005:5147   */\n    tag_79:\n        /* \"#utility.yul\":5055:5064   */\n      0x00\n        /* \"#utility.yul\":5088:5141   */\n      tag_151\n        /* \"#utility.yul\":5106:5140   */\n      tag_152\n        /* \"#utility.yul\":5115:5139   */\n      tag_153\n        /* \"#utility.yul\":5133:5138   */\n      dup5\n        /* \"#utility.yul\":5115:5139   */\n      tag_67\n      jump\t// in\n    tag_153:\n        /* \"#utility.yul\":5106:5140   */\n      tag_78\n      jump\t// in\n    tag_152:\n        /* \"#utility.yul\":5088:5141   */\n      tag_67\n      jump\t// in\n    tag_151:\n        /* \"#utility.yul\":5075:5141   */\n      swap1\n      pop\n        /* \"#utility.yul\":5005:5147   */\n      swap2\n      swap1\n      pop\n      jump\t// out\n        /* \"#utility.yul\":5153:5279   */\n    tag_80:\n        /* \"#utility.yul\":5203:5212   */\n      0x00\n        /* \"#utility.yul\":5236:5273   */\n      tag_155\n        /* \"#utility.yul\":5267:5272   */\n      dup3\n        /* \"#utility.yul\":5236:5273   */\n      tag_79\n      jump\t// in\n    tag_155:\n        /* \"#utility.yul\":5223:5273   */\n      swap1\n      pop\n        /* \"#utility.yul\":5153:5279   */\n      swap2\n      swap1\n      pop\n      jump\t// out\n        /* \"#utility.yul\":5285:5425   */\n    tag_81:\n        /* \"#utility.yul\":5349:5358   */\n      0x00\n        /* \"#utility.yul\":5382:5419   */\n      tag_157\n        /* \"#utility.yul\":5413:5418   */\n      dup3\n        /* \"#utility.yul\":5382:5419   */\n      tag_80\n      jump\t// in\n    tag_157:\n        /* \"#utility.yul\":5369:5419   */\n      swap1\n      pop\n        /* \"#utility.yul\":5285:5425   */\n      swap2\n      swap1\n      pop\n      jump\t// out\n        /* \"#utility.yul\":5431:5590   */\n    tag_82:\n        /* \"#utility.yul\":5532:5583   */\n      tag_159\n        /* \"#utility.yul\":5577:5582   */\n      dup2\n        /* \"#utility.yul\":5532:5583   */\n      tag_81\n      jump\t// in\n    tag_159:\n        /* \"#utility.yul\":5527:5530   */\n      dup3\n        /* \"#utility.yul\":5520:5584   */\n      mstore\n        /* \"#utility.yul\":5431:5590   */\n      pop\n      pop\n      jump\t// out\n        /* \"#utility.yul\":5596:5846   */\n    tag_45:\n        /* \"#utility.yul\":5703:5707   */\n      0x00\n        /* \"#utility.yul\":5741:5743   */\n      0x20\n        /* \"#utility.yul\":5730:5739   */\n      dup3\n        /* \"#utility.yul\":5726:5744   */\n      add\n        /* \"#utility.yul\":5718:5744   */\n      swap1\n      pop\n        /* \"#utility.yul\":5754:5839   */\n      tag_161\n        /* \"#utility.yul\":5836:5837   */\n      0x00\n        /* \"#utility.yul\":5825:5834   */\n      dup4\n        /* \"#utility.yul\":5821:5838   */\n      add\n        /* \"#utility.yul\":5812:5818   */\n      dup5\n        /* \"#utility.yul\":5754:5839   */\n      tag_82\n      jump\t// in\n    tag_161:\n        /* \"#utility.yul\":5596:5846   */\n      swap3\n      swap2\n      pop\n      pop\n      jump\t// out\n        /* \"#utility.yul\":5852:6021   */\n    tag_83:\n        /* \"#utility.yul\":5936:5947   */\n      0x00\n        /* \"#utility.yul\":5970:5976   */\n      dup3\n        /* \"#utility.yul\":5965:5968   */\n      dup3\n        /* \"#utility.yul\":5958:5977   */\n      mstore\n        /* \"#utility.yul\":6010:6014   */\n      0x20\n        /* \"#utility.yul\":6005:6008   */\n      dup3\n        /* \"#utility.yul\":6001:6015   */\n      add\n        /* \"#utility.yul\":5986:6015   */\n      swap1\n      pop\n        /* \"#utility.yul\":5852:6021   */\n      swap3\n      swap2\n      pop\n      pop\n      jump\t// out\n        /* \"#utility.yul\":6027:6191   */\n    tag_84:\n        /* \"#utility.yul\":6167:6183   */\n      0x7374617274206174203c206e6f77000000000000000000000000000000000000\n        /* \"#utility.yul\":6163:6164   */\n      0x00\n        /* \"#utility.yul\":6155:6161   */\n      dup3\n        /* \"#utility.yul\":6151:6165   */\n      add\n        /* \"#utility.yul\":6144:6184   */\n      mstore\n        /* \"#utility.yul\":6027:6191   */\n      pop\n      jump\t// out\n        /* \"#utility.yul\":6197:6563   */\n    tag_85:\n        /* \"#utility.yul\":6339:6342   */\n      0x00\n        /* \"#utility.yul\":6360:6427   */\n      tag_165\n        /* \"#utility.yul\":6424:6426   */\n      0x0e\n        /* \"#utility.yul\":6419:6422   */\n      dup4\n        /* \"#utility.yul\":6360:6427   */\n      tag_83\n      jump\t// in\n    tag_165:\n        /* \"#utility.yul\":6353:6427   */\n      swap2\n      pop\n        /* \"#utility.yul\":6436:6529   */\n      tag_166\n        /* \"#utility.yul\":6525:6528   */\n      dup3\n        /* \"#utility.yul\":6436:6529   */\n      tag_84\n      jump\t// in\n    tag_166:\n        /* \"#utility.yul\":6554:6556   */\n      0x20\n        /* \"#utility.yul\":6549:6552   */\n      dup3\n        /* \"#utility.yul\":6545:6557   */\n      add\n        /* \"#utility.yul\":6538:6557   */\n      swap1\n      pop\n        /* \"#utility.yul\":6197:6563   */\n      swap2\n      swap1\n      pop\n      jump\t// out\n        /* \"#utility.yul\":6569:6988   */\n    tag_53:\n        /* \"#utility.yul\":6735:6739   */\n      0x00\n        /* \"#utility.yul\":6773:6775   */\n      0x20\n        /* \"#utility.yul\":6762:6771   */\n      dup3\n        /* \"#utility.yul\":6758:6776   */\n      add\n        /* \"#utility.yul\":6750:6776   */\n      swap1\n      pop\n        /* \"#utility.yul\":6822:6831   */\n      dup2\n        /* \"#utility.yul\":6816:6820   */\n      dup2\n        /* \"#utility.yul\":6812:6832   */\n      sub\n        /* \"#utility.yul\":6808:6809   */\n      0x00\n        /* \"#utility.yul\":6797:6806   */\n      dup4\n        /* \"#utility.yul\":6793:6810   */\n      add\n        /* \"#utility.yul\":6786:6833   */\n      mstore\n        /* \"#utility.yul\":6850:6981   */\n      tag_168\n        /* \"#utility.yul\":6976:6980   */\n      dup2\n        /* \"#utility.yul\":6850:6981   */\n      tag_85\n      jump\t// in\n    tag_168:\n        /* \"#utility.yul\":6842:6981   */\n      swap1\n      pop\n        /* \"#utility.yul\":6569:6988   */\n      swap2\n      swap1\n      pop\n      jump\t// out\n        /* \"#utility.yul\":6994:7151   */\n    tag_86:\n        /* \"#utility.yul\":7134:7143   */\n      0x656e642061742000000000000000000000000000000000000000000000000000\n        /* \"#utility.yul\":7130:7131   */\n      0x00\n        /* \"#utility.yul\":7122:7128   */\n      dup3\n        /* \"#utility.yul\":7118:7132   */\n      add\n        /* \"#utility.yul\":7111:7144   */\n      mstore\n        /* \"#utility.yul\":6994:7151   */\n      pop\n      jump\t// out\n        /* \"#utility.yul\":7157:7522   */\n    tag_87:\n        /* \"#utility.yul\":7299:7302   */\n      0x00\n        /* \"#utility.yul\":7320:7386   */\n      tag_171\n        /* \"#utility.yul\":7384:7385   */\n      0x07\n        /* \"#utility.yul\":7379:7382   */\n      dup4\n        /* \"#utility.yul\":7320:7386   */\n      tag_83\n      jump\t// in\n    tag_171:\n        /* \"#utility.yul\":7313:7386   */\n      swap2\n      pop\n        /* \"#utility.yul\":7395:7488   */\n      tag_172\n        /* \"#utility.yul\":7484:7487   */\n      dup3\n        /* \"#utility.yul\":7395:7488   */\n      tag_86\n      jump\t// in\n    tag_172:\n        /* \"#utility.yul\":7513:7515   */\n      0x20\n        /* \"#utility.yul\":7508:7511   */\n      dup3\n        /* \"#utility.yul\":7504:7516   */\n      add\n        /* \"#utility.yul\":7497:7516   */\n      swap1\n      pop\n        /* \"#utility.yul\":7157:7522   */\n      swap2\n      swap1\n      pop\n      jump\t// out\n        /* \"#utility.yul\":7528:7947   */\n    tag_56:\n        /* \"#utility.yul\":7694:7698   */\n      0x00\n        /* \"#utility.yul\":7732:7734   */\n      0x20\n        /* \"#utility.yul\":7721:7730   */\n      dup3\n        /* \"#utility.yul\":7717:7735   */\n      add\n        /* \"#utility.yul\":7709:7735   */\n      swap1\n      pop\n        /* \"#utility.yul\":7781:7790   */\n      dup2\n        /* \"#utility.yul\":7775:7779   */\n      dup2\n        /* \"#utility.yul\":7771:7791   */\n      sub\n        /* \"#utility.yul\":7767:7768   */\n      0x00\n        /* \"#utility.yul\":7756:7765   */\n      dup4\n        /* \"#utility.yul\":7752:7769   */\n      add\n        /* \"#utility.yul\":7745:7792   */\n      mstore\n        /* \"#utility.yul\":7809:7940   */\n      tag_174\n        /* \"#utility.yul\":7935:7939   */\n      dup2\n        /* \"#utility.yul\":7809:7940   */\n      tag_87\n      jump\t// in\n    tag_174:\n        /* \"#utility.yul\":7801:7940   */\n      swap1\n      pop\n        /* \"#utility.yul\":7528:7947   */\n      swap2\n      swap1\n      pop\n      jump\t// out\n\n    auxdata: 0xa26469706673582212206022db2cae1d699efc090e9dd655f60e06cfdc4e8a9aca59ffb5f01b68fe869564736f6c63430008110033\n}\n",
				"bytecode": {
					"linkReferences": {},
					"object": "60a060405234801561001057600080fd5b5060405161087c38038061087c833981810160405281019061003291906100cf565b8073ffffffffffffffffffffffffffffffffffffffff1660808173ffffffffffffffffffffffffffffffffffffffff1681525050506100fc565b600080fd5b600073ffffffffffffffffffffffffffffffffffffffff82169050919050565b600061009c82610071565b9050919050565b6100ac81610091565b81146100b757600080fd5b50565b6000815190506100c9816100a3565b92915050565b6000602082840312156100e5576100e461006c565b5b60006100f3848285016100ba565b91505092915050565b608051610765610117600039600061031b01526107656000f3fe608060405234801561001057600080fd5b50600436106100935760003560e01c806340e58ee51161006657806340e58ee514610122578063711853ab1461013e578063aa4fb63a1461015a578063fc0c546a1461018a578063fde327be146101a857610093565b806306661abd14610098578063141961bc146100b6578063278ecde1146100ea5780632c63f14614610106575b600080fd5b6100a06101c4565b6040516100ad919061035a565b60405180910390f35b6100d060048036038101906100cb91906103a6565b6101ca565b6040516100e195949392919061044e565b60405180910390f35b61010460048036038101906100ff91906103a6565b61024d565b005b610120600480360381019061011b91906104cd565b610250565b005b61013c600480360381019061013791906103a6565b6102ed565b005b61015860048036038101906101539190610520565b6102f0565b005b610174600480360381019061016f919061058c565b6102f4565b604051610181919061035a565b60405180910390f35b610192610319565b60405161019f919061062b565b60405180910390f35b6101c260048036038101906101bd9190610520565b61033d565b005b60005481565b60016020528060005260406000206000915090508060000160009054906101000a900473ffffffffffffffffffffffffffffffffffffffff16908060010154908060020160009054906101000a900463ffffffff16908060020160049054906101000a900463ffffffff16908060020160089054906101000a900460ff16905085565b50565b428263ffffffff161115610299576040517f08c379a0000000000000000000000000000000000000000000000000000000008152600401610290906106a3565b60405180910390fd5b8163ffffffff168163ffffffff1611156102e8576040517f08c379a00000000000000000000000000000000000000000000000000000000081526004016102df9061070f565b60405180910390fd5b505050565b50565b5050565b6002602052816000526040600020602052806000526040600020600091509150505481565b7f000000000000000000000000000000000000000000000000000000000000000081565b5050565b6000819050919050565b61035481610341565b82525050565b600060208201905061036f600083018461034b565b92915050565b600080fd5b61038381610341565b811461038e57600080fd5b50565b6000813590506103a08161037a565b92915050565b6000602082840312156103bc576103bb610375565b5b60006103ca84828501610391565b91505092915050565b600073ffffffffffffffffffffffffffffffffffffffff82169050919050565b60006103fe826103d3565b9050919050565b61040e816103f3565b82525050565b600063ffffffff82169050919050565b61042d81610414565b82525050565b60008115159050919050565b61044881610433565b82525050565b600060a0820190506104636000830188610405565b610470602083018761034b565b61047d6040830186610424565b61048a6060830185610424565b610497608083018461043f565b9695505050505050565b6104aa81610414565b81146104b557600080fd5b50565b6000813590506104c7816104a1565b92915050565b6000806000606084860312156104e6576104e5610375565b5b60006104f486828701610391565b9350506020610505868287016104b8565b9250506040610516868287016104b8565b9150509250925092565b6000806040838503121561053757610536610375565b5b600061054585828601610391565b925050602061055685828601610391565b9150509250929050565b610569816103f3565b811461057457600080fd5b50565b60008135905061058681610560565b92915050565b600080604083850312156105a3576105a2610375565b5b60006105b185828601610391565b92505060206105c285828601610577565b9150509250929050565b6000819050919050565b60006105f16105ec6105e7846103d3565b6105cc565b6103d3565b9050919050565b6000610603826105d6565b9050919050565b6000610615826105f8565b9050919050565b6106258161060a565b82525050565b6000602082019050610640600083018461061c565b92915050565b600082825260208201905092915050565b7f7374617274206174203c206e6f77000000000000000000000000000000000000600082015250565b600061068d600e83610646565b915061069882610657565b602082019050919050565b600060208201905081810360008301526106bc81610680565b9050919050565b7f656e642061742000000000000000000000000000000000000000000000000000600082015250565b60006106f9600783610646565b9150610704826106c3565b602082019050919050565b60006020820190508181036000830152610728816106ec565b905091905056fea26469706673582212206022db2cae1d699efc090e9dd655f60e06cfdc4e8a9aca59ffb5f01b68fe869564736f6c63430008110033",
					"opcodes": "PUSH1 0xA0 PUSH1 0x40 MSTORE CALLVALUE DUP1 ISZERO PUSH2 0x10 JUMPI PUSH1 0x0 DUP1 REVERT JUMPDEST POP PUSH1 0x40 MLOAD PUSH2 0x87C CODESIZE SUB DUP1 PUSH2 0x87C DUP4 CODECOPY DUP2 DUP2 ADD PUSH1 0x40 MSTORE DUP2 ADD SWAP1 PUSH2 0x32 SWAP2 SWAP1 PUSH2 0xCF JUMP JUMPDEST DUP1 PUSH20 0xFFFFFFFFFFFFFFFFFFFFFFFFFFFFFFFFFFFFFFFF AND PUSH1 0x80 DUP2 PUSH20 0xFFFFFFFFFFFFFFFFFFFFFFFFFFFFFFFFFFFFFFFF AND DUP2 MSTORE POP POP POP PUSH2 0xFC JUMP JUMPDEST PUSH1 0x0 DUP1 REVERT JUMPDEST PUSH1 0x0 PUSH20 0xFFFFFFFFFFFFFFFFFFFFFFFFFFFFFFFFFFFFFFFF DUP3 AND SWAP1 POP SWAP2 SWAP1 POP JUMP JUMPDEST PUSH1 0x0 PUSH2 0x9C DUP3 PUSH2 0x71 JUMP JUMPDEST SWAP1 POP SWAP2 SWAP1 POP JUMP JUMPDEST PUSH2 0xAC DUP2 PUSH2 0x91 JUMP JUMPDEST DUP2 EQ PUSH2 0xB7 JUMPI PUSH1 0x0 DUP1 REVERT JUMPDEST POP JUMP JUMPDEST PUSH1 0x0 DUP2 MLOAD SWAP1 POP PUSH2 0xC9 DUP2 PUSH2 0xA3 JUMP JUMPDEST SWAP3 SWAP2 POP POP JUMP JUMPDEST PUSH1 0x0 PUSH1 0x20 DUP3 DUP5 SUB SLT ISZERO PUSH2 0xE5 JUMPI PUSH2 0xE4 PUSH2 0x6C JUMP JUMPDEST JUMPDEST PUSH1 0x0 PUSH2 0xF3 DUP5 DUP3 DUP6 ADD PUSH2 0xBA JUMP JUMPDEST SWAP2 POP POP SWAP3 SWAP2 POP POP JUMP JUMPDEST PUSH1 0x80 MLOAD PUSH2 0x765 PUSH2 0x117 PUSH1 0x0 CODECOPY PUSH1 0x0 PUSH2 0x31B ADD MSTORE PUSH2 0x765 PUSH1 0x0 RETURN INVALID PUSH1 0x80 PUSH1 0x40 MSTORE CALLVALUE DUP1 ISZERO PUSH2 0x10 JUMPI PUSH1 0x0 DUP1 REVERT JUMPDEST POP PUSH1 0x4 CALLDATASIZE LT PUSH2 0x93 JUMPI PUSH1 0x0 CALLDATALOAD PUSH1 0xE0 SHR DUP1 PUSH4 0x40E58EE5 GT PUSH2 0x66 JUMPI DUP1 PUSH4 0x40E58EE5 EQ PUSH2 0x122 JUMPI DUP1 PUSH4 0x711853AB EQ PUSH2 0x13E JUMPI DUP1 PUSH4 0xAA4FB63A EQ PUSH2 0x15A JUMPI DUP1 PUSH4 0xFC0C546A EQ PUSH2 0x18A JUMPI DUP1 PUSH4 0xFDE327BE EQ PUSH2 0x1A8 JUMPI PUSH2 0x93 JUMP JUMPDEST DUP1 PUSH4 0x6661ABD EQ PUSH2 0x98 JUMPI DUP1 PUSH4 0x141961BC EQ PUSH2 0xB6 JUMPI DUP1 PUSH4 0x278ECDE1 EQ PUSH2 0xEA JUMPI DUP1 PUSH4 0x2C63F146 EQ PUSH2 0x106 JUMPI JUMPDEST PUSH1 0x0 DUP1 REVERT JUMPDEST PUSH2 0xA0 PUSH2 0x1C4 JUMP JUMPDEST PUSH1 0x40 MLOAD PUSH2 0xAD SWAP2 SWAP1 PUSH2 0x35A JUMP JUMPDEST PUSH1 0x40 MLOAD DUP1 SWAP2 SUB SWAP1 RETURN JUMPDEST PUSH2 0xD0 PUSH1 0x4 DUP1 CALLDATASIZE SUB DUP2 ADD SWAP1 PUSH2 0xCB SWAP2 SWAP1 PUSH2 0x3A6 JUMP JUMPDEST PUSH2 0x1CA JUMP JUMPDEST PUSH1 0x40 MLOAD PUSH2 0xE1 SWAP6 SWAP5 SWAP4 SWAP3 SWAP2 SWAP1 PUSH2 0x44E JUMP JUMPDEST PUSH1 0x40 MLOAD DUP1 SWAP2 SUB SWAP1 RETURN JUMPDEST PUSH2 0x104 PUSH1 0x4 DUP1 CALLDATASIZE SUB DUP2 ADD SWAP1 PUSH2 0xFF SWAP2 SWAP1 PUSH2 0x3A6 JUMP JUMPDEST PUSH2 0x24D JUMP JUMPDEST STOP JUMPDEST PUSH2 0x120 PUSH1 0x4 DUP1 CALLDATASIZE SUB DUP2 ADD SWAP1 PUSH2 0x11B SWAP2 SWAP1 PUSH2 0x4CD JUMP JUMPDEST PUSH2 0x250 JUMP JUMPDEST STOP JUMPDEST PUSH2 0x13C PUSH1 0x4 DUP1 CALLDATASIZE SUB DUP2 ADD SWAP1 PUSH2 0x137 SWAP2 SWAP1 PUSH2 0x3A6 JUMP JUMPDEST PUSH2 0x2ED JUMP JUMPDEST STOP JUMPDEST PUSH2 0x158 PUSH1 0x4 DUP1 CALLDATASIZE SUB DUP2 ADD SWAP1 PUSH2 0x153 SWAP2 SWAP1 PUSH2 0x520 JUMP JUMPDEST PUSH2 0x2F0 JUMP JUMPDEST STOP JUMPDEST PUSH2 0x174 PUSH1 0x4 DUP1 CALLDATASIZE SUB DUP2 ADD SWAP1 PUSH2 0x16F SWAP2 SWAP1 PUSH2 0x58C JUMP JUMPDEST PUSH2 0x2F4 JUMP JUMPDEST PUSH1 0x40 MLOAD PUSH2 0x181 SWAP2 SWAP1 PUSH2 0x35A JUMP JUMPDEST PUSH1 0x40 MLOAD DUP1 SWAP2 SUB SWAP1 RETURN JUMPDEST PUSH2 0x192 PUSH2 0x319 JUMP JUMPDEST PUSH1 0x40 MLOAD PUSH2 0x19F SWAP2 SWAP1 PUSH2 0x62B JUMP JUMPDEST PUSH1 0x40 MLOAD DUP1 SWAP2 SUB SWAP1 RETURN JUMPDEST PUSH2 0x1C2 PUSH1 0x4 DUP1 CALLDATASIZE SUB DUP2 ADD SWAP1 PUSH2 0x1BD SWAP2 SWAP1 PUSH2 0x520 JUMP JUMPDEST PUSH2 0x33D JUMP JUMPDEST STOP JUMPDEST PUSH1 0x0 SLOAD DUP2 JUMP JUMPDEST PUSH1 0x1 PUSH1 0x20 MSTORE DUP1 PUSH1 0x0 MSTORE PUSH1 0x40 PUSH1 0x0 KECCAK256 PUSH1 0x0 SWAP2 POP SWAP1 POP DUP1 PUSH1 0x0 ADD PUSH1 0x0 SWAP1 SLOAD SWAP1 PUSH2 0x100 EXP SWAP1 DIV PUSH20 0xFFFFFFFFFFFFFFFFFFFFFFFFFFFFFFFFFFFFFFFF AND SWAP1 DUP1 PUSH1 0x1 ADD SLOAD SWAP1 DUP1 PUSH1 0x2 ADD PUSH1 0x0 SWAP1 SLOAD SWAP1 PUSH2 0x100 EXP SWAP1 DIV PUSH4 0xFFFFFFFF AND SWAP1 DUP1 PUSH1 0x2 ADD PUSH1 0x4 SWAP1 SLOAD SWAP1 PUSH2 0x100 EXP SWAP1 DIV PUSH4 0xFFFFFFFF AND SWAP1 DUP1 PUSH1 0x2 ADD PUSH1 0x8 SWAP1 SLOAD SWAP1 PUSH2 0x100 EXP SWAP1 DIV PUSH1 0xFF AND SWAP1 POP DUP6 JUMP JUMPDEST POP JUMP JUMPDEST TIMESTAMP DUP3 PUSH4 0xFFFFFFFF AND GT ISZERO PUSH2 0x299 JUMPI PUSH1 0x40 MLOAD PUSH32 0x8C379A000000000000000000000000000000000000000000000000000000000 DUP2 MSTORE PUSH1 0x4 ADD PUSH2 0x290 SWAP1 PUSH2 0x6A3 JUMP JUMPDEST PUSH1 0x40 MLOAD DUP1 SWAP2 SUB SWAP1 REVERT JUMPDEST DUP2 PUSH4 0xFFFFFFFF AND DUP2 PUSH4 0xFFFFFFFF AND GT ISZERO PUSH2 0x2E8 JUMPI PUSH1 0x40 MLOAD PUSH32 0x8C379A000000000000000000000000000000000000000000000000000000000 DUP2 MSTORE PUSH1 0x4 ADD PUSH2 0x2DF SWAP1 PUSH2 0x70F JUMP JUMPDEST PUSH1 0x40 MLOAD DUP1 SWAP2 SUB SWAP1 REVERT JUMPDEST POP POP POP JUMP JUMPDEST POP JUMP JUMPDEST POP POP JUMP JUMPDEST PUSH1 0x2 PUSH1 0x20 MSTORE DUP2 PUSH1 0x0 MSTORE PUSH1 0x40 PUSH1 0x0 KECCAK256 PUSH1 0x20 MSTORE DUP1 PUSH1 0x0 MSTORE PUSH1 0x40 PUSH1 0x0 KECCAK256 PUSH1 0x0 SWAP2 POP SWAP2 POP POP SLOAD DUP2 JUMP JUMPDEST PUSH32 0x0 DUP2 JUMP JUMPDEST POP POP JUMP JUMPDEST PUSH1 0x0 DUP2 SWAP1 POP SWAP2 SWAP1 POP JUMP JUMPDEST PUSH2 0x354 DUP2 PUSH2 0x341 JUMP JUMPDEST DUP3 MSTORE POP POP JUMP JUMPDEST PUSH1 0x0 PUSH1 0x20 DUP3 ADD SWAP1 POP PUSH2 0x36F PUSH1 0x0 DUP4 ADD DUP5 PUSH2 0x34B JUMP JUMPDEST SWAP3 SWAP2 POP POP JUMP JUMPDEST PUSH1 0x0 DUP1 REVERT JUMPDEST PUSH2 0x383 DUP2 PUSH2 0x341 JUMP JUMPDEST DUP2 EQ PUSH2 0x38E JUMPI PUSH1 0x0 DUP1 REVERT JUMPDEST POP JUMP JUMPDEST PUSH1 0x0 DUP2 CALLDATALOAD SWAP1 POP PUSH2 0x3A0 DUP2 PUSH2 0x37A JUMP JUMPDEST SWAP3 SWAP2 POP POP JUMP JUMPDEST PUSH1 0x0 PUSH1 0x20 DUP3 DUP5 SUB SLT ISZERO PUSH2 0x3BC JUMPI PUSH2 0x3BB PUSH2 0x375 JUMP JUMPDEST JUMPDEST PUSH1 0x0 PUSH2 0x3CA DUP5 DUP3 DUP6 ADD PUSH2 0x391 JUMP JUMPDEST SWAP2 POP POP SWAP3 SWAP2 POP POP JUMP JUMPDEST PUSH1 0x0 PUSH20 0xFFFFFFFFFFFFFFFFFFFFFFFFFFFFFFFFFFFFFFFF DUP3 AND SWAP1 POP SWAP2 SWAP1 POP JUMP JUMPDEST PUSH1 0x0 PUSH2 0x3FE DUP3 PUSH2 0x3D3 JUMP JUMPDEST SWAP1 POP SWAP2 SWAP1 POP JUMP JUMPDEST PUSH2 0x40E DUP2 PUSH2 0x3F3 JUMP JUMPDEST DUP3 MSTORE POP POP JUMP JUMPDEST PUSH1 0x0 PUSH4 0xFFFFFFFF DUP3 AND SWAP1 POP SWAP2 SWAP1 POP JUMP JUMPDEST PUSH2 0x42D DUP2 PUSH2 0x414 JUMP JUMPDEST DUP3 MSTORE POP POP JUMP JUMPDEST PUSH1 0x0 DUP2 ISZERO ISZERO SWAP1 POP SWAP2 SWAP1 POP JUMP JUMPDEST PUSH2 0x448 DUP2 PUSH2 0x433 JUMP JUMPDEST DUP3 MSTORE POP POP JUMP JUMPDEST PUSH1 0x0 PUSH1 0xA0 DUP3 ADD SWAP1 POP PUSH2 0x463 PUSH1 0x0 DUP4 ADD DUP9 PUSH2 0x405 JUMP JUMPDEST PUSH2 0x470 PUSH1 0x20 DUP4 ADD DUP8 PUSH2 0x34B JUMP JUMPDEST PUSH2 0x47D PUSH1 0x40 DUP4 ADD DUP7 PUSH2 0x424 JUMP JUMPDEST PUSH2 0x48A PUSH1 0x60 DUP4 ADD DUP6 PUSH2 0x424 JUMP JUMPDEST PUSH2 0x497 PUSH1 0x80 DUP4 ADD DUP5 PUSH2 0x43F JUMP JUMPDEST SWAP7 SWAP6 POP POP POP POP POP POP JUMP JUMPDEST PUSH2 0x4AA DUP2 PUSH2 0x414 JUMP JUMPDEST DUP2 EQ PUSH2 0x4B5 JUMPI PUSH1 0x0 DUP1 REVERT JUMPDEST POP JUMP JUMPDEST PUSH1 0x0 DUP2 CALLDATALOAD SWAP1 POP PUSH2 0x4C7 DUP2 PUSH2 0x4A1 JUMP JUMPDEST SWAP3 SWAP2 POP POP JUMP JUMPDEST PUSH1 0x0 DUP1 PUSH1 0x0 PUSH1 0x60 DUP5 DUP7 SUB SLT ISZERO PUSH2 0x4E6 JUMPI PUSH2 0x4E5 PUSH2 0x375 JUMP JUMPDEST JUMPDEST PUSH1 0x0 PUSH2 0x4F4 DUP7 DUP3 DUP8 ADD PUSH2 0x391 JUMP JUMPDEST SWAP4 POP POP PUSH1 0x20 PUSH2 0x505 DUP7 DUP3 DUP8 ADD PUSH2 0x4B8 JUMP JUMPDEST SWAP3 POP POP PUSH1 0x40 PUSH2 0x516 DUP7 DUP3 DUP8 ADD PUSH2 0x4B8 JUMP JUMPDEST SWAP2 POP POP SWAP3 POP SWAP3 POP SWAP3 JUMP JUMPDEST PUSH1 0x0 DUP1 PUSH1 0x40 DUP4 DUP6 SUB SLT ISZERO PUSH2 0x537 JUMPI PUSH2 0x536 PUSH2 0x375 JUMP JUMPDEST JUMPDEST PUSH1 0x0 PUSH2 0x545 DUP6 DUP3 DUP7 ADD PUSH2 0x391 JUMP JUMPDEST SWAP3 POP POP PUSH1 0x20 PUSH2 0x556 DUP6 DUP3 DUP7 ADD PUSH2 0x391 JUMP JUMPDEST SWAP2 POP POP SWAP3 POP SWAP3 SWAP1 POP JUMP JUMPDEST PUSH2 0x569 DUP2 PUSH2 0x3F3 JUMP JUMPDEST DUP2 EQ PUSH2 0x574 JUMPI PUSH1 0x0 DUP1 REVERT JUMPDEST POP JUMP JUMPDEST PUSH1 0x0 DUP2 CALLDATALOAD SWAP1 POP PUSH2 0x586 DUP2 PUSH2 0x560 JUMP JUMPDEST SWAP3 SWAP2 POP POP JUMP JUMPDEST PUSH1 0x0 DUP1 PUSH1 0x40 DUP4 DUP6 SUB SLT ISZERO PUSH2 0x5A3 JUMPI PUSH2 0x5A2 PUSH2 0x375 JUMP JUMPDEST JUMPDEST PUSH1 0x0 PUSH2 0x5B1 DUP6 DUP3 DUP7 ADD PUSH2 0x391 JUMP JUMPDEST SWAP3 POP POP PUSH1 0x20 PUSH2 0x5C2 DUP6 DUP3 DUP7 ADD PUSH2 0x577 JUMP JUMPDEST SWAP2 POP POP SWAP3 POP SWAP3 SWAP1 POP JUMP JUMPDEST PUSH1 0x0 DUP2 SWAP1 POP SWAP2 SWAP1 POP JUMP JUMPDEST PUSH1 0x0 PUSH2 0x5F1 PUSH2 0x5EC PUSH2 0x5E7 DUP5 PUSH2 0x3D3 JUMP JUMPDEST PUSH2 0x5CC JUMP JUMPDEST PUSH2 0x3D3 JUMP JUMPDEST SWAP1 POP SWAP2 SWAP1 POP JUMP JUMPDEST PUSH1 0x0 PUSH2 0x603 DUP3 PUSH2 0x5D6 JUMP JUMPDEST SWAP1 POP SWAP2 SWAP1 POP JUMP JUMPDEST PUSH1 0x0 PUSH2 0x615 DUP3 PUSH2 0x5F8 JUMP JUMPDEST SWAP1 POP SWAP2 SWAP1 POP JUMP JUMPDEST PUSH2 0x625 DUP2 PUSH2 0x60A JUMP JUMPDEST DUP3 MSTORE POP POP JUMP JUMPDEST PUSH1 0x0 PUSH1 0x20 DUP3 ADD SWAP1 POP PUSH2 0x640 PUSH1 0x0 DUP4 ADD DUP5 PUSH2 0x61C JUMP JUMPDEST SWAP3 SWAP2 POP POP JUMP JUMPDEST PUSH1 0x0 DUP3 DUP3 MSTORE PUSH1 0x20 DUP3 ADD SWAP1 POP SWAP3 SWAP2 POP POP JUMP JUMPDEST PUSH32 0x7374617274206174203C206E6F77000000000000000000000000000000000000 PUSH1 0x0 DUP3 ADD MSTORE POP JUMP JUMPDEST PUSH1 0x0 PUSH2 0x68D PUSH1 0xE DUP4 PUSH2 0x646 JUMP JUMPDEST SWAP2 POP PUSH2 0x698 DUP3 PUSH2 0x657 JUMP JUMPDEST PUSH1 0x20 DUP3 ADD SWAP1 POP SWAP2 SWAP1 POP JUMP JUMPDEST PUSH1 0x0 PUSH1 0x20 DUP3 ADD SWAP1 POP DUP2 DUP2 SUB PUSH1 0x0 DUP4 ADD MSTORE PUSH2 0x6BC DUP2 PUSH2 0x680 JUMP JUMPDEST SWAP1 POP SWAP2 SWAP1 POP JUMP JUMPDEST PUSH32 0x656E642061742000000000000000000000000000000000000000000000000000 PUSH1 0x0 DUP3 ADD MSTORE POP JUMP JUMPDEST PUSH1 0x0 PUSH2 0x6F9 PUSH1 0x7 DUP4 PUSH2 0x646 JUMP JUMPDEST SWAP2 POP PUSH2 0x704 DUP3 PUSH2 0x6C3 JUMP JUMPDEST PUSH1 0x20 DUP3 ADD SWAP1 POP SWAP2 SWAP1 POP JUMP JUMPDEST PUSH1 0x0 PUSH1 0x20 DUP3 ADD SWAP1 POP DUP2 DUP2 SUB PUSH1 0x0 DUP4 ADD MSTORE PUSH2 0x728 DUP2 PUSH2 0x6EC JUMP JUMPDEST SWAP1 POP SWAP2 SWAP1 POP JUMP INVALID LOG2 PUSH5 0x6970667358 0x22 SLT KECCAK256 PUSH1 0x22 0xDB 0x2C 0xAE SAR PUSH10 0x9EFC090E9DD655F60E06 0xCF 0xDC 0x4E DUP11 SWAP11 0xCA MSIZE SELFDESTRUCT 0xB5 CREATE SHL PUSH9 0xFE869564736F6C6343 STOP ADDMOD GT STOP CALLER "
				},
				"gasEstimates": {
					"creation": {
						"codeDepositCost": "378600",
						"executionCost": "infinite",
						"totalCost": "infinite"
					},
					"external": {
						"campaigns(uint256)": "infinite",
						"cancel(uint256)": "406",
						"count()": "2430",
						"launch(uint256,uint32,uint32)": "infinite",
						"pledge(uint256,uint256)": "infinite",
						"pledgedAmount(uint256,address)": "infinite",
						"refund(uint256)": "451",
						"token()": "infinite",
						"unpledge(uint256,uint256)": "infinite"
					}
				},
				"methodIdentifiers": {
					"campaigns(uint256)": "141961bc",
					"cancel(uint256)": "40e58ee5",
					"count()": "06661abd",
					"launch(uint256,uint32,uint32)": "2c63f146",
					"pledge(uint256,uint256)": "fde327be",
					"pledgedAmount(uint256,address)": "aa4fb63a",
					"refund(uint256)": "278ecde1",
					"token()": "fc0c546a",
					"unpledge(uint256,uint256)": "711853ab"
				}
			},
			"storageLayout": {
				"storage": [
					{
						"astId": 18,
						"contract": "CrowdFund.sol:CrowdFund",
						"label": "count",
						"offset": 0,
						"slot": "0",
						"type": "t_uint256"
					},
					{
						"astId": 23,
						"contract": "CrowdFund.sol:CrowdFund",
						"label": "campaigns",
						"offset": 0,
						"slot": "1",
						"type": "t_mapping(t_uint256,t_struct(Campaign)13_storage)"
					},
					{
						"astId": 29,
						"contract": "CrowdFund.sol:CrowdFund",
						"label": "pledgedAmount",
						"offset": 0,
						"slot": "2",
						"type": "t_mapping(t_uint256,t_mapping(t_address,t_uint256))"
					}
				],
				"types": {
					"t_address": {
						"encoding": "inplace",
						"label": "address",
						"numberOfBytes": "20"
					},
					"t_bool": {
						"encoding": "inplace",
						"label": "bool",
						"numberOfBytes": "1"
					},
					"t_mapping(t_address,t_uint256)": {
						"encoding": "mapping",
						"key": "t_address",
						"label": "mapping(address => uint256)",
						"numberOfBytes": "32",
						"value": "t_uint256"
					},
					"t_mapping(t_uint256,t_mapping(t_address,t_uint256))": {
						"encoding": "mapping",
						"key": "t_uint256",
						"label": "mapping(uint256 => mapping(address => uint256))",
						"numberOfBytes": "32",
						"value": "t_mapping(t_address,t_uint256)"
					},
					"t_mapping(t_uint256,t_struct(Campaign)13_storage)": {
						"encoding": "mapping",
						"key": "t_uint256",
						"label": "mapping(uint256 => struct CrowdFund.Campaign)",
						"numberOfBytes": "32",
						"value": "t_struct(Campaign)13_storage"
					},
					"t_struct(Campaign)13_storage": {
						"encoding": "inplace",
						"label": "struct CrowdFund.Campaign",
						"members": [
							{
								"astId": 4,
								"contract": "CrowdFund.sol:CrowdFund",
								"label": "creator",
								"offset": 0,
								"slot": "0",
								"type": "t_address"
							},
							{
								"astId": 6,
								"contract": "CrowdFund.sol:CrowdFund",
								"label": "goal",
								"offset": 0,
								"slot": "1",
								"type": "t_uint256"
							},
							{
								"astId": 8,
								"contract": "CrowdFund.sol:CrowdFund",
								"label": "startAt",
								"offset": 0,
								"slot": "2",
								"type": "t_uint32"
							},
							{
								"astId": 10,
								"contract": "CrowdFund.sol:CrowdFund",
								"label": "endAt",
								"offset": 4,
								"slot": "2",
								"type": "t_uint32"
							},
							{
								"astId": 12,
								"contract": "CrowdFund.sol:CrowdFund",
								"label": "claimed",
								"offset": 8,
								"slot": "2",
								"type": "t_bool"
							}
						],
						"numberOfBytes": "96"
					},
					"t_uint256": {
						"encoding": "inplace",
						"label": "uint256",
						"numberOfBytes": "32"
					},
					"t_uint32": {
						"encoding": "inplace",
						"label": "uint32",
						"numberOfBytes": "4"
					}
				}
			},
			"userdoc": {
				"kind": "user",
				"methods": {},
				"version": 1
			}
		}
	}
}