{
	"CrowdFund.sol": {
		"CrowdFund": {
			"abi": [
				{
					"inputs": [
						{
							"internalType": "address",
							"name": "_token",
							"type": "address"
						}
					],
					"stateMutability": "nonpayable",
					"type": "constructor"
				},
				{
					"anonymous": false,
					"inputs": [
						{
							"indexed": false,
							"internalType": "uint256",
							"name": "id",
							"type": "uint256"
						}
					],
					"name": "Cancel",
					"type": "event"
				},
				{
					"anonymous": false,
					"inputs": [
						{
							"indexed": false,
							"internalType": "uint256",
							"name": "id",
							"type": "uint256"
						}
					],
					"name": "Claim",
					"type": "event"
				},
				{
					"anonymous": false,
					"inputs": [
						{
							"indexed": false,
							"internalType": "uint256",
							"name": "id",
							"type": "uint256"
						},
						{
							"indexed": true,
							"internalType": "address",
							"name": "creator",
							"type": "address"
						},
						{
							"indexed": false,
							"internalType": "uint256",
							"name": "goal",
							"type": "uint256"
						},
						{
							"indexed": false,
							"internalType": "uint32",
							"name": "startAt",
							"type": "uint32"
						},
						{
							"indexed": false,
							"internalType": "uint32",
							"name": "endAt",
							"type": "uint32"
						}
					],
					"name": "Launch",
					"type": "event"
				},
				{
					"anonymous": false,
					"inputs": [
						{
							"indexed": true,
							"internalType": "uint256",
							"name": "id",
							"type": "uint256"
						},
						{
							"indexed": true,
							"internalType": "address",
							"name": "caller",
							"type": "address"
						},
						{
							"indexed": false,
							"internalType": "uint256",
							"name": "amount",
							"type": "uint256"
						}
					],
					"name": "Pledge",
					"type": "event"
				},
				{
					"anonymous": false,
					"inputs": [
						{
							"indexed": true,
							"internalType": "uint256",
							"name": "id",
							"type": "uint256"
						},
						{
							"indexed": true,
							"internalType": "address",
							"name": "caller",
							"type": "address"
						},
						{
							"indexed": false,
							"internalType": "uint256",
							"name": "amount",
							"type": "uint256"
						}
					],
					"name": "Refund",
					"type": "event"
				},
				{
					"anonymous": false,
					"inputs": [
						{
							"indexed": true,
							"internalType": "uint256",
							"name": "id",
							"type": "uint256"
						},
						{
							"indexed": true,
							"internalType": "address",
							"name": "caller",
							"type": "address"
						},
						{
							"indexed": false,
							"internalType": "uint256",
							"name": "amount",
							"type": "uint256"
						}
					],
					"name": "Unpledge",
					"type": "event"
				},
				{
					"inputs": [
						{
							"internalType": "uint256",
							"name": "",
							"type": "uint256"
						}
					],
					"name": "campaigns",
					"outputs": [
						{
							"internalType": "address",
							"name": "creator",
							"type": "address"
						},
						{
							"internalType": "uint256",
							"name": "goal",
							"type": "uint256"
						},
						{
							"internalType": "uint256",
							"name": "pledged",
							"type": "uint256"
						},
						{
							"internalType": "uint32",
							"name": "startAt",
							"type": "uint32"
						},
						{
							"internalType": "uint32",
							"name": "endAt",
							"type": "uint32"
						},
						{
							"internalType": "bool",
							"name": "claimed",
							"type": "bool"
						}
					],
					"stateMutability": "view",
					"type": "function"
				},
				{
					"inputs": [
						{
							"internalType": "uint256",
							"name": "_id",
							"type": "uint256"
						}
					],
					"name": "cancel",
					"outputs": [],
					"stateMutability": "nonpayable",
					"type": "function"
				},
				{
					"inputs": [
						{
							"internalType": "uint256",
							"name": "_id",
							"type": "uint256"
						}
					],
					"name": "claim",
					"outputs": [],
					"stateMutability": "nonpayable",
					"type": "function"
				},
				{
					"inputs": [],
					"name": "count",
					"outputs": [
						{
							"internalType": "uint256",
							"name": "",
							"type": "uint256"
						}
					],
					"stateMutability": "view",
					"type": "function"
				},
				{
					"inputs": [
						{
							"internalType": "uint256",
							"name": "_goal",
							"type": "uint256"
						},
						{
							"internalType": "uint32",
							"name": "_startAt",
							"type": "uint32"
						},
						{
							"internalType": "uint32",
							"name": "_endAt",
							"type": "uint32"
						}
					],
					"name": "launch",
					"outputs": [],
					"stateMutability": "nonpayable",
					"type": "function"
				},
				{
					"inputs": [
						{
							"internalType": "uint256",
							"name": "_id",
							"type": "uint256"
						},
						{
							"internalType": "uint256",
							"name": "_amount",
							"type": "uint256"
						}
					],
					"name": "pledge",
					"outputs": [],
					"stateMutability": "nonpayable",
					"type": "function"
				},
				{
					"inputs": [
						{
							"internalType": "uint256",
							"name": "",
							"type": "uint256"
						},
						{
							"internalType": "address",
							"name": "",
							"type": "address"
						}
					],
					"name": "pledgedAmount",
					"outputs": [
						{
							"internalType": "uint256",
							"name": "",
							"type": "uint256"
						}
					],
					"stateMutability": "view",
					"type": "function"
				},
				{
					"inputs": [
						{
							"internalType": "uint256",
							"name": "_id",
							"type": "uint256"
						}
					],
					"name": "refund",
					"outputs": [],
					"stateMutability": "nonpayable",
					"type": "function"
				},
				{
					"inputs": [],
					"name": "token",
					"outputs": [
						{
							"internalType": "contract IERC20",
							"name": "",
							"type": "address"
						}
					],
					"stateMutability": "view",
					"type": "function"
				},
				{
					"inputs": [
						{
							"internalType": "uint256",
							"name": "_id",
							"type": "uint256"
						},
						{
							"internalType": "uint256",
							"name": "_amount",
							"type": "uint256"
						}
					],
					"name": "unpledge",
					"outputs": [],
					"stateMutability": "nonpayable",
					"type": "function"
				}
			],
			"devdoc": {
				"kind": "dev",
				"methods": {},
				"version": 1
			},
			"evm": {
				"assembly": "    /* \"CrowdFund.sol\":81:3513  contract CrowdFund {... */\n  mstore(0x40, 0xa0)\n    /* \"CrowdFund.sol\":856:923  constructor(address _token) {... */\n  callvalue\n  dup1\n  iszero\n  tag_1\n  jumpi\n  0x00\n  dup1\n  revert\ntag_1:\n  pop\n  mload(0x40)\n  sub(codesize, bytecodeSize)\n  dup1\n  bytecodeSize\n  dup4\n  codecopy\n  dup2\n  dup2\n  add\n  0x40\n  mstore\n  dup2\n  add\n  swap1\n  tag_2\n  swap2\n  swap1\n  tag_3\n  jump\t// in\ntag_2:\n    /* \"CrowdFund.sol\":909:915  _token */\n  dup1\n    /* \"CrowdFund.sol\":894:916  token = IERC20(_token) */\n  0xffffffffffffffffffffffffffffffffffffffff\n  and\n  0x80\n  dup2\n  0xffffffffffffffffffffffffffffffffffffffff\n  and\n  dup2\n  mstore\n  pop\n  pop\n    /* \"CrowdFund.sol\":856:923  constructor(address _token) {... */\n  pop\n    /* \"CrowdFund.sol\":81:3513  contract CrowdFund {... */\n  jump(tag_6)\n    /* \"#utility.yul\":88:205   */\ntag_8:\n    /* \"#utility.yul\":197:198   */\n  0x00\n    /* \"#utility.yul\":194:195   */\n  dup1\n    /* \"#utility.yul\":187:199   */\n  revert\n    /* \"#utility.yul\":334:460   */\ntag_10:\n    /* \"#utility.yul\":371:378   */\n  0x00\n    /* \"#utility.yul\":411:453   */\n  0xffffffffffffffffffffffffffffffffffffffff\n    /* \"#utility.yul\":404:409   */\n  dup3\n    /* \"#utility.yul\":400:454   */\n  and\n    /* \"#utility.yul\":389:454   */\n  swap1\n  pop\n    /* \"#utility.yul\":334:460   */\n  swap2\n  swap1\n  pop\n  jump\t// out\n    /* \"#utility.yul\":466:562   */\ntag_11:\n    /* \"#utility.yul\":503:510   */\n  0x00\n    /* \"#utility.yul\":532:556   */\n  tag_20\n    /* \"#utility.yul\":550:555   */\n  dup3\n    /* \"#utility.yul\":532:556   */\n  tag_10\n  jump\t// in\ntag_20:\n    /* \"#utility.yul\":521:556   */\n  swap1\n  pop\n    /* \"#utility.yul\":466:562   */\n  swap2\n  swap1\n  pop\n  jump\t// out\n    /* \"#utility.yul\":568:690   */\ntag_12:\n    /* \"#utility.yul\":641:665   */\n  tag_22\n    /* \"#utility.yul\":659:664   */\n  dup2\n    /* \"#utility.yul\":641:665   */\n  tag_11\n  jump\t// in\ntag_22:\n    /* \"#utility.yul\":634:639   */\n  dup2\n    /* \"#utility.yul\":631:666   */\n  eq\n    /* \"#utility.yul\":621:684   */\n  tag_23\n  jumpi\n    /* \"#utility.yul\":680:681   */\n  0x00\n    /* \"#utility.yul\":677:678   */\n  dup1\n    /* \"#utility.yul\":670:682   */\n  revert\n    /* \"#utility.yul\":621:684   */\ntag_23:\n    /* \"#utility.yul\":568:690   */\n  pop\n  jump\t// out\n    /* \"#utility.yul\":696:839   */\ntag_13:\n    /* \"#utility.yul\":753:758   */\n  0x00\n    /* \"#utility.yul\":784:790   */\n  dup2\n    /* \"#utility.yul\":778:791   */\n  mload\n    /* \"#utility.yul\":769:791   */\n  swap1\n  pop\n    /* \"#utility.yul\":800:833   */\n  tag_25\n    /* \"#utility.yul\":827:832   */\n  dup2\n    /* \"#utility.yul\":800:833   */\n  tag_12\n  jump\t// in\ntag_25:\n    /* \"#utility.yul\":696:839   */\n  swap3\n  swap2\n  pop\n  pop\n  jump\t// out\n    /* \"#utility.yul\":845:1196   */\ntag_3:\n    /* \"#utility.yul\":915:921   */\n  0x00\n    /* \"#utility.yul\":964:966   */\n  0x20\n    /* \"#utility.yul\":952:961   */\n  dup3\n    /* \"#utility.yul\":943:950   */\n  dup5\n    /* \"#utility.yul\":939:962   */\n  sub\n    /* \"#utility.yul\":935:967   */\n  slt\n    /* \"#utility.yul\":932:1051   */\n  iszero\n  tag_27\n  jumpi\n    /* \"#utility.yul\":970:1049   */\n  tag_28\n  tag_8\n  jump\t// in\ntag_28:\n    /* \"#utility.yul\":932:1051   */\ntag_27:\n    /* \"#utility.yul\":1090:1091   */\n  0x00\n    /* \"#utility.yul\":1115:1179   */\n  tag_29\n    /* \"#utility.yul\":1171:1178   */\n  dup5\n    /* \"#utility.yul\":1162:1168   */\n  dup3\n    /* \"#utility.yul\":1151:1160   */\n  dup6\n    /* \"#utility.yul\":1147:1169   */\n  add\n    /* \"#utility.yul\":1115:1179   */\n  tag_13\n  jump\t// in\ntag_29:\n    /* \"#utility.yul\":1105:1179   */\n  swap2\n  pop\n    /* \"#utility.yul\":1061:1189   */\n  pop\n    /* \"#utility.yul\":845:1196   */\n  swap3\n  swap2\n  pop\n  pop\n  jump\t// out\n    /* \"CrowdFund.sol\":81:3513  contract CrowdFund {... */\ntag_6:\n  mload(0x80)\n  codecopy(0x00, dataOffset(sub_0), dataSize(sub_0))\n  0x00\n  assignImmutable(\"0xd9670a00d025e59e1bd58d53874bea4ab34fea782716e2c168e89a3c8452d3bb\")\n  return(0x00, dataSize(sub_0))\nstop\n\nsub_0: assembly {\n        /* \"CrowdFund.sol\":81:3513  contract CrowdFund {... */\n      mstore(0x40, 0x80)\n      callvalue\n      dup1\n      iszero\n      tag_1\n      jumpi\n      0x00\n      dup1\n      revert\n    tag_1:\n      pop\n      jumpi(tag_2, lt(calldatasize, 0x04))\n      shr(0xe0, calldataload(0x00))\n      dup1\n      0x40e58ee5\n      gt\n      tag_13\n      jumpi\n      dup1\n      0x40e58ee5\n      eq\n      tag_8\n      jumpi\n      dup1\n      0x711853ab\n      eq\n      tag_9\n      jumpi\n      dup1\n      0xaa4fb63a\n      eq\n      tag_10\n      jumpi\n      dup1\n      0xfc0c546a\n      eq\n      tag_11\n      jumpi\n      dup1\n      0xfde327be\n      eq\n      tag_12\n      jumpi\n      jump(tag_2)\n    tag_13:\n      dup1\n      0x06661abd\n      eq\n      tag_3\n      jumpi\n      dup1\n      0x141961bc\n      eq\n      tag_4\n      jumpi\n      dup1\n      0x278ecde1\n      eq\n      tag_5\n      jumpi\n      dup1\n      0x2c63f146\n      eq\n      tag_6\n      jumpi\n      dup1\n      0x379607f5\n      eq\n      tag_7\n      jumpi\n    tag_2:\n      0x00\n      dup1\n      revert\n        /* \"CrowdFund.sol\":716:733  uint public count */\n    tag_3:\n      tag_14\n      tag_15\n      jump\t// in\n    tag_14:\n      mload(0x40)\n      tag_16\n      swap2\n      swap1\n      tag_17\n      jump\t// in\n    tag_16:\n      mload(0x40)\n      dup1\n      swap2\n      sub\n      swap1\n      return\n        /* \"CrowdFund.sol\":739:781  mapping(uint => Campaign) public campaigns */\n    tag_4:\n      tag_18\n      0x04\n      dup1\n      calldatasize\n      sub\n      dup2\n      add\n      swap1\n      tag_19\n      swap2\n      swap1\n      tag_20\n      jump\t// in\n    tag_19:\n      tag_21\n      jump\t// in\n    tag_18:\n      mload(0x40)\n      tag_22\n      swap7\n      swap6\n      swap5\n      swap4\n      swap3\n      swap2\n      swap1\n      tag_23\n      jump\t// in\n    tag_22:\n      mload(0x40)\n      dup1\n      swap2\n      sub\n      swap1\n      return\n        /* \"CrowdFund.sol\":3101:3511  function refund(uint _id) external {... */\n    tag_5:\n      tag_24\n      0x04\n      dup1\n      calldatasize\n      sub\n      dup2\n      add\n      swap1\n      tag_25\n      swap2\n      swap1\n      tag_20\n      jump\t// in\n    tag_25:\n      tag_26\n      jump\t// in\n    tag_24:\n      stop\n        /* \"CrowdFund.sol\":929:1539  function launch(... */\n    tag_6:\n      tag_27\n      0x04\n      dup1\n      calldatasize\n      sub\n      dup2\n      add\n      swap1\n      tag_28\n      swap2\n      swap1\n      tag_29\n      jump\t// in\n    tag_28:\n      tag_30\n      jump\t// in\n    tag_27:\n      stop\n        /* \"CrowdFund.sol\":2643:3095  function claim(uint _id) external {... */\n    tag_7:\n      tag_31\n      0x04\n      dup1\n      calldatasize\n      sub\n      dup2\n      add\n      swap1\n      tag_32\n      swap2\n      swap1\n      tag_20\n      jump\t// in\n    tag_32:\n      tag_33\n      jump\t// in\n    tag_31:\n      stop\n        /* \"CrowdFund.sol\":1549:1827  function cancel(uint _id) external {... */\n    tag_8:\n      tag_34\n      0x04\n      dup1\n      calldatasize\n      sub\n      dup2\n      add\n      swap1\n      tag_35\n      swap2\n      swap1\n      tag_20\n      jump\t// in\n    tag_35:\n      tag_36\n      jump\t// in\n    tag_34:\n      stop\n        /* \"CrowdFund.sol\":2282:2637  function unpledge(uint _id, uint _amount) external {... */\n    tag_9:\n      tag_37\n      0x04\n      dup1\n      calldatasize\n      sub\n      dup2\n      add\n      swap1\n      tag_38\n      swap2\n      swap1\n      tag_39\n      jump\t// in\n    tag_38:\n      tag_40\n      jump\t// in\n    tag_37:\n      stop\n        /* \"CrowdFund.sol\":787:849  mapping(uint => mapping(address => uint)) public pledgedAmount */\n    tag_10:\n      tag_41\n      0x04\n      dup1\n      calldatasize\n      sub\n      dup2\n      add\n      swap1\n      tag_42\n      swap2\n      swap1\n      tag_43\n      jump\t// in\n    tag_42:\n      tag_44\n      jump\t// in\n    tag_41:\n      mload(0x40)\n      tag_45\n      swap2\n      swap1\n      tag_17\n      jump\t// in\n    tag_45:\n      mload(0x40)\n      dup1\n      swap2\n      sub\n      swap1\n      return\n        /* \"CrowdFund.sol\":681:710  IERC20 public immutable token */\n    tag_11:\n      tag_46\n      tag_47\n      jump\t// in\n    tag_46:\n      mload(0x40)\n      tag_48\n      swap2\n      swap1\n      tag_49\n      jump\t// in\n    tag_48:\n      mload(0x40)\n      dup1\n      swap2\n      sub\n      swap1\n      return\n        /* \"CrowdFund.sol\":1833:2276  function pledge(uint _id, uint _amount) external {... */\n    tag_12:\n      tag_50\n      0x04\n      dup1\n      calldatasize\n      sub\n      dup2\n      add\n      swap1\n      tag_51\n      swap2\n      swap1\n      tag_39\n      jump\t// in\n    tag_51:\n      tag_52\n      jump\t// in\n    tag_50:\n      stop\n        /* \"CrowdFund.sol\":716:733  uint public count */\n    tag_15:\n      sload(0x00)\n      dup2\n      jump\t// out\n        /* \"CrowdFund.sol\":739:781  mapping(uint => Campaign) public campaigns */\n    tag_21:\n      mstore(0x20, 0x01)\n      dup1\n      0x00\n      mstore\n      keccak256(0x00, 0x40)\n      0x00\n      swap2\n      pop\n      swap1\n      pop\n      dup1\n      0x00\n      add\n      0x00\n      swap1\n      sload\n      swap1\n      0x0100\n      exp\n      swap1\n      div\n      0xffffffffffffffffffffffffffffffffffffffff\n      and\n      swap1\n      dup1\n      0x01\n      add\n      sload\n      swap1\n      dup1\n      0x02\n      add\n      sload\n      swap1\n      dup1\n      0x03\n      add\n      0x00\n      swap1\n      sload\n      swap1\n      0x0100\n      exp\n      swap1\n      div\n      0xffffffff\n      and\n      swap1\n      dup1\n      0x03\n      add\n      0x04\n      swap1\n      sload\n      swap1\n      0x0100\n      exp\n      swap1\n      div\n      0xffffffff\n      and\n      swap1\n      dup1\n      0x03\n      add\n      0x08\n      swap1\n      sload\n      swap1\n      0x0100\n      exp\n      swap1\n      div\n      0xff\n      and\n      swap1\n      pop\n      dup7\n      jump\t// out\n        /* \"CrowdFund.sol\":3101:3511  function refund(uint _id) external {... */\n    tag_26:\n        /* \"CrowdFund.sol\":3146:3171  Campaign storage campaign */\n      0x00\n        /* \"CrowdFund.sol\":3174:3183  campaigns */\n      0x01\n        /* \"CrowdFund.sol\":3174:3188  campaigns[_id] */\n      0x00\n        /* \"CrowdFund.sol\":3184:3187  _id */\n      dup4\n        /* \"CrowdFund.sol\":3174:3188  campaigns[_id] */\n      dup2\n      mstore\n      0x20\n      add\n      swap1\n      dup2\n      mstore\n      0x20\n      add\n      0x00\n      keccak256\n        /* \"CrowdFund.sol\":3146:3188  Campaign storage campaign = campaigns[_id] */\n      swap1\n      pop\n        /* \"CrowdFund.sol\":3224:3232  campaign */\n      dup1\n        /* \"CrowdFund.sol\":3224:3238  campaign.endAt */\n      0x03\n      add\n      0x04\n      swap1\n      sload\n      swap1\n      0x0100\n      exp\n      swap1\n      div\n      0xffffffff\n      and\n        /* \"CrowdFund.sol\":3206:3238  block.timestamp > campaign.endAt */\n      0xffffffff\n      and\n        /* \"CrowdFund.sol\":3206:3221  block.timestamp */\n      timestamp\n        /* \"CrowdFund.sol\":3206:3238  block.timestamp > campaign.endAt */\n      gt\n        /* \"CrowdFund.sol\":3198:3252  require(block.timestamp > campaign.endAt, \"not ended\") */\n      tag_54\n      jumpi\n      mload(0x40)\n      0x08c379a000000000000000000000000000000000000000000000000000000000\n      dup2\n      mstore\n      0x04\n      add\n      tag_55\n      swap1\n      tag_56\n      jump\t// in\n    tag_55:\n      mload(0x40)\n      dup1\n      swap2\n      sub\n      swap1\n      revert\n    tag_54:\n        /* \"CrowdFund.sol\":3289:3297  campaign */\n      dup1\n        /* \"CrowdFund.sol\":3289:3302  campaign.goal */\n      0x01\n      add\n      sload\n        /* \"CrowdFund.sol\":3270:3278  campaign */\n      dup2\n        /* \"CrowdFund.sol\":3270:3286  campaign.pledged */\n      0x02\n      add\n      sload\n        /* \"CrowdFund.sol\":3270:3302  campaign.pledged < campaign.goal */\n      lt\n        /* \"CrowdFund.sol\":3262:3322  require(campaign.pledged < campaign.goal, \"pledged >= goal\") */\n      tag_57\n      jumpi\n      mload(0x40)\n      0x08c379a000000000000000000000000000000000000000000000000000000000\n      dup2\n      mstore\n      0x04\n      add\n      tag_58\n      swap1\n      tag_59\n      jump\t// in\n    tag_58:\n      mload(0x40)\n      dup1\n      swap2\n      sub\n      swap1\n      revert\n    tag_57:\n        /* \"CrowdFund.sol\":3333:3341  uint bal */\n      0x00\n        /* \"CrowdFund.sol\":3344:3357  pledgedAmount */\n      0x02\n        /* \"CrowdFund.sol\":3344:3362  pledgedAmount[_id] */\n      0x00\n        /* \"CrowdFund.sol\":3358:3361  _id */\n      dup5\n        /* \"CrowdFund.sol\":3344:3362  pledgedAmount[_id] */\n      dup2\n      mstore\n      0x20\n      add\n      swap1\n      dup2\n      mstore\n      0x20\n      add\n      0x00\n      keccak256\n        /* \"CrowdFund.sol\":3344:3374  pledgedAmount[_id][msg.sender] */\n      0x00\n        /* \"CrowdFund.sol\":3363:3373  msg.sender */\n      caller\n        /* \"CrowdFund.sol\":3344:3374  pledgedAmount[_id][msg.sender] */\n      0xffffffffffffffffffffffffffffffffffffffff\n      and\n      0xffffffffffffffffffffffffffffffffffffffff\n      and\n      dup2\n      mstore\n      0x20\n      add\n      swap1\n      dup2\n      mstore\n      0x20\n      add\n      0x00\n      keccak256\n      sload\n        /* \"CrowdFund.sol\":3333:3374  uint bal = pledgedAmount[_id][msg.sender] */\n      swap1\n      pop\n        /* \"CrowdFund.sol\":3417:3418  0 */\n      0x00\n        /* \"CrowdFund.sol\":3384:3397  pledgedAmount */\n      0x02\n        /* \"CrowdFund.sol\":3384:3402  pledgedAmount[_id] */\n      0x00\n        /* \"CrowdFund.sol\":3398:3401  _id */\n      dup6\n        /* \"CrowdFund.sol\":3384:3402  pledgedAmount[_id] */\n      dup2\n      mstore\n      0x20\n      add\n      swap1\n      dup2\n      mstore\n      0x20\n      add\n      0x00\n      keccak256\n        /* \"CrowdFund.sol\":3384:3414  pledgedAmount[_id][msg.sender] */\n      0x00\n        /* \"CrowdFund.sol\":3403:3413  msg.sender */\n      caller\n        /* \"CrowdFund.sol\":3384:3414  pledgedAmount[_id][msg.sender] */\n      0xffffffffffffffffffffffffffffffffffffffff\n      and\n      0xffffffffffffffffffffffffffffffffffffffff\n      and\n      dup2\n      mstore\n      0x20\n      add\n      swap1\n      dup2\n      mstore\n      0x20\n      add\n      0x00\n      keccak256\n        /* \"CrowdFund.sol\":3384:3418  pledgedAmount[_id][msg.sender] = 0 */\n      dup2\n      swap1\n      sstore\n      pop\n        /* \"CrowdFund.sol\":3428:3433  token */\n      immutable(\"0xd9670a00d025e59e1bd58d53874bea4ab34fea782716e2c168e89a3c8452d3bb\")\n        /* \"CrowdFund.sol\":3428:3442  token.transfer */\n      0xffffffffffffffffffffffffffffffffffffffff\n      and\n      0xa9059cbb\n        /* \"CrowdFund.sol\":3443:3453  msg.sender */\n      caller\n        /* \"CrowdFund.sol\":3455:3458  bal */\n      dup4\n        /* \"CrowdFund.sol\":3428:3459  token.transfer(msg.sender, bal) */\n      mload(0x40)\n      dup4\n      0xffffffff\n      and\n      0xe0\n      shl\n      dup2\n      mstore\n      0x04\n      add\n      tag_60\n      swap3\n      swap2\n      swap1\n      tag_61\n      jump\t// in\n    tag_60:\n      0x20\n      mload(0x40)\n      dup1\n      dup4\n      sub\n      dup2\n      0x00\n      dup8\n      gas\n      call\n      iszero\n      dup1\n      iszero\n      tag_63\n      jumpi\n      returndatasize\n      0x00\n      dup1\n      returndatacopy\n      revert(0x00, returndatasize)\n    tag_63:\n      pop\n      pop\n      pop\n      pop\n      mload(0x40)\n      returndatasize\n      not(0x1f)\n      0x1f\n      dup3\n      add\n      and\n      dup3\n      add\n      dup1\n      0x40\n      mstore\n      pop\n      dup2\n      add\n      swap1\n      tag_64\n      swap2\n      swap1\n      tag_65\n      jump\t// in\n    tag_64:\n      pop\n        /* \"CrowdFund.sol\":3487:3497  msg.sender */\n      caller\n        /* \"CrowdFund.sol\":3475:3503  Refund(_id, msg.sender, bal) */\n      0xffffffffffffffffffffffffffffffffffffffff\n      and\n        /* \"CrowdFund.sol\":3482:3485  _id */\n      dup4\n        /* \"CrowdFund.sol\":3475:3503  Refund(_id, msg.sender, bal) */\n      0x21e12a7cad0da5928167e1084ea4d5fdf8d9af66657a2543a9ac76a0ca081477\n        /* \"CrowdFund.sol\":3499:3502  bal */\n      dup4\n        /* \"CrowdFund.sol\":3475:3503  Refund(_id, msg.sender, bal) */\n      mload(0x40)\n      tag_66\n      swap2\n      swap1\n      tag_17\n      jump\t// in\n    tag_66:\n      mload(0x40)\n      dup1\n      swap2\n      sub\n      swap1\n      log3\n        /* \"CrowdFund.sol\":3136:3511  {... */\n      pop\n      pop\n        /* \"CrowdFund.sol\":3101:3511  function refund(uint _id) external {... */\n      pop\n      jump\t// out\n        /* \"CrowdFund.sol\":929:1539  function launch(... */\n    tag_30:\n        /* \"CrowdFund.sol\":1058:1073  block.timestamp */\n      timestamp\n        /* \"CrowdFund.sol\":1046:1054  _startAt */\n      dup3\n        /* \"CrowdFund.sol\":1046:1073  _startAt <= block.timestamp */\n      0xffffffff\n      and\n      gt\n      iszero\n        /* \"CrowdFund.sol\":1038:1092  require(_startAt <= block.timestamp, \"start at < now\") */\n      tag_68\n      jumpi\n      mload(0x40)\n      0x08c379a000000000000000000000000000000000000000000000000000000000\n      dup2\n      mstore\n      0x04\n      add\n      tag_69\n      swap1\n      tag_70\n      jump\t// in\n    tag_69:\n      mload(0x40)\n      dup1\n      swap2\n      sub\n      swap1\n      revert\n    tag_68:\n        /* \"CrowdFund.sol\":1120:1128  _startAt */\n      dup2\n        /* \"CrowdFund.sol\":1110:1128  _endAt <= _startAt */\n      0xffffffff\n      and\n        /* \"CrowdFund.sol\":1110:1116  _endAt */\n      dup2\n        /* \"CrowdFund.sol\":1110:1128  _endAt <= _startAt */\n      0xffffffff\n      and\n      gt\n      iszero\n        /* \"CrowdFund.sol\":1102:1150  require(_endAt <= _startAt, \"end at < start at\") */\n      tag_71\n      jumpi\n      mload(0x40)\n      0x08c379a000000000000000000000000000000000000000000000000000000000\n      dup2\n      mstore\n      0x04\n      add\n      tag_72\n      swap1\n      tag_73\n      jump\t// in\n    tag_72:\n      mload(0x40)\n      dup1\n      swap2\n      sub\n      swap1\n      revert\n    tag_71:\n        /* \"CrowdFund.sol\":1196:1203  90 days */\n      0x76a700\n        /* \"CrowdFund.sol\":1178:1193  block.timestamp */\n      timestamp\n        /* \"CrowdFund.sol\":1178:1203  block.timestamp + 90 days */\n      tag_74\n      swap2\n      swap1\n      tag_75\n      jump\t// in\n    tag_74:\n        /* \"CrowdFund.sol\":1168:1174  _endAt */\n      dup2\n        /* \"CrowdFund.sol\":1168:1203  _endAt <= block.timestamp + 90 days */\n      0xffffffff\n      and\n      gt\n      iszero\n        /* \"CrowdFund.sol\":1160:1229  require(_endAt <= block.timestamp + 90 days, \"end at > max duration\") */\n      tag_76\n      jumpi\n      mload(0x40)\n      0x08c379a000000000000000000000000000000000000000000000000000000000\n      dup2\n      mstore\n      0x04\n      add\n      tag_77\n      swap1\n      tag_78\n      jump\t// in\n    tag_77:\n      mload(0x40)\n      dup1\n      swap2\n      sub\n      swap1\n      revert\n    tag_76:\n        /* \"CrowdFund.sol\":1248:1249  1 */\n      0x01\n        /* \"CrowdFund.sol\":1240:1245  count */\n      0x00\n      dup1\n        /* \"CrowdFund.sol\":1240:1249  count +=1 */\n      dup3\n      dup3\n      sload\n      tag_79\n      swap2\n      swap1\n      tag_75\n      jump\t// in\n    tag_79:\n      swap3\n      pop\n      pop\n      dup2\n      swap1\n      sstore\n      pop\n        /* \"CrowdFund.sol\":1278:1466  Campaign({... */\n      mload(0x40)\n      dup1\n      0xc0\n      add\n      0x40\n      mstore\n      dup1\n        /* \"CrowdFund.sol\":1310:1320  msg.sender */\n      caller\n        /* \"CrowdFund.sol\":1278:1466  Campaign({... */\n      0xffffffffffffffffffffffffffffffffffffffff\n      and\n      dup2\n      mstore\n      0x20\n      add\n        /* \"CrowdFund.sol\":1340:1345  _goal */\n      dup5\n        /* \"CrowdFund.sol\":1278:1466  Campaign({... */\n      dup2\n      mstore\n      0x20\n      add\n        /* \"CrowdFund.sol\":1368:1369  0 */\n      0x00\n        /* \"CrowdFund.sol\":1278:1466  Campaign({... */\n      dup2\n      mstore\n      0x20\n      add\n        /* \"CrowdFund.sol\":1392:1400  _startAt */\n      dup4\n        /* \"CrowdFund.sol\":1278:1466  Campaign({... */\n      0xffffffff\n      and\n      dup2\n      mstore\n      0x20\n      add\n        /* \"CrowdFund.sol\":1421:1427  _endAt */\n      dup3\n        /* \"CrowdFund.sol\":1278:1466  Campaign({... */\n      0xffffffff\n      and\n      dup2\n      mstore\n      0x20\n      add\n        /* \"CrowdFund.sol\":1450:1455  false */\n      0x00\n        /* \"CrowdFund.sol\":1278:1466  Campaign({... */\n      iszero\n      iszero\n      dup2\n      mstore\n      pop\n        /* \"CrowdFund.sol\":1259:1268  campaigns */\n      0x01\n        /* \"CrowdFund.sol\":1259:1275  campaigns[count] */\n      0x00\n        /* \"CrowdFund.sol\":1269:1274  count */\n      dup1\n      sload\n        /* \"CrowdFund.sol\":1259:1275  campaigns[count] */\n      dup2\n      mstore\n      0x20\n      add\n      swap1\n      dup2\n      mstore\n      0x20\n      add\n      0x00\n      keccak256\n        /* \"CrowdFund.sol\":1259:1466  campaigns[count] = Campaign({... */\n      0x00\n      dup3\n      add\n      mload\n      dup2\n      0x00\n      add\n      exp(0x0100, 0x00)\n      dup2\n      sload\n      dup2\n      0xffffffffffffffffffffffffffffffffffffffff\n      mul\n      not\n      and\n      swap1\n      dup4\n      0xffffffffffffffffffffffffffffffffffffffff\n      and\n      mul\n      or\n      swap1\n      sstore\n      pop\n      0x20\n      dup3\n      add\n      mload\n      dup2\n      0x01\n      add\n      sstore\n      0x40\n      dup3\n      add\n      mload\n      dup2\n      0x02\n      add\n      sstore\n      0x60\n      dup3\n      add\n      mload\n      dup2\n      0x03\n      add\n      exp(0x0100, 0x00)\n      dup2\n      sload\n      dup2\n      0xffffffff\n      mul\n      not\n      and\n      swap1\n      dup4\n      0xffffffff\n      and\n      mul\n      or\n      swap1\n      sstore\n      pop\n      0x80\n      dup3\n      add\n      mload\n      dup2\n      0x03\n      add\n      exp(0x0100, 0x04)\n      dup2\n      sload\n      dup2\n      0xffffffff\n      mul\n      not\n      and\n      swap1\n      dup4\n      0xffffffff\n      and\n      mul\n      or\n      swap1\n      sstore\n      pop\n      0xa0\n      dup3\n      add\n      mload\n      dup2\n      0x03\n      add\n      exp(0x0100, 0x08)\n      dup2\n      sload\n      dup2\n      0xff\n      mul\n      not\n      and\n      swap1\n      dup4\n      iszero\n      iszero\n      mul\n      or\n      swap1\n      sstore\n      pop\n      swap1\n      pop\n      pop\n        /* \"CrowdFund.sol\":1496:1506  msg.sender */\n      caller\n        /* \"CrowdFund.sol\":1482:1532  Launch(count, msg.sender, _goal, _startAt, _endAt) */\n      0xffffffffffffffffffffffffffffffffffffffff\n      and\n      0x0601cd0d650b473037e838a2696d41e654433d065b3f56b28d1d3302e44a304f\n        /* \"CrowdFund.sol\":1489:1494  count */\n      sload(0x00)\n        /* \"CrowdFund.sol\":1508:1513  _goal */\n      dup6\n        /* \"CrowdFund.sol\":1515:1523  _startAt */\n      dup6\n        /* \"CrowdFund.sol\":1525:1531  _endAt */\n      dup6\n        /* \"CrowdFund.sol\":1482:1532  Launch(count, msg.sender, _goal, _startAt, _endAt) */\n      mload(0x40)\n      tag_80\n      swap5\n      swap4\n      swap3\n      swap2\n      swap1\n      tag_81\n      jump\t// in\n    tag_80:\n      mload(0x40)\n      dup1\n      swap2\n      sub\n      swap1\n      log2\n        /* \"CrowdFund.sol\":929:1539  function launch(... */\n      pop\n      pop\n      pop\n      jump\t// out\n        /* \"CrowdFund.sol\":2643:3095  function claim(uint _id) external {... */\n    tag_33:\n        /* \"CrowdFund.sol\":2687:2712  Campaign storage campaign */\n      0x00\n        /* \"CrowdFund.sol\":2715:2724  campaigns */\n      0x01\n        /* \"CrowdFund.sol\":2715:2729  campaigns[_id] */\n      0x00\n        /* \"CrowdFund.sol\":2725:2728  _id */\n      dup4\n        /* \"CrowdFund.sol\":2715:2729  campaigns[_id] */\n      dup2\n      mstore\n      0x20\n      add\n      swap1\n      dup2\n      mstore\n      0x20\n      add\n      0x00\n      keccak256\n        /* \"CrowdFund.sol\":2687:2729  Campaign storage campaign = campaigns[_id] */\n      swap1\n      pop\n        /* \"CrowdFund.sol\":2761:2769  campaign */\n      dup1\n        /* \"CrowdFund.sol\":2761:2777  campaign.creator */\n      0x00\n      add\n      0x00\n      swap1\n      sload\n      swap1\n      0x0100\n      exp\n      swap1\n      div\n      0xffffffffffffffffffffffffffffffffffffffff\n      and\n        /* \"CrowdFund.sol\":2747:2777  msg.sender == campaign.creator */\n      0xffffffffffffffffffffffffffffffffffffffff\n      and\n        /* \"CrowdFund.sol\":2747:2757  msg.sender */\n      caller\n        /* \"CrowdFund.sol\":2747:2777  msg.sender == campaign.creator */\n      0xffffffffffffffffffffffffffffffffffffffff\n      and\n      eq\n        /* \"CrowdFund.sol\":2739:2793  require(msg.sender == campaign.creator, \"not creator\") */\n      tag_83\n      jumpi\n      mload(0x40)\n      0x08c379a000000000000000000000000000000000000000000000000000000000\n      dup2\n      mstore\n      0x04\n      add\n      tag_84\n      swap1\n      tag_85\n      jump\t// in\n    tag_84:\n      mload(0x40)\n      dup1\n      swap2\n      sub\n      swap1\n      revert\n    tag_83:\n        /* \"CrowdFund.sol\":2829:2837  campaign */\n      dup1\n        /* \"CrowdFund.sol\":2829:2843  campaign.endAt */\n      0x03\n      add\n      0x04\n      swap1\n      sload\n      swap1\n      0x0100\n      exp\n      swap1\n      div\n      0xffffffff\n      and\n        /* \"CrowdFund.sol\":2811:2843  block.timestamp > campaign.endAt */\n      0xffffffff\n      and\n        /* \"CrowdFund.sol\":2811:2826  block.timestamp */\n      timestamp\n        /* \"CrowdFund.sol\":2811:2843  block.timestamp > campaign.endAt */\n      gt\n        /* \"CrowdFund.sol\":2803:2857  require(block.timestamp > campaign.endAt, \"not ended\") */\n      tag_86\n      jumpi\n      mload(0x40)\n      0x08c379a000000000000000000000000000000000000000000000000000000000\n      dup2\n      mstore\n      0x04\n      add\n      tag_87\n      swap1\n      tag_56\n      jump\t// in\n    tag_87:\n      mload(0x40)\n      dup1\n      swap2\n      sub\n      swap1\n      revert\n    tag_86:\n        /* \"CrowdFund.sol\":2895:2903  campaign */\n      dup1\n        /* \"CrowdFund.sol\":2895:2908  campaign.goal */\n      0x01\n      add\n      sload\n        /* \"CrowdFund.sol\":2875:2883  campaign */\n      dup2\n        /* \"CrowdFund.sol\":2875:2891  campaign.pledged */\n      0x02\n      add\n      sload\n        /* \"CrowdFund.sol\":2875:2908  campaign.pledged >= campaign.goal */\n      lt\n      iszero\n        /* \"CrowdFund.sol\":2867:2927  require(campaign.pledged >= campaign.goal, \"pledged < goal\") */\n      tag_88\n      jumpi\n      mload(0x40)\n      0x08c379a000000000000000000000000000000000000000000000000000000000\n      dup2\n      mstore\n      0x04\n      add\n      tag_89\n      swap1\n      tag_90\n      jump\t// in\n    tag_89:\n      mload(0x40)\n      dup1\n      swap2\n      sub\n      swap1\n      revert\n    tag_88:\n        /* \"CrowdFund.sol\":2946:2954  campaign */\n      dup1\n        /* \"CrowdFund.sol\":2946:2962  campaign.claimed */\n      0x03\n      add\n      0x08\n      swap1\n      sload\n      swap1\n      0x0100\n      exp\n      swap1\n      div\n      0xff\n      and\n        /* \"CrowdFund.sol\":2945:2962  !campaign.claimed */\n      iszero\n        /* \"CrowdFund.sol\":2937:2974  require(!campaign.claimed, \"claimed\") */\n      tag_91\n      jumpi\n      mload(0x40)\n      0x08c379a000000000000000000000000000000000000000000000000000000000\n      dup2\n      mstore\n      0x04\n      add\n      tag_92\n      swap1\n      tag_93\n      jump\t// in\n    tag_92:\n      mload(0x40)\n      dup1\n      swap2\n      sub\n      swap1\n      revert\n    tag_91:\n        /* \"CrowdFund.sol\":3004:3008  true */\n      0x01\n        /* \"CrowdFund.sol\":2985:2993  campaign */\n      dup2\n        /* \"CrowdFund.sol\":2985:3001  campaign.claimed */\n      0x03\n      add\n      0x08\n        /* \"CrowdFund.sol\":2985:3008  campaign.claimed = true */\n      0x0100\n      exp\n      dup2\n      sload\n      dup2\n      0xff\n      mul\n      not\n      and\n      swap1\n      dup4\n      iszero\n      iszero\n      mul\n      or\n      swap1\n      sstore\n      pop\n        /* \"CrowdFund.sol\":3018:3023  token */\n      immutable(\"0xd9670a00d025e59e1bd58d53874bea4ab34fea782716e2c168e89a3c8452d3bb\")\n        /* \"CrowdFund.sol\":3018:3032  token.transfer */\n      0xffffffffffffffffffffffffffffffffffffffff\n      and\n      0xa9059cbb\n        /* \"CrowdFund.sol\":3033:3043  msg.sender */\n      caller\n        /* \"CrowdFund.sol\":3045:3053  campaign */\n      dup4\n        /* \"CrowdFund.sol\":3045:3061  campaign.pledged */\n      0x02\n      add\n      sload\n        /* \"CrowdFund.sol\":3018:3062  token.transfer(msg.sender, campaign.pledged) */\n      mload(0x40)\n      dup4\n      0xffffffff\n      and\n      0xe0\n      shl\n      dup2\n      mstore\n      0x04\n      add\n      tag_94\n      swap3\n      swap2\n      swap1\n      tag_61\n      jump\t// in\n    tag_94:\n      0x20\n      mload(0x40)\n      dup1\n      dup4\n      sub\n      dup2\n      0x00\n      dup8\n      gas\n      call\n      iszero\n      dup1\n      iszero\n      tag_96\n      jumpi\n      returndatasize\n      0x00\n      dup1\n      returndatacopy\n      revert(0x00, returndatasize)\n    tag_96:\n      pop\n      pop\n      pop\n      pop\n      mload(0x40)\n      returndatasize\n      not(0x1f)\n      0x1f\n      dup3\n      add\n      and\n      dup3\n      add\n      dup1\n      0x40\n      mstore\n      pop\n      dup2\n      add\n      swap1\n      tag_97\n      swap2\n      swap1\n      tag_65\n      jump\t// in\n    tag_97:\n      pop\n        /* \"CrowdFund.sol\":3078:3088  Claim(_id) */\n      0x7bb2b3c10797baccb6f8c4791f1edd6ca2f0d028ee0eda64b01a9a57e3a653f7\n        /* \"CrowdFund.sol\":3084:3087  _id */\n      dup3\n        /* \"CrowdFund.sol\":3078:3088  Claim(_id) */\n      mload(0x40)\n      tag_98\n      swap2\n      swap1\n      tag_17\n      jump\t// in\n    tag_98:\n      mload(0x40)\n      dup1\n      swap2\n      sub\n      swap1\n      log1\n        /* \"CrowdFund.sol\":2677:3095  {... */\n      pop\n        /* \"CrowdFund.sol\":2643:3095  function claim(uint _id) external {... */\n      pop\n      jump\t// out\n        /* \"CrowdFund.sol\":1549:1827  function cancel(uint _id) external {... */\n    tag_36:\n        /* \"CrowdFund.sol\":1594:1618  Campaign memory campaign */\n      0x00\n        /* \"CrowdFund.sol\":1621:1630  campaigns */\n      0x01\n        /* \"CrowdFund.sol\":1621:1635  campaigns[_id] */\n      0x00\n        /* \"CrowdFund.sol\":1631:1634  _id */\n      dup4\n        /* \"CrowdFund.sol\":1621:1635  campaigns[_id] */\n      dup2\n      mstore\n      0x20\n      add\n      swap1\n      dup2\n      mstore\n      0x20\n      add\n      0x00\n      keccak256\n        /* \"CrowdFund.sol\":1594:1635  Campaign memory campaign = campaigns[_id] */\n      mload(0x40)\n      dup1\n      0xc0\n      add\n      0x40\n      mstore\n      swap1\n      dup2\n      0x00\n      dup3\n      add\n      0x00\n      swap1\n      sload\n      swap1\n      0x0100\n      exp\n      swap1\n      div\n      0xffffffffffffffffffffffffffffffffffffffff\n      and\n      0xffffffffffffffffffffffffffffffffffffffff\n      and\n      0xffffffffffffffffffffffffffffffffffffffff\n      and\n      dup2\n      mstore\n      0x20\n      add\n      0x01\n      dup3\n      add\n      sload\n      dup2\n      mstore\n      0x20\n      add\n      0x02\n      dup3\n      add\n      sload\n      dup2\n      mstore\n      0x20\n      add\n      0x03\n      dup3\n      add\n      0x00\n      swap1\n      sload\n      swap1\n      0x0100\n      exp\n      swap1\n      div\n      0xffffffff\n      and\n      0xffffffff\n      and\n      0xffffffff\n      and\n      dup2\n      mstore\n      0x20\n      add\n      0x03\n      dup3\n      add\n      0x04\n      swap1\n      sload\n      swap1\n      0x0100\n      exp\n      swap1\n      div\n      0xffffffff\n      and\n      0xffffffff\n      and\n      0xffffffff\n      and\n      dup2\n      mstore\n      0x20\n      add\n      0x03\n      dup3\n      add\n      0x08\n      swap1\n      sload\n      swap1\n      0x0100\n      exp\n      swap1\n      div\n      0xff\n      and\n      iszero\n      iszero\n      iszero\n      iszero\n      dup2\n      mstore\n      pop\n      pop\n      swap1\n      pop\n        /* \"CrowdFund.sol\":1667:1675  campaign */\n      dup1\n        /* \"CrowdFund.sol\":1667:1683  campaign.creator */\n      0x00\n      add\n      mload\n        /* \"CrowdFund.sol\":1653:1683  msg.sender == campaign.creator */\n      0xffffffffffffffffffffffffffffffffffffffff\n      and\n        /* \"CrowdFund.sol\":1653:1663  msg.sender */\n      caller\n        /* \"CrowdFund.sol\":1653:1683  msg.sender == campaign.creator */\n      0xffffffffffffffffffffffffffffffffffffffff\n      and\n      eq\n        /* \"CrowdFund.sol\":1645:1699  require(msg.sender == campaign.creator, \"not creator\") */\n      tag_100\n      jumpi\n      mload(0x40)\n      0x08c379a000000000000000000000000000000000000000000000000000000000\n      dup2\n      mstore\n      0x04\n      add\n      tag_101\n      swap1\n      tag_85\n      jump\t// in\n    tag_101:\n      mload(0x40)\n      dup1\n      swap2\n      sub\n      swap1\n      revert\n    tag_100:\n        /* \"CrowdFund.sol\":1735:1743  campaign */\n      dup1\n        /* \"CrowdFund.sol\":1735:1751  campaign.startAt */\n      0x60\n      add\n      mload\n        /* \"CrowdFund.sol\":1717:1751  block.timestamp < campaign.startAt */\n      0xffffffff\n      and\n        /* \"CrowdFund.sol\":1717:1732  block.timestamp */\n      timestamp\n        /* \"CrowdFund.sol\":1717:1751  block.timestamp < campaign.startAt */\n      lt\n        /* \"CrowdFund.sol\":1709:1763  require(block.timestamp < campaign.startAt, \"started\") */\n      tag_102\n      jumpi\n      mload(0x40)\n      0x08c379a000000000000000000000000000000000000000000000000000000000\n      dup2\n      mstore\n      0x04\n      add\n      tag_103\n      swap1\n      tag_104\n      jump\t// in\n    tag_103:\n      mload(0x40)\n      dup1\n      swap2\n      sub\n      swap1\n      revert\n    tag_102:\n        /* \"CrowdFund.sol\":1780:1789  campaigns */\n      0x01\n        /* \"CrowdFund.sol\":1780:1794  campaigns[_id] */\n      0x00\n        /* \"CrowdFund.sol\":1790:1793  _id */\n      dup4\n        /* \"CrowdFund.sol\":1780:1794  campaigns[_id] */\n      dup2\n      mstore\n      0x20\n      add\n      swap1\n      dup2\n      mstore\n      0x20\n      add\n      0x00\n      keccak256\n      0x00\n        /* \"CrowdFund.sol\":1773:1794  delete campaigns[_id] */\n      dup1\n      dup3\n      add\n      exp(0x0100, 0x00)\n      dup2\n      sload\n      swap1\n      0xffffffffffffffffffffffffffffffffffffffff\n      mul\n      not\n      and\n      swap1\n      sstore\n      0x01\n      dup3\n      add\n      0x00\n      swap1\n      sstore\n      0x02\n      dup3\n      add\n      0x00\n      swap1\n      sstore\n      0x03\n      dup3\n      add\n      exp(0x0100, 0x00)\n      dup2\n      sload\n      swap1\n      0xffffffff\n      mul\n      not\n      and\n      swap1\n      sstore\n      0x03\n      dup3\n      add\n      exp(0x0100, 0x04)\n      dup2\n      sload\n      swap1\n      0xffffffff\n      mul\n      not\n      and\n      swap1\n      sstore\n      0x03\n      dup3\n      add\n      exp(0x0100, 0x08)\n      dup2\n      sload\n      swap1\n      0xff\n      mul\n      not\n      and\n      swap1\n      sstore\n      pop\n      pop\n        /* \"CrowdFund.sol\":1809:1820  Cancel(_id) */\n      0x8bf30e7ff26833413be5f69e1d373744864d600b664204b4a2f9844a8eedb9ed\n        /* \"CrowdFund.sol\":1816:1819  _id */\n      dup3\n        /* \"CrowdFund.sol\":1809:1820  Cancel(_id) */\n      mload(0x40)\n      tag_105\n      swap2\n      swap1\n      tag_17\n      jump\t// in\n    tag_105:\n      mload(0x40)\n      dup1\n      swap2\n      sub\n      swap1\n      log1\n        /* \"CrowdFund.sol\":1584:1827  {... */\n      pop\n        /* \"CrowdFund.sol\":1549:1827  function cancel(uint _id) external {... */\n      pop\n      jump\t// out\n        /* \"CrowdFund.sol\":2282:2637  function unpledge(uint _id, uint _amount) external {... */\n    tag_40:\n        /* \"CrowdFund.sol\":2343:2368  Campaign storage campaign */\n      0x00\n        /* \"CrowdFund.sol\":2371:2380  campaigns */\n      0x01\n        /* \"CrowdFund.sol\":2371:2385  campaigns[_id] */\n      0x00\n        /* \"CrowdFund.sol\":2381:2384  _id */\n      dup5\n        /* \"CrowdFund.sol\":2371:2385  campaigns[_id] */\n      dup2\n      mstore\n      0x20\n      add\n      swap1\n      dup2\n      mstore\n      0x20\n      add\n      0x00\n      keccak256\n        /* \"CrowdFund.sol\":2343:2385  Campaign storage campaign = campaigns[_id] */\n      swap1\n      pop\n        /* \"CrowdFund.sol\":2422:2430  campaign */\n      dup1\n        /* \"CrowdFund.sol\":2422:2436  campaign.endAt */\n      0x03\n      add\n      0x04\n      swap1\n      sload\n      swap1\n      0x0100\n      exp\n      swap1\n      div\n      0xffffffff\n      and\n        /* \"CrowdFund.sol\":2403:2436  block.timestamp <= campaign.endAt */\n      0xffffffff\n      and\n        /* \"CrowdFund.sol\":2403:2418  block.timestamp */\n      timestamp\n        /* \"CrowdFund.sol\":2403:2436  block.timestamp <= campaign.endAt */\n      gt\n      iszero\n        /* \"CrowdFund.sol\":2395:2446  require(block.timestamp <= campaign.endAt, \"ended\") */\n      tag_107\n      jumpi\n      mload(0x40)\n      0x08c379a000000000000000000000000000000000000000000000000000000000\n      dup2\n      mstore\n      0x04\n      add\n      tag_108\n      swap1\n      tag_109\n      jump\t// in\n    tag_108:\n      mload(0x40)\n      dup1\n      swap2\n      sub\n      swap1\n      revert\n    tag_107:\n        /* \"CrowdFund.sol\":2477:2484  _amount */\n      dup2\n        /* \"CrowdFund.sol\":2457:2465  campaign */\n      dup2\n        /* \"CrowdFund.sol\":2457:2473  campaign.pledged */\n      0x02\n      add\n      0x00\n        /* \"CrowdFund.sol\":2457:2484  campaign.pledged -= _amount */\n      dup3\n      dup3\n      sload\n      tag_110\n      swap2\n      swap1\n      tag_111\n      jump\t// in\n    tag_110:\n      swap3\n      pop\n      pop\n      dup2\n      swap1\n      sstore\n      pop\n        /* \"CrowdFund.sol\":2528:2535  _amount */\n      dup2\n        /* \"CrowdFund.sol\":2494:2507  pledgedAmount */\n      0x02\n        /* \"CrowdFund.sol\":2494:2512  pledgedAmount[_id] */\n      0x00\n        /* \"CrowdFund.sol\":2508:2511  _id */\n      dup6\n        /* \"CrowdFund.sol\":2494:2512  pledgedAmount[_id] */\n      dup2\n      mstore\n      0x20\n      add\n      swap1\n      dup2\n      mstore\n      0x20\n      add\n      0x00\n      keccak256\n        /* \"CrowdFund.sol\":2494:2524  pledgedAmount[_id][msg.sender] */\n      0x00\n        /* \"CrowdFund.sol\":2513:2523  msg.sender */\n      caller\n        /* \"CrowdFund.sol\":2494:2524  pledgedAmount[_id][msg.sender] */\n      0xffffffffffffffffffffffffffffffffffffffff\n      and\n      0xffffffffffffffffffffffffffffffffffffffff\n      and\n      dup2\n      mstore\n      0x20\n      add\n      swap1\n      dup2\n      mstore\n      0x20\n      add\n      0x00\n      keccak256\n      0x00\n        /* \"CrowdFund.sol\":2494:2535  pledgedAmount[_id][msg.sender] -= _amount */\n      dup3\n      dup3\n      sload\n      tag_112\n      swap2\n      swap1\n      tag_111\n      jump\t// in\n    tag_112:\n      swap3\n      pop\n      pop\n      dup2\n      swap1\n      sstore\n      pop\n        /* \"CrowdFund.sol\":2545:2550  token */\n      immutable(\"0xd9670a00d025e59e1bd58d53874bea4ab34fea782716e2c168e89a3c8452d3bb\")\n        /* \"CrowdFund.sol\":2545:2559  token.transfer */\n      0xffffffffffffffffffffffffffffffffffffffff\n      and\n      0xa9059cbb\n        /* \"CrowdFund.sol\":2560:2570  msg.sender */\n      caller\n        /* \"CrowdFund.sol\":2572:2579  _amount */\n      dup5\n        /* \"CrowdFund.sol\":2545:2580  token.transfer(msg.sender, _amount) */\n      mload(0x40)\n      dup4\n      0xffffffff\n      and\n      0xe0\n      shl\n      dup2\n      mstore\n      0x04\n      add\n      tag_113\n      swap3\n      swap2\n      swap1\n      tag_61\n      jump\t// in\n    tag_113:\n      0x20\n      mload(0x40)\n      dup1\n      dup4\n      sub\n      dup2\n      0x00\n      dup8\n      gas\n      call\n      iszero\n      dup1\n      iszero\n      tag_115\n      jumpi\n      returndatasize\n      0x00\n      dup1\n      returndatacopy\n      revert(0x00, returndatasize)\n    tag_115:\n      pop\n      pop\n      pop\n      pop\n      mload(0x40)\n      returndatasize\n      not(0x1f)\n      0x1f\n      dup3\n      add\n      and\n      dup3\n      add\n      dup1\n      0x40\n      mstore\n      pop\n      dup2\n      add\n      swap1\n      tag_116\n      swap2\n      swap1\n      tag_65\n      jump\t// in\n    tag_116:\n      pop\n        /* \"CrowdFund.sol\":2610:2620  msg.sender */\n      caller\n        /* \"CrowdFund.sol\":2596:2630  Unpledge(_id, msg.sender, _amount) */\n      0xffffffffffffffffffffffffffffffffffffffff\n      and\n        /* \"CrowdFund.sol\":2605:2608  _id */\n      dup4\n        /* \"CrowdFund.sol\":2596:2630  Unpledge(_id, msg.sender, _amount) */\n      0x2eeeab891b26a214d1b25749f88a406bdea852bd8c9bfda977e0ef8114c180ba\n        /* \"CrowdFund.sol\":2622:2629  _amount */\n      dup5\n        /* \"CrowdFund.sol\":2596:2630  Unpledge(_id, msg.sender, _amount) */\n      mload(0x40)\n      tag_117\n      swap2\n      swap1\n      tag_17\n      jump\t// in\n    tag_117:\n      mload(0x40)\n      dup1\n      swap2\n      sub\n      swap1\n      log3\n        /* \"CrowdFund.sol\":2333:2637  {... */\n      pop\n        /* \"CrowdFund.sol\":2282:2637  function unpledge(uint _id, uint _amount) external {... */\n      pop\n      pop\n      jump\t// out\n        /* \"CrowdFund.sol\":787:849  mapping(uint => mapping(address => uint)) public pledgedAmount */\n    tag_44:\n      mstore(0x20, 0x02)\n      dup2\n      0x00\n      mstore\n      mstore(0x20, keccak256(0x00, 0x40))\n      dup1\n      0x00\n      mstore\n      keccak256(0x00, 0x40)\n      0x00\n      swap2\n      pop\n      swap2\n      pop\n      pop\n      sload\n      dup2\n      jump\t// out\n        /* \"CrowdFund.sol\":681:710  IERC20 public immutable token */\n    tag_47:\n      immutable(\"0xd9670a00d025e59e1bd58d53874bea4ab34fea782716e2c168e89a3c8452d3bb\")\n      dup2\n      jump\t// out\n        /* \"CrowdFund.sol\":1833:2276  function pledge(uint _id, uint _amount) external {... */\n    tag_52:\n        /* \"CrowdFund.sol\":1892:1917  Campaign storage campaign */\n      0x00\n        /* \"CrowdFund.sol\":1920:1929  campaigns */\n      0x01\n        /* \"CrowdFund.sol\":1920:1934  campaigns[_id] */\n      0x00\n        /* \"CrowdFund.sol\":1930:1933  _id */\n      dup5\n        /* \"CrowdFund.sol\":1920:1934  campaigns[_id] */\n      dup2\n      mstore\n      0x20\n      add\n      swap1\n      dup2\n      mstore\n      0x20\n      add\n      0x00\n      keccak256\n        /* \"CrowdFund.sol\":1892:1934  Campaign storage campaign = campaigns[_id] */\n      swap1\n      pop\n        /* \"CrowdFund.sol\":1971:1979  campaign */\n      dup1\n        /* \"CrowdFund.sol\":1971:1987  campaign.startAt */\n      0x03\n      add\n      0x00\n      swap1\n      sload\n      swap1\n      0x0100\n      exp\n      swap1\n      div\n      0xffffffff\n      and\n        /* \"CrowdFund.sol\":1952:1987  block.timestamp >= campaign.startAt */\n      0xffffffff\n      and\n        /* \"CrowdFund.sol\":1952:1967  block.timestamp */\n      timestamp\n        /* \"CrowdFund.sol\":1952:1987  block.timestamp >= campaign.startAt */\n      lt\n      iszero\n        /* \"CrowdFund.sol\":1944:2003  require(block.timestamp >= campaign.startAt, \"not started\") */\n      tag_119\n      jumpi\n      mload(0x40)\n      0x08c379a000000000000000000000000000000000000000000000000000000000\n      dup2\n      mstore\n      0x04\n      add\n      tag_120\n      swap1\n      tag_121\n      jump\t// in\n    tag_120:\n      mload(0x40)\n      dup1\n      swap2\n      sub\n      swap1\n      revert\n    tag_119:\n        /* \"CrowdFund.sol\":2040:2048  campaign */\n      dup1\n        /* \"CrowdFund.sol\":2040:2054  campaign.endAt */\n      0x03\n      add\n      0x04\n      swap1\n      sload\n      swap1\n      0x0100\n      exp\n      swap1\n      div\n      0xffffffff\n      and\n        /* \"CrowdFund.sol\":2021:2054  block.timestamp <= campaign.endAt */\n      0xffffffff\n      and\n        /* \"CrowdFund.sol\":2021:2036  block.timestamp */\n      timestamp\n        /* \"CrowdFund.sol\":2021:2054  block.timestamp <= campaign.endAt */\n      gt\n      iszero\n        /* \"CrowdFund.sol\":2013:2064  require(block.timestamp <= campaign.endAt, \"ended\") */\n      tag_122\n      jumpi\n      mload(0x40)\n      0x08c379a000000000000000000000000000000000000000000000000000000000\n      dup2\n      mstore\n      0x04\n      add\n      tag_123\n      swap1\n      tag_109\n      jump\t// in\n    tag_123:\n      mload(0x40)\n      dup1\n      swap2\n      sub\n      swap1\n      revert\n    tag_122:\n        /* \"CrowdFund.sol\":2099:2106  _amount */\n      dup2\n        /* \"CrowdFund.sol\":2079:2087  campaign */\n      dup2\n        /* \"CrowdFund.sol\":2079:2095  campaign.pledged */\n      0x02\n      add\n      0x00\n        /* \"CrowdFund.sol\":2079:2106  campaign.pledged += _amount */\n      dup3\n      dup3\n      sload\n      tag_124\n      swap2\n      swap1\n      tag_75\n      jump\t// in\n    tag_124:\n      swap3\n      pop\n      pop\n      dup2\n      swap1\n      sstore\n      pop\n        /* \"CrowdFund.sol\":2150:2157  _amount */\n      dup2\n        /* \"CrowdFund.sol\":2116:2129  pledgedAmount */\n      0x02\n        /* \"CrowdFund.sol\":2116:2134  pledgedAmount[_id] */\n      0x00\n        /* \"CrowdFund.sol\":2130:2133  _id */\n      dup6\n        /* \"CrowdFund.sol\":2116:2134  pledgedAmount[_id] */\n      dup2\n      mstore\n      0x20\n      add\n      swap1\n      dup2\n      mstore\n      0x20\n      add\n      0x00\n      keccak256\n        /* \"CrowdFund.sol\":2116:2146  pledgedAmount[_id][msg.sender] */\n      0x00\n        /* \"CrowdFund.sol\":2135:2145  msg.sender */\n      caller\n        /* \"CrowdFund.sol\":2116:2146  pledgedAmount[_id][msg.sender] */\n      0xffffffffffffffffffffffffffffffffffffffff\n      and\n      0xffffffffffffffffffffffffffffffffffffffff\n      and\n      dup2\n      mstore\n      0x20\n      add\n      swap1\n      dup2\n      mstore\n      0x20\n      add\n      0x00\n      keccak256\n      0x00\n        /* \"CrowdFund.sol\":2116:2157  pledgedAmount[_id][msg.sender] += _amount */\n      dup3\n      dup3\n      sload\n      tag_125\n      swap2\n      swap1\n      tag_75\n      jump\t// in\n    tag_125:\n      swap3\n      pop\n      pop\n      dup2\n      swap1\n      sstore\n      pop\n        /* \"CrowdFund.sol\":2167:2172  token */\n      immutable(\"0xd9670a00d025e59e1bd58d53874bea4ab34fea782716e2c168e89a3c8452d3bb\")\n        /* \"CrowdFund.sol\":2167:2185  token.transferFrom */\n      0xffffffffffffffffffffffffffffffffffffffff\n      and\n      0x23b872dd\n        /* \"CrowdFund.sol\":2186:2196  msg.sender */\n      caller\n        /* \"CrowdFund.sol\":2206:2210  this */\n      address\n        /* \"CrowdFund.sol\":2213:2220  _amount */\n      dup6\n        /* \"CrowdFund.sol\":2167:2221  token.transferFrom(msg.sender, address(this), _amount) */\n      mload(0x40)\n      dup5\n      0xffffffff\n      and\n      0xe0\n      shl\n      dup2\n      mstore\n      0x04\n      add\n      tag_126\n      swap4\n      swap3\n      swap2\n      swap1\n      tag_127\n      jump\t// in\n    tag_126:\n      0x20\n      mload(0x40)\n      dup1\n      dup4\n      sub\n      dup2\n      0x00\n      dup8\n      gas\n      call\n      iszero\n      dup1\n      iszero\n      tag_129\n      jumpi\n      returndatasize\n      0x00\n      dup1\n      returndatacopy\n      revert(0x00, returndatasize)\n    tag_129:\n      pop\n      pop\n      pop\n      pop\n      mload(0x40)\n      returndatasize\n      not(0x1f)\n      0x1f\n      dup3\n      add\n      and\n      dup3\n      add\n      dup1\n      0x40\n      mstore\n      pop\n      dup2\n      add\n      swap1\n      tag_130\n      swap2\n      swap1\n      tag_65\n      jump\t// in\n    tag_130:\n      pop\n        /* \"CrowdFund.sol\":2249:2259  msg.sender */\n      caller\n        /* \"CrowdFund.sol\":2237:2269  Pledge(_id, msg.sender, _amount) */\n      0xffffffffffffffffffffffffffffffffffffffff\n      and\n        /* \"CrowdFund.sol\":2244:2247  _id */\n      dup4\n        /* \"CrowdFund.sol\":2237:2269  Pledge(_id, msg.sender, _amount) */\n      0x06bdb975df800a73232998e71ed585d536222f1dfeaa622d7f62a23ada686c82\n        /* \"CrowdFund.sol\":2261:2268  _amount */\n      dup5\n        /* \"CrowdFund.sol\":2237:2269  Pledge(_id, msg.sender, _amount) */\n      mload(0x40)\n      tag_131\n      swap2\n      swap1\n      tag_17\n      jump\t// in\n    tag_131:\n      mload(0x40)\n      dup1\n      swap2\n      sub\n      swap1\n      log3\n        /* \"CrowdFund.sol\":1882:2276  {... */\n      pop\n        /* \"CrowdFund.sol\":1833:2276  function pledge(uint _id, uint _amount) external {... */\n      pop\n      pop\n      jump\t// out\n        /* \"#utility.yul\":7:84   */\n    tag_132:\n        /* \"#utility.yul\":44:51   */\n      0x00\n        /* \"#utility.yul\":73:78   */\n      dup2\n        /* \"#utility.yul\":62:78   */\n      swap1\n      pop\n        /* \"#utility.yul\":7:84   */\n      swap2\n      swap1\n      pop\n      jump\t// out\n        /* \"#utility.yul\":90:208   */\n    tag_133:\n        /* \"#utility.yul\":177:201   */\n      tag_184\n        /* \"#utility.yul\":195:200   */\n      dup2\n        /* \"#utility.yul\":177:201   */\n      tag_132\n      jump\t// in\n    tag_184:\n        /* \"#utility.yul\":172:175   */\n      dup3\n        /* \"#utility.yul\":165:202   */\n      mstore\n        /* \"#utility.yul\":90:208   */\n      pop\n      pop\n      jump\t// out\n        /* \"#utility.yul\":214:436   */\n    tag_17:\n        /* \"#utility.yul\":307:311   */\n      0x00\n        /* \"#utility.yul\":345:347   */\n      0x20\n        /* \"#utility.yul\":334:343   */\n      dup3\n        /* \"#utility.yul\":330:348   */\n      add\n        /* \"#utility.yul\":322:348   */\n      swap1\n      pop\n        /* \"#utility.yul\":358:429   */\n      tag_186\n        /* \"#utility.yul\":426:427   */\n      0x00\n        /* \"#utility.yul\":415:424   */\n      dup4\n        /* \"#utility.yul\":411:428   */\n      add\n        /* \"#utility.yul\":402:408   */\n      dup5\n        /* \"#utility.yul\":358:429   */\n      tag_133\n      jump\t// in\n    tag_186:\n        /* \"#utility.yul\":214:436   */\n      swap3\n      swap2\n      pop\n      pop\n      jump\t// out\n        /* \"#utility.yul\":523:640   */\n    tag_135:\n        /* \"#utility.yul\":632:633   */\n      0x00\n        /* \"#utility.yul\":629:630   */\n      dup1\n        /* \"#utility.yul\":622:634   */\n      revert\n        /* \"#utility.yul\":769:891   */\n    tag_137:\n        /* \"#utility.yul\":842:866   */\n      tag_191\n        /* \"#utility.yul\":860:865   */\n      dup2\n        /* \"#utility.yul\":842:866   */\n      tag_132\n      jump\t// in\n    tag_191:\n        /* \"#utility.yul\":835:840   */\n      dup2\n        /* \"#utility.yul\":832:867   */\n      eq\n        /* \"#utility.yul\":822:885   */\n      tag_192\n      jumpi\n        /* \"#utility.yul\":881:882   */\n      0x00\n        /* \"#utility.yul\":878:879   */\n      dup1\n        /* \"#utility.yul\":871:883   */\n      revert\n        /* \"#utility.yul\":822:885   */\n    tag_192:\n        /* \"#utility.yul\":769:891   */\n      pop\n      jump\t// out\n        /* \"#utility.yul\":897:1036   */\n    tag_138:\n        /* \"#utility.yul\":943:948   */\n      0x00\n        /* \"#utility.yul\":981:987   */\n      dup2\n        /* \"#utility.yul\":968:988   */\n      calldataload\n        /* \"#utility.yul\":959:988   */\n      swap1\n      pop\n        /* \"#utility.yul\":997:1030   */\n      tag_194\n        /* \"#utility.yul\":1024:1029   */\n      dup2\n        /* \"#utility.yul\":997:1030   */\n      tag_137\n      jump\t// in\n    tag_194:\n        /* \"#utility.yul\":897:1036   */\n      swap3\n      swap2\n      pop\n      pop\n      jump\t// out\n        /* \"#utility.yul\":1042:1371   */\n    tag_20:\n        /* \"#utility.yul\":1101:1107   */\n      0x00\n        /* \"#utility.yul\":1150:1152   */\n      0x20\n        /* \"#utility.yul\":1138:1147   */\n      dup3\n        /* \"#utility.yul\":1129:1136   */\n      dup5\n        /* \"#utility.yul\":1125:1148   */\n      sub\n        /* \"#utility.yul\":1121:1153   */\n      slt\n        /* \"#utility.yul\":1118:1237   */\n      iszero\n      tag_196\n      jumpi\n        /* \"#utility.yul\":1156:1235   */\n      tag_197\n      tag_135\n      jump\t// in\n    tag_197:\n        /* \"#utility.yul\":1118:1237   */\n    tag_196:\n        /* \"#utility.yul\":1276:1277   */\n      0x00\n        /* \"#utility.yul\":1301:1354   */\n      tag_198\n        /* \"#utility.yul\":1346:1353   */\n      dup5\n        /* \"#utility.yul\":1337:1343   */\n      dup3\n        /* \"#utility.yul\":1326:1335   */\n      dup6\n        /* \"#utility.yul\":1322:1344   */\n      add\n        /* \"#utility.yul\":1301:1354   */\n      tag_138\n      jump\t// in\n    tag_198:\n        /* \"#utility.yul\":1291:1354   */\n      swap2\n      pop\n        /* \"#utility.yul\":1247:1364   */\n      pop\n        /* \"#utility.yul\":1042:1371   */\n      swap3\n      swap2\n      pop\n      pop\n      jump\t// out\n        /* \"#utility.yul\":1377:1503   */\n    tag_139:\n        /* \"#utility.yul\":1414:1421   */\n      0x00\n        /* \"#utility.yul\":1454:1496   */\n      0xffffffffffffffffffffffffffffffffffffffff\n        /* \"#utility.yul\":1447:1452   */\n      dup3\n        /* \"#utility.yul\":1443:1497   */\n      and\n        /* \"#utility.yul\":1432:1497   */\n      swap1\n      pop\n        /* \"#utility.yul\":1377:1503   */\n      swap2\n      swap1\n      pop\n      jump\t// out\n        /* \"#utility.yul\":1509:1605   */\n    tag_140:\n        /* \"#utility.yul\":1546:1553   */\n      0x00\n        /* \"#utility.yul\":1575:1599   */\n      tag_201\n        /* \"#utility.yul\":1593:1598   */\n      dup3\n        /* \"#utility.yul\":1575:1599   */\n      tag_139\n      jump\t// in\n    tag_201:\n        /* \"#utility.yul\":1564:1599   */\n      swap1\n      pop\n        /* \"#utility.yul\":1509:1605   */\n      swap2\n      swap1\n      pop\n      jump\t// out\n        /* \"#utility.yul\":1611:1729   */\n    tag_141:\n        /* \"#utility.yul\":1698:1722   */\n      tag_203\n        /* \"#utility.yul\":1716:1721   */\n      dup2\n        /* \"#utility.yul\":1698:1722   */\n      tag_140\n      jump\t// in\n    tag_203:\n        /* \"#utility.yul\":1693:1696   */\n      dup3\n        /* \"#utility.yul\":1686:1723   */\n      mstore\n        /* \"#utility.yul\":1611:1729   */\n      pop\n      pop\n      jump\t// out\n        /* \"#utility.yul\":1735:1828   */\n    tag_142:\n        /* \"#utility.yul\":1771:1778   */\n      0x00\n        /* \"#utility.yul\":1811:1821   */\n      0xffffffff\n        /* \"#utility.yul\":1804:1809   */\n      dup3\n        /* \"#utility.yul\":1800:1822   */\n      and\n        /* \"#utility.yul\":1789:1822   */\n      swap1\n      pop\n        /* \"#utility.yul\":1735:1828   */\n      swap2\n      swap1\n      pop\n      jump\t// out\n        /* \"#utility.yul\":1834:1949   */\n    tag_143:\n        /* \"#utility.yul\":1919:1942   */\n      tag_206\n        /* \"#utility.yul\":1936:1941   */\n      dup2\n        /* \"#utility.yul\":1919:1942   */\n      tag_142\n      jump\t// in\n    tag_206:\n        /* \"#utility.yul\":1914:1917   */\n      dup3\n        /* \"#utility.yul\":1907:1943   */\n      mstore\n        /* \"#utility.yul\":1834:1949   */\n      pop\n      pop\n      jump\t// out\n        /* \"#utility.yul\":1955:2045   */\n    tag_144:\n        /* \"#utility.yul\":1989:1996   */\n      0x00\n        /* \"#utility.yul\":2032:2037   */\n      dup2\n        /* \"#utility.yul\":2025:2038   */\n      iszero\n        /* \"#utility.yul\":2018:2039   */\n      iszero\n        /* \"#utility.yul\":2007:2039   */\n      swap1\n      pop\n        /* \"#utility.yul\":1955:2045   */\n      swap2\n      swap1\n      pop\n      jump\t// out\n        /* \"#utility.yul\":2051:2160   */\n    tag_145:\n        /* \"#utility.yul\":2132:2153   */\n      tag_209\n        /* \"#utility.yul\":2147:2152   */\n      dup2\n        /* \"#utility.yul\":2132:2153   */\n      tag_144\n      jump\t// in\n    tag_209:\n        /* \"#utility.yul\":2127:2130   */\n      dup3\n        /* \"#utility.yul\":2120:2154   */\n      mstore\n        /* \"#utility.yul\":2051:2160   */\n      pop\n      pop\n      jump\t// out\n        /* \"#utility.yul\":2166:2921   */\n    tag_23:\n        /* \"#utility.yul\":2389:2393   */\n      0x00\n        /* \"#utility.yul\":2427:2430   */\n      0xc0\n        /* \"#utility.yul\":2416:2425   */\n      dup3\n        /* \"#utility.yul\":2412:2431   */\n      add\n        /* \"#utility.yul\":2404:2431   */\n      swap1\n      pop\n        /* \"#utility.yul\":2441:2512   */\n      tag_211\n        /* \"#utility.yul\":2509:2510   */\n      0x00\n        /* \"#utility.yul\":2498:2507   */\n      dup4\n        /* \"#utility.yul\":2494:2511   */\n      add\n        /* \"#utility.yul\":2485:2491   */\n      dup10\n        /* \"#utility.yul\":2441:2512   */\n      tag_141\n      jump\t// in\n    tag_211:\n        /* \"#utility.yul\":2522:2594   */\n      tag_212\n        /* \"#utility.yul\":2590:2592   */\n      0x20\n        /* \"#utility.yul\":2579:2588   */\n      dup4\n        /* \"#utility.yul\":2575:2593   */\n      add\n        /* \"#utility.yul\":2566:2572   */\n      dup9\n        /* \"#utility.yul\":2522:2594   */\n      tag_133\n      jump\t// in\n    tag_212:\n        /* \"#utility.yul\":2604:2676   */\n      tag_213\n        /* \"#utility.yul\":2672:2674   */\n      0x40\n        /* \"#utility.yul\":2661:2670   */\n      dup4\n        /* \"#utility.yul\":2657:2675   */\n      add\n        /* \"#utility.yul\":2648:2654   */\n      dup8\n        /* \"#utility.yul\":2604:2676   */\n      tag_133\n      jump\t// in\n    tag_213:\n        /* \"#utility.yul\":2686:2756   */\n      tag_214\n        /* \"#utility.yul\":2752:2754   */\n      0x60\n        /* \"#utility.yul\":2741:2750   */\n      dup4\n        /* \"#utility.yul\":2737:2755   */\n      add\n        /* \"#utility.yul\":2728:2734   */\n      dup7\n        /* \"#utility.yul\":2686:2756   */\n      tag_143\n      jump\t// in\n    tag_214:\n        /* \"#utility.yul\":2766:2837   */\n      tag_215\n        /* \"#utility.yul\":2832:2835   */\n      0x80\n        /* \"#utility.yul\":2821:2830   */\n      dup4\n        /* \"#utility.yul\":2817:2836   */\n      add\n        /* \"#utility.yul\":2808:2814   */\n      dup6\n        /* \"#utility.yul\":2766:2837   */\n      tag_143\n      jump\t// in\n    tag_215:\n        /* \"#utility.yul\":2847:2914   */\n      tag_216\n        /* \"#utility.yul\":2909:2912   */\n      0xa0\n        /* \"#utility.yul\":2898:2907   */\n      dup4\n        /* \"#utility.yul\":2894:2913   */\n      add\n        /* \"#utility.yul\":2885:2891   */\n      dup5\n        /* \"#utility.yul\":2847:2914   */\n      tag_145\n      jump\t// in\n    tag_216:\n        /* \"#utility.yul\":2166:2921   */\n      swap8\n      swap7\n      pop\n      pop\n      pop\n      pop\n      pop\n      pop\n      pop\n      jump\t// out\n        /* \"#utility.yul\":2927:3047   */\n    tag_146:\n        /* \"#utility.yul\":2999:3022   */\n      tag_218\n        /* \"#utility.yul\":3016:3021   */\n      dup2\n        /* \"#utility.yul\":2999:3022   */\n      tag_142\n      jump\t// in\n    tag_218:\n        /* \"#utility.yul\":2992:2997   */\n      dup2\n        /* \"#utility.yul\":2989:3023   */\n      eq\n        /* \"#utility.yul\":2979:3041   */\n      tag_219\n      jumpi\n        /* \"#utility.yul\":3037:3038   */\n      0x00\n        /* \"#utility.yul\":3034:3035   */\n      dup1\n        /* \"#utility.yul\":3027:3039   */\n      revert\n        /* \"#utility.yul\":2979:3041   */\n    tag_219:\n        /* \"#utility.yul\":2927:3047   */\n      pop\n      jump\t// out\n        /* \"#utility.yul\":3053:3190   */\n    tag_147:\n        /* \"#utility.yul\":3098:3103   */\n      0x00\n        /* \"#utility.yul\":3136:3142   */\n      dup2\n        /* \"#utility.yul\":3123:3143   */\n      calldataload\n        /* \"#utility.yul\":3114:3143   */\n      swap1\n      pop\n        /* \"#utility.yul\":3152:3184   */\n      tag_221\n        /* \"#utility.yul\":3178:3183   */\n      dup2\n        /* \"#utility.yul\":3152:3184   */\n      tag_146\n      jump\t// in\n    tag_221:\n        /* \"#utility.yul\":3053:3190   */\n      swap3\n      swap2\n      pop\n      pop\n      jump\t// out\n        /* \"#utility.yul\":3196:3811   */\n    tag_29:\n        /* \"#utility.yul\":3271:3277   */\n      0x00\n        /* \"#utility.yul\":3279:3285   */\n      dup1\n        /* \"#utility.yul\":3287:3293   */\n      0x00\n        /* \"#utility.yul\":3336:3338   */\n      0x60\n        /* \"#utility.yul\":3324:3333   */\n      dup5\n        /* \"#utility.yul\":3315:3322   */\n      dup7\n        /* \"#utility.yul\":3311:3334   */\n      sub\n        /* \"#utility.yul\":3307:3339   */\n      slt\n        /* \"#utility.yul\":3304:3423   */\n      iszero\n      tag_223\n      jumpi\n        /* \"#utility.yul\":3342:3421   */\n      tag_224\n      tag_135\n      jump\t// in\n    tag_224:\n        /* \"#utility.yul\":3304:3423   */\n    tag_223:\n        /* \"#utility.yul\":3462:3463   */\n      0x00\n        /* \"#utility.yul\":3487:3540   */\n      tag_225\n        /* \"#utility.yul\":3532:3539   */\n      dup7\n        /* \"#utility.yul\":3523:3529   */\n      dup3\n        /* \"#utility.yul\":3512:3521   */\n      dup8\n        /* \"#utility.yul\":3508:3530   */\n      add\n        /* \"#utility.yul\":3487:3540   */\n      tag_138\n      jump\t// in\n    tag_225:\n        /* \"#utility.yul\":3477:3540   */\n      swap4\n      pop\n        /* \"#utility.yul\":3433:3550   */\n      pop\n        /* \"#utility.yul\":3589:3591   */\n      0x20\n        /* \"#utility.yul\":3615:3667   */\n      tag_226\n        /* \"#utility.yul\":3659:3666   */\n      dup7\n        /* \"#utility.yul\":3650:3656   */\n      dup3\n        /* \"#utility.yul\":3639:3648   */\n      dup8\n        /* \"#utility.yul\":3635:3657   */\n      add\n        /* \"#utility.yul\":3615:3667   */\n      tag_147\n      jump\t// in\n    tag_226:\n        /* \"#utility.yul\":3605:3667   */\n      swap3\n      pop\n        /* \"#utility.yul\":3560:3677   */\n      pop\n        /* \"#utility.yul\":3716:3718   */\n      0x40\n        /* \"#utility.yul\":3742:3794   */\n      tag_227\n        /* \"#utility.yul\":3786:3793   */\n      dup7\n        /* \"#utility.yul\":3777:3783   */\n      dup3\n        /* \"#utility.yul\":3766:3775   */\n      dup8\n        /* \"#utility.yul\":3762:3784   */\n      add\n        /* \"#utility.yul\":3742:3794   */\n      tag_147\n      jump\t// in\n    tag_227:\n        /* \"#utility.yul\":3732:3794   */\n      swap2\n      pop\n        /* \"#utility.yul\":3687:3804   */\n      pop\n        /* \"#utility.yul\":3196:3811   */\n      swap3\n      pop\n      swap3\n      pop\n      swap3\n      jump\t// out\n        /* \"#utility.yul\":3817:4291   */\n    tag_39:\n        /* \"#utility.yul\":3885:3891   */\n      0x00\n        /* \"#utility.yul\":3893:3899   */\n      dup1\n        /* \"#utility.yul\":3942:3944   */\n      0x40\n        /* \"#utility.yul\":3930:3939   */\n      dup4\n        /* \"#utility.yul\":3921:3928   */\n      dup6\n        /* \"#utility.yul\":3917:3940   */\n      sub\n        /* \"#utility.yul\":3913:3945   */\n      slt\n        /* \"#utility.yul\":3910:4029   */\n      iszero\n      tag_229\n      jumpi\n        /* \"#utility.yul\":3948:4027   */\n      tag_230\n      tag_135\n      jump\t// in\n    tag_230:\n        /* \"#utility.yul\":3910:4029   */\n    tag_229:\n        /* \"#utility.yul\":4068:4069   */\n      0x00\n        /* \"#utility.yul\":4093:4146   */\n      tag_231\n        /* \"#utility.yul\":4138:4145   */\n      dup6\n        /* \"#utility.yul\":4129:4135   */\n      dup3\n        /* \"#utility.yul\":4118:4127   */\n      dup7\n        /* \"#utility.yul\":4114:4136   */\n      add\n        /* \"#utility.yul\":4093:4146   */\n      tag_138\n      jump\t// in\n    tag_231:\n        /* \"#utility.yul\":4083:4146   */\n      swap3\n      pop\n        /* \"#utility.yul\":4039:4156   */\n      pop\n        /* \"#utility.yul\":4195:4197   */\n      0x20\n        /* \"#utility.yul\":4221:4274   */\n      tag_232\n        /* \"#utility.yul\":4266:4273   */\n      dup6\n        /* \"#utility.yul\":4257:4263   */\n      dup3\n        /* \"#utility.yul\":4246:4255   */\n      dup7\n        /* \"#utility.yul\":4242:4264   */\n      add\n        /* \"#utility.yul\":4221:4274   */\n      tag_138\n      jump\t// in\n    tag_232:\n        /* \"#utility.yul\":4211:4274   */\n      swap2\n      pop\n        /* \"#utility.yul\":4166:4284   */\n      pop\n        /* \"#utility.yul\":3817:4291   */\n      swap3\n      pop\n      swap3\n      swap1\n      pop\n      jump\t// out\n        /* \"#utility.yul\":4297:4419   */\n    tag_148:\n        /* \"#utility.yul\":4370:4394   */\n      tag_234\n        /* \"#utility.yul\":4388:4393   */\n      dup2\n        /* \"#utility.yul\":4370:4394   */\n      tag_140\n      jump\t// in\n    tag_234:\n        /* \"#utility.yul\":4363:4368   */\n      dup2\n        /* \"#utility.yul\":4360:4395   */\n      eq\n        /* \"#utility.yul\":4350:4413   */\n      tag_235\n      jumpi\n        /* \"#utility.yul\":4409:4410   */\n      0x00\n        /* \"#utility.yul\":4406:4407   */\n      dup1\n        /* \"#utility.yul\":4399:4411   */\n      revert\n        /* \"#utility.yul\":4350:4413   */\n    tag_235:\n        /* \"#utility.yul\":4297:4419   */\n      pop\n      jump\t// out\n        /* \"#utility.yul\":4425:4564   */\n    tag_149:\n        /* \"#utility.yul\":4471:4476   */\n      0x00\n        /* \"#utility.yul\":4509:4515   */\n      dup2\n        /* \"#utility.yul\":4496:4516   */\n      calldataload\n        /* \"#utility.yul\":4487:4516   */\n      swap1\n      pop\n        /* \"#utility.yul\":4525:4558   */\n      tag_237\n        /* \"#utility.yul\":4552:4557   */\n      dup2\n        /* \"#utility.yul\":4525:4558   */\n      tag_148\n      jump\t// in\n    tag_237:\n        /* \"#utility.yul\":4425:4564   */\n      swap3\n      swap2\n      pop\n      pop\n      jump\t// out\n        /* \"#utility.yul\":4570:5044   */\n    tag_43:\n        /* \"#utility.yul\":4638:4644   */\n      0x00\n        /* \"#utility.yul\":4646:4652   */\n      dup1\n        /* \"#utility.yul\":4695:4697   */\n      0x40\n        /* \"#utility.yul\":4683:4692   */\n      dup4\n        /* \"#utility.yul\":4674:4681   */\n      dup6\n        /* \"#utility.yul\":4670:4693   */\n      sub\n        /* \"#utility.yul\":4666:4698   */\n      slt\n        /* \"#utility.yul\":4663:4782   */\n      iszero\n      tag_239\n      jumpi\n        /* \"#utility.yul\":4701:4780   */\n      tag_240\n      tag_135\n      jump\t// in\n    tag_240:\n        /* \"#utility.yul\":4663:4782   */\n    tag_239:\n        /* \"#utility.yul\":4821:4822   */\n      0x00\n        /* \"#utility.yul\":4846:4899   */\n      tag_241\n        /* \"#utility.yul\":4891:4898   */\n      dup6\n        /* \"#utility.yul\":4882:4888   */\n      dup3\n        /* \"#utility.yul\":4871:4880   */\n      dup7\n        /* \"#utility.yul\":4867:4889   */\n      add\n        /* \"#utility.yul\":4846:4899   */\n      tag_138\n      jump\t// in\n    tag_241:\n        /* \"#utility.yul\":4836:4899   */\n      swap3\n      pop\n        /* \"#utility.yul\":4792:4909   */\n      pop\n        /* \"#utility.yul\":4948:4950   */\n      0x20\n        /* \"#utility.yul\":4974:5027   */\n      tag_242\n        /* \"#utility.yul\":5019:5026   */\n      dup6\n        /* \"#utility.yul\":5010:5016   */\n      dup3\n        /* \"#utility.yul\":4999:5008   */\n      dup7\n        /* \"#utility.yul\":4995:5017   */\n      add\n        /* \"#utility.yul\":4974:5027   */\n      tag_149\n      jump\t// in\n    tag_242:\n        /* \"#utility.yul\":4964:5027   */\n      swap2\n      pop\n        /* \"#utility.yul\":4919:5037   */\n      pop\n        /* \"#utility.yul\":4570:5044   */\n      swap3\n      pop\n      swap3\n      swap1\n      pop\n      jump\t// out\n        /* \"#utility.yul\":5050:5110   */\n    tag_150:\n        /* \"#utility.yul\":5078:5081   */\n      0x00\n        /* \"#utility.yul\":5099:5104   */\n      dup2\n        /* \"#utility.yul\":5092:5104   */\n      swap1\n      pop\n        /* \"#utility.yul\":5050:5110   */\n      swap2\n      swap1\n      pop\n      jump\t// out\n        /* \"#utility.yul\":5116:5258   */\n    tag_151:\n        /* \"#utility.yul\":5166:5175   */\n      0x00\n        /* \"#utility.yul\":5199:5252   */\n      tag_245\n        /* \"#utility.yul\":5217:5251   */\n      tag_246\n        /* \"#utility.yul\":5226:5250   */\n      tag_247\n        /* \"#utility.yul\":5244:5249   */\n      dup5\n        /* \"#utility.yul\":5226:5250   */\n      tag_139\n      jump\t// in\n    tag_247:\n        /* \"#utility.yul\":5217:5251   */\n      tag_150\n      jump\t// in\n    tag_246:\n        /* \"#utility.yul\":5199:5252   */\n      tag_139\n      jump\t// in\n    tag_245:\n        /* \"#utility.yul\":5186:5252   */\n      swap1\n      pop\n        /* \"#utility.yul\":5116:5258   */\n      swap2\n      swap1\n      pop\n      jump\t// out\n        /* \"#utility.yul\":5264:5390   */\n    tag_152:\n        /* \"#utility.yul\":5314:5323   */\n      0x00\n        /* \"#utility.yul\":5347:5384   */\n      tag_249\n        /* \"#utility.yul\":5378:5383   */\n      dup3\n        /* \"#utility.yul\":5347:5384   */\n      tag_151\n      jump\t// in\n    tag_249:\n        /* \"#utility.yul\":5334:5384   */\n      swap1\n      pop\n        /* \"#utility.yul\":5264:5390   */\n      swap2\n      swap1\n      pop\n      jump\t// out\n        /* \"#utility.yul\":5396:5536   */\n    tag_153:\n        /* \"#utility.yul\":5460:5469   */\n      0x00\n        /* \"#utility.yul\":5493:5530   */\n      tag_251\n        /* \"#utility.yul\":5524:5529   */\n      dup3\n        /* \"#utility.yul\":5493:5530   */\n      tag_152\n      jump\t// in\n    tag_251:\n        /* \"#utility.yul\":5480:5530   */\n      swap1\n      pop\n        /* \"#utility.yul\":5396:5536   */\n      swap2\n      swap1\n      pop\n      jump\t// out\n        /* \"#utility.yul\":5542:5701   */\n    tag_154:\n        /* \"#utility.yul\":5643:5694   */\n      tag_253\n        /* \"#utility.yul\":5688:5693   */\n      dup2\n        /* \"#utility.yul\":5643:5694   */\n      tag_153\n      jump\t// in\n    tag_253:\n        /* \"#utility.yul\":5638:5641   */\n      dup3\n        /* \"#utility.yul\":5631:5695   */\n      mstore\n        /* \"#utility.yul\":5542:5701   */\n      pop\n      pop\n      jump\t// out\n        /* \"#utility.yul\":5707:5957   */\n    tag_49:\n        /* \"#utility.yul\":5814:5818   */\n      0x00\n        /* \"#utility.yul\":5852:5854   */\n      0x20\n        /* \"#utility.yul\":5841:5850   */\n      dup3\n        /* \"#utility.yul\":5837:5855   */\n      add\n        /* \"#utility.yul\":5829:5855   */\n      swap1\n      pop\n        /* \"#utility.yul\":5865:5950   */\n      tag_255\n        /* \"#utility.yul\":5947:5948   */\n      0x00\n        /* \"#utility.yul\":5936:5945   */\n      dup4\n        /* \"#utility.yul\":5932:5949   */\n      add\n        /* \"#utility.yul\":5923:5929   */\n      dup5\n        /* \"#utility.yul\":5865:5950   */\n      tag_154\n      jump\t// in\n    tag_255:\n        /* \"#utility.yul\":5707:5957   */\n      swap3\n      swap2\n      pop\n      pop\n      jump\t// out\n        /* \"#utility.yul\":5963:6132   */\n    tag_155:\n        /* \"#utility.yul\":6047:6058   */\n      0x00\n        /* \"#utility.yul\":6081:6087   */\n      dup3\n        /* \"#utility.yul\":6076:6079   */\n      dup3\n        /* \"#utility.yul\":6069:6088   */\n      mstore\n        /* \"#utility.yul\":6121:6125   */\n      0x20\n        /* \"#utility.yul\":6116:6119   */\n      dup3\n        /* \"#utility.yul\":6112:6126   */\n      add\n        /* \"#utility.yul\":6097:6126   */\n      swap1\n      pop\n        /* \"#utility.yul\":5963:6132   */\n      swap3\n      swap2\n      pop\n      pop\n      jump\t// out\n        /* \"#utility.yul\":6138:6297   */\n    tag_156:\n        /* \"#utility.yul\":6278:6289   */\n      0x6e6f7420656e6465640000000000000000000000000000000000000000000000\n        /* \"#utility.yul\":6274:6275   */\n      0x00\n        /* \"#utility.yul\":6266:6272   */\n      dup3\n        /* \"#utility.yul\":6262:6276   */\n      add\n        /* \"#utility.yul\":6255:6290   */\n      mstore\n        /* \"#utility.yul\":6138:6297   */\n      pop\n      jump\t// out\n        /* \"#utility.yul\":6303:6668   */\n    tag_157:\n        /* \"#utility.yul\":6445:6448   */\n      0x00\n        /* \"#utility.yul\":6466:6532   */\n      tag_259\n        /* \"#utility.yul\":6530:6531   */\n      0x09\n        /* \"#utility.yul\":6525:6528   */\n      dup4\n        /* \"#utility.yul\":6466:6532   */\n      tag_155\n      jump\t// in\n    tag_259:\n        /* \"#utility.yul\":6459:6532   */\n      swap2\n      pop\n        /* \"#utility.yul\":6541:6634   */\n      tag_260\n        /* \"#utility.yul\":6630:6633   */\n      dup3\n        /* \"#utility.yul\":6541:6634   */\n      tag_156\n      jump\t// in\n    tag_260:\n        /* \"#utility.yul\":6659:6661   */\n      0x20\n        /* \"#utility.yul\":6654:6657   */\n      dup3\n        /* \"#utility.yul\":6650:6662   */\n      add\n        /* \"#utility.yul\":6643:6662   */\n      swap1\n      pop\n        /* \"#utility.yul\":6303:6668   */\n      swap2\n      swap1\n      pop\n      jump\t// out\n        /* \"#utility.yul\":6674:7093   */\n    tag_56:\n        /* \"#utility.yul\":6840:6844   */\n      0x00\n        /* \"#utility.yul\":6878:6880   */\n      0x20\n        /* \"#utility.yul\":6867:6876   */\n      dup3\n        /* \"#utility.yul\":6863:6881   */\n      add\n        /* \"#utility.yul\":6855:6881   */\n      swap1\n      pop\n        /* \"#utility.yul\":6927:6936   */\n      dup2\n        /* \"#utility.yul\":6921:6925   */\n      dup2\n        /* \"#utility.yul\":6917:6937   */\n      sub\n        /* \"#utility.yul\":6913:6914   */\n      0x00\n        /* \"#utility.yul\":6902:6911   */\n      dup4\n        /* \"#utility.yul\":6898:6915   */\n      add\n        /* \"#utility.yul\":6891:6938   */\n      mstore\n        /* \"#utility.yul\":6955:7086   */\n      tag_262\n        /* \"#utility.yul\":7081:7085   */\n      dup2\n        /* \"#utility.yul\":6955:7086   */\n      tag_157\n      jump\t// in\n    tag_262:\n        /* \"#utility.yul\":6947:7086   */\n      swap1\n      pop\n        /* \"#utility.yul\":6674:7093   */\n      swap2\n      swap1\n      pop\n      jump\t// out\n        /* \"#utility.yul\":7099:7264   */\n    tag_158:\n        /* \"#utility.yul\":7239:7256   */\n      0x706c6564676564203e3d20676f616c0000000000000000000000000000000000\n        /* \"#utility.yul\":7235:7236   */\n      0x00\n        /* \"#utility.yul\":7227:7233   */\n      dup3\n        /* \"#utility.yul\":7223:7237   */\n      add\n        /* \"#utility.yul\":7216:7257   */\n      mstore\n        /* \"#utility.yul\":7099:7264   */\n      pop\n      jump\t// out\n        /* \"#utility.yul\":7270:7636   */\n    tag_159:\n        /* \"#utility.yul\":7412:7415   */\n      0x00\n        /* \"#utility.yul\":7433:7500   */\n      tag_265\n        /* \"#utility.yul\":7497:7499   */\n      0x0f\n        /* \"#utility.yul\":7492:7495   */\n      dup4\n        /* \"#utility.yul\":7433:7500   */\n      tag_155\n      jump\t// in\n    tag_265:\n        /* \"#utility.yul\":7426:7500   */\n      swap2\n      pop\n        /* \"#utility.yul\":7509:7602   */\n      tag_266\n        /* \"#utility.yul\":7598:7601   */\n      dup3\n        /* \"#utility.yul\":7509:7602   */\n      tag_158\n      jump\t// in\n    tag_266:\n        /* \"#utility.yul\":7627:7629   */\n      0x20\n        /* \"#utility.yul\":7622:7625   */\n      dup3\n        /* \"#utility.yul\":7618:7630   */\n      add\n        /* \"#utility.yul\":7611:7630   */\n      swap1\n      pop\n        /* \"#utility.yul\":7270:7636   */\n      swap2\n      swap1\n      pop\n      jump\t// out\n        /* \"#utility.yul\":7642:8061   */\n    tag_59:\n        /* \"#utility.yul\":7808:7812   */\n      0x00\n        /* \"#utility.yul\":7846:7848   */\n      0x20\n        /* \"#utility.yul\":7835:7844   */\n      dup3\n        /* \"#utility.yul\":7831:7849   */\n      add\n        /* \"#utility.yul\":7823:7849   */\n      swap1\n      pop\n        /* \"#utility.yul\":7895:7904   */\n      dup2\n        /* \"#utility.yul\":7889:7893   */\n      dup2\n        /* \"#utility.yul\":7885:7905   */\n      sub\n        /* \"#utility.yul\":7881:7882   */\n      0x00\n        /* \"#utility.yul\":7870:7879   */\n      dup4\n        /* \"#utility.yul\":7866:7883   */\n      add\n        /* \"#utility.yul\":7859:7906   */\n      mstore\n        /* \"#utility.yul\":7923:8054   */\n      tag_268\n        /* \"#utility.yul\":8049:8053   */\n      dup2\n        /* \"#utility.yul\":7923:8054   */\n      tag_159\n      jump\t// in\n    tag_268:\n        /* \"#utility.yul\":7915:8054   */\n      swap1\n      pop\n        /* \"#utility.yul\":7642:8061   */\n      swap2\n      swap1\n      pop\n      jump\t// out\n        /* \"#utility.yul\":8067:8399   */\n    tag_61:\n        /* \"#utility.yul\":8188:8192   */\n      0x00\n        /* \"#utility.yul\":8226:8228   */\n      0x40\n        /* \"#utility.yul\":8215:8224   */\n      dup3\n        /* \"#utility.yul\":8211:8229   */\n      add\n        /* \"#utility.yul\":8203:8229   */\n      swap1\n      pop\n        /* \"#utility.yul\":8239:8310   */\n      tag_270\n        /* \"#utility.yul\":8307:8308   */\n      0x00\n        /* \"#utility.yul\":8296:8305   */\n      dup4\n        /* \"#utility.yul\":8292:8309   */\n      add\n        /* \"#utility.yul\":8283:8289   */\n      dup6\n        /* \"#utility.yul\":8239:8310   */\n      tag_141\n      jump\t// in\n    tag_270:\n        /* \"#utility.yul\":8320:8392   */\n      tag_271\n        /* \"#utility.yul\":8388:8390   */\n      0x20\n        /* \"#utility.yul\":8377:8386   */\n      dup4\n        /* \"#utility.yul\":8373:8391   */\n      add\n        /* \"#utility.yul\":8364:8370   */\n      dup5\n        /* \"#utility.yul\":8320:8392   */\n      tag_133\n      jump\t// in\n    tag_271:\n        /* \"#utility.yul\":8067:8399   */\n      swap4\n      swap3\n      pop\n      pop\n      pop\n      jump\t// out\n        /* \"#utility.yul\":8405:8521   */\n    tag_160:\n        /* \"#utility.yul\":8475:8496   */\n      tag_273\n        /* \"#utility.yul\":8490:8495   */\n      dup2\n        /* \"#utility.yul\":8475:8496   */\n      tag_144\n      jump\t// in\n    tag_273:\n        /* \"#utility.yul\":8468:8473   */\n      dup2\n        /* \"#utility.yul\":8465:8497   */\n      eq\n        /* \"#utility.yul\":8455:8515   */\n      tag_274\n      jumpi\n        /* \"#utility.yul\":8511:8512   */\n      0x00\n        /* \"#utility.yul\":8508:8509   */\n      dup1\n        /* \"#utility.yul\":8501:8513   */\n      revert\n        /* \"#utility.yul\":8455:8515   */\n    tag_274:\n        /* \"#utility.yul\":8405:8521   */\n      pop\n      jump\t// out\n        /* \"#utility.yul\":8527:8664   */\n    tag_161:\n        /* \"#utility.yul\":8581:8586   */\n      0x00\n        /* \"#utility.yul\":8612:8618   */\n      dup2\n        /* \"#utility.yul\":8606:8619   */\n      mload\n        /* \"#utility.yul\":8597:8619   */\n      swap1\n      pop\n        /* \"#utility.yul\":8628:8658   */\n      tag_276\n        /* \"#utility.yul\":8652:8657   */\n      dup2\n        /* \"#utility.yul\":8628:8658   */\n      tag_160\n      jump\t// in\n    tag_276:\n        /* \"#utility.yul\":8527:8664   */\n      swap3\n      swap2\n      pop\n      pop\n      jump\t// out\n        /* \"#utility.yul\":8670:9015   */\n    tag_65:\n        /* \"#utility.yul\":8737:8743   */\n      0x00\n        /* \"#utility.yul\":8786:8788   */\n      0x20\n        /* \"#utility.yul\":8774:8783   */\n      dup3\n        /* \"#utility.yul\":8765:8772   */\n      dup5\n        /* \"#utility.yul\":8761:8784   */\n      sub\n        /* \"#utility.yul\":8757:8789   */\n      slt\n        /* \"#utility.yul\":8754:8873   */\n      iszero\n      tag_278\n      jumpi\n        /* \"#utility.yul\":8792:8871   */\n      tag_279\n      tag_135\n      jump\t// in\n    tag_279:\n        /* \"#utility.yul\":8754:8873   */\n    tag_278:\n        /* \"#utility.yul\":8912:8913   */\n      0x00\n        /* \"#utility.yul\":8937:8998   */\n      tag_280\n        /* \"#utility.yul\":8990:8997   */\n      dup5\n        /* \"#utility.yul\":8981:8987   */\n      dup3\n        /* \"#utility.yul\":8970:8979   */\n      dup6\n        /* \"#utility.yul\":8966:8988   */\n      add\n        /* \"#utility.yul\":8937:8998   */\n      tag_161\n      jump\t// in\n    tag_280:\n        /* \"#utility.yul\":8927:8998   */\n      swap2\n      pop\n        /* \"#utility.yul\":8883:9008   */\n      pop\n        /* \"#utility.yul\":8670:9015   */\n      swap3\n      swap2\n      pop\n      pop\n      jump\t// out\n        /* \"#utility.yul\":9021:9185   */\n    tag_162:\n        /* \"#utility.yul\":9161:9177   */\n      0x7374617274206174203c206e6f77000000000000000000000000000000000000\n        /* \"#utility.yul\":9157:9158   */\n      0x00\n        /* \"#utility.yul\":9149:9155   */\n      dup3\n        /* \"#utility.yul\":9145:9159   */\n      add\n        /* \"#utility.yul\":9138:9178   */\n      mstore\n        /* \"#utility.yul\":9021:9185   */\n      pop\n      jump\t// out\n        /* \"#utility.yul\":9191:9557   */\n    tag_163:\n        /* \"#utility.yul\":9333:9336   */\n      0x00\n        /* \"#utility.yul\":9354:9421   */\n      tag_283\n        /* \"#utility.yul\":9418:9420   */\n      0x0e\n        /* \"#utility.yul\":9413:9416   */\n      dup4\n        /* \"#utility.yul\":9354:9421   */\n      tag_155\n      jump\t// in\n    tag_283:\n        /* \"#utility.yul\":9347:9421   */\n      swap2\n      pop\n        /* \"#utility.yul\":9430:9523   */\n      tag_284\n        /* \"#utility.yul\":9519:9522   */\n      dup3\n        /* \"#utility.yul\":9430:9523   */\n      tag_162\n      jump\t// in\n    tag_284:\n        /* \"#utility.yul\":9548:9550   */\n      0x20\n        /* \"#utility.yul\":9543:9546   */\n      dup3\n        /* \"#utility.yul\":9539:9551   */\n      add\n        /* \"#utility.yul\":9532:9551   */\n      swap1\n      pop\n        /* \"#utility.yul\":9191:9557   */\n      swap2\n      swap1\n      pop\n      jump\t// out\n        /* \"#utility.yul\":9563:9982   */\n    tag_70:\n        /* \"#utility.yul\":9729:9733   */\n      0x00\n        /* \"#utility.yul\":9767:9769   */\n      0x20\n        /* \"#utility.yul\":9756:9765   */\n      dup3\n        /* \"#utility.yul\":9752:9770   */\n      add\n        /* \"#utility.yul\":9744:9770   */\n      swap1\n      pop\n        /* \"#utility.yul\":9816:9825   */\n      dup2\n        /* \"#utility.yul\":9810:9814   */\n      dup2\n        /* \"#utility.yul\":9806:9826   */\n      sub\n        /* \"#utility.yul\":9802:9803   */\n      0x00\n        /* \"#utility.yul\":9791:9800   */\n      dup4\n        /* \"#utility.yul\":9787:9804   */\n      add\n        /* \"#utility.yul\":9780:9827   */\n      mstore\n        /* \"#utility.yul\":9844:9975   */\n      tag_286\n        /* \"#utility.yul\":9970:9974   */\n      dup2\n        /* \"#utility.yul\":9844:9975   */\n      tag_163\n      jump\t// in\n    tag_286:\n        /* \"#utility.yul\":9836:9975   */\n      swap1\n      pop\n        /* \"#utility.yul\":9563:9982   */\n      swap2\n      swap1\n      pop\n      jump\t// out\n        /* \"#utility.yul\":9988:10155   */\n    tag_164:\n        /* \"#utility.yul\":10128:10147   */\n      0x656e64206174203c207374617274206174000000000000000000000000000000\n        /* \"#utility.yul\":10124:10125   */\n      0x00\n        /* \"#utility.yul\":10116:10122   */\n      dup3\n        /* \"#utility.yul\":10112:10126   */\n      add\n        /* \"#utility.yul\":10105:10148   */\n      mstore\n        /* \"#utility.yul\":9988:10155   */\n      pop\n      jump\t// out\n        /* \"#utility.yul\":10161:10527   */\n    tag_165:\n        /* \"#utility.yul\":10303:10306   */\n      0x00\n        /* \"#utility.yul\":10324:10391   */\n      tag_289\n        /* \"#utility.yul\":10388:10390   */\n      0x11\n        /* \"#utility.yul\":10383:10386   */\n      dup4\n        /* \"#utility.yul\":10324:10391   */\n      tag_155\n      jump\t// in\n    tag_289:\n        /* \"#utility.yul\":10317:10391   */\n      swap2\n      pop\n        /* \"#utility.yul\":10400:10493   */\n      tag_290\n        /* \"#utility.yul\":10489:10492   */\n      dup3\n        /* \"#utility.yul\":10400:10493   */\n      tag_164\n      jump\t// in\n    tag_290:\n        /* \"#utility.yul\":10518:10520   */\n      0x20\n        /* \"#utility.yul\":10513:10516   */\n      dup3\n        /* \"#utility.yul\":10509:10521   */\n      add\n        /* \"#utility.yul\":10502:10521   */\n      swap1\n      pop\n        /* \"#utility.yul\":10161:10527   */\n      swap2\n      swap1\n      pop\n      jump\t// out\n        /* \"#utility.yul\":10533:10952   */\n    tag_73:\n        /* \"#utility.yul\":10699:10703   */\n      0x00\n        /* \"#utility.yul\":10737:10739   */\n      0x20\n        /* \"#utility.yul\":10726:10735   */\n      dup3\n        /* \"#utility.yul\":10722:10740   */\n      add\n        /* \"#utility.yul\":10714:10740   */\n      swap1\n      pop\n        /* \"#utility.yul\":10786:10795   */\n      dup2\n        /* \"#utility.yul\":10780:10784   */\n      dup2\n        /* \"#utility.yul\":10776:10796   */\n      sub\n        /* \"#utility.yul\":10772:10773   */\n      0x00\n        /* \"#utility.yul\":10761:10770   */\n      dup4\n        /* \"#utility.yul\":10757:10774   */\n      add\n        /* \"#utility.yul\":10750:10797   */\n      mstore\n        /* \"#utility.yul\":10814:10945   */\n      tag_292\n        /* \"#utility.yul\":10940:10944   */\n      dup2\n        /* \"#utility.yul\":10814:10945   */\n      tag_165\n      jump\t// in\n    tag_292:\n        /* \"#utility.yul\":10806:10945   */\n      swap1\n      pop\n        /* \"#utility.yul\":10533:10952   */\n      swap2\n      swap1\n      pop\n      jump\t// out\n        /* \"#utility.yul\":10958:11138   */\n    tag_166:\n        /* \"#utility.yul\":11006:11083   */\n      0x4e487b7100000000000000000000000000000000000000000000000000000000\n        /* \"#utility.yul\":11003:11004   */\n      0x00\n        /* \"#utility.yul\":10996:11084   */\n      mstore\n        /* \"#utility.yul\":11103:11107   */\n      0x11\n        /* \"#utility.yul\":11100:11101   */\n      0x04\n        /* \"#utility.yul\":11093:11108   */\n      mstore\n        /* \"#utility.yul\":11127:11131   */\n      0x24\n        /* \"#utility.yul\":11124:11125   */\n      0x00\n        /* \"#utility.yul\":11117:11132   */\n      revert\n        /* \"#utility.yul\":11144:11335   */\n    tag_75:\n        /* \"#utility.yul\":11184:11187   */\n      0x00\n        /* \"#utility.yul\":11203:11223   */\n      tag_295\n        /* \"#utility.yul\":11221:11222   */\n      dup3\n        /* \"#utility.yul\":11203:11223   */\n      tag_132\n      jump\t// in\n    tag_295:\n        /* \"#utility.yul\":11198:11223   */\n      swap2\n      pop\n        /* \"#utility.yul\":11237:11257   */\n      tag_296\n        /* \"#utility.yul\":11255:11256   */\n      dup4\n        /* \"#utility.yul\":11237:11257   */\n      tag_132\n      jump\t// in\n    tag_296:\n        /* \"#utility.yul\":11232:11257   */\n      swap3\n      pop\n        /* \"#utility.yul\":11280:11281   */\n      dup3\n        /* \"#utility.yul\":11277:11278   */\n      dup3\n        /* \"#utility.yul\":11273:11282   */\n      add\n        /* \"#utility.yul\":11266:11282   */\n      swap1\n      pop\n        /* \"#utility.yul\":11301:11304   */\n      dup1\n        /* \"#utility.yul\":11298:11299   */\n      dup3\n        /* \"#utility.yul\":11295:11305   */\n      gt\n        /* \"#utility.yul\":11292:11328   */\n      iszero\n      tag_297\n      jumpi\n        /* \"#utility.yul\":11308:11326   */\n      tag_298\n      tag_166\n      jump\t// in\n    tag_298:\n        /* \"#utility.yul\":11292:11328   */\n    tag_297:\n        /* \"#utility.yul\":11144:11335   */\n      swap3\n      swap2\n      pop\n      pop\n      jump\t// out\n        /* \"#utility.yul\":11341:11512   */\n    tag_167:\n        /* \"#utility.yul\":11481:11504   */\n      0x656e64206174203e206d6178206475726174696f6e0000000000000000000000\n        /* \"#utility.yul\":11477:11478   */\n      0x00\n        /* \"#utility.yul\":11469:11475   */\n      dup3\n        /* \"#utility.yul\":11465:11479   */\n      add\n        /* \"#utility.yul\":11458:11505   */\n      mstore\n        /* \"#utility.yul\":11341:11512   */\n      pop\n      jump\t// out\n        /* \"#utility.yul\":11518:11884   */\n    tag_168:\n        /* \"#utility.yul\":11660:11663   */\n      0x00\n        /* \"#utility.yul\":11681:11748   */\n      tag_301\n        /* \"#utility.yul\":11745:11747   */\n      0x15\n        /* \"#utility.yul\":11740:11743   */\n      dup4\n        /* \"#utility.yul\":11681:11748   */\n      tag_155\n      jump\t// in\n    tag_301:\n        /* \"#utility.yul\":11674:11748   */\n      swap2\n      pop\n        /* \"#utility.yul\":11757:11850   */\n      tag_302\n        /* \"#utility.yul\":11846:11849   */\n      dup3\n        /* \"#utility.yul\":11757:11850   */\n      tag_167\n      jump\t// in\n    tag_302:\n        /* \"#utility.yul\":11875:11877   */\n      0x20\n        /* \"#utility.yul\":11870:11873   */\n      dup3\n        /* \"#utility.yul\":11866:11878   */\n      add\n        /* \"#utility.yul\":11859:11878   */\n      swap1\n      pop\n        /* \"#utility.yul\":11518:11884   */\n      swap2\n      swap1\n      pop\n      jump\t// out\n        /* \"#utility.yul\":11890:12309   */\n    tag_78:\n        /* \"#utility.yul\":12056:12060   */\n      0x00\n        /* \"#utility.yul\":12094:12096   */\n      0x20\n        /* \"#utility.yul\":12083:12092   */\n      dup3\n        /* \"#utility.yul\":12079:12097   */\n      add\n        /* \"#utility.yul\":12071:12097   */\n      swap1\n      pop\n        /* \"#utility.yul\":12143:12152   */\n      dup2\n        /* \"#utility.yul\":12137:12141   */\n      dup2\n        /* \"#utility.yul\":12133:12153   */\n      sub\n        /* \"#utility.yul\":12129:12130   */\n      0x00\n        /* \"#utility.yul\":12118:12127   */\n      dup4\n        /* \"#utility.yul\":12114:12131   */\n      add\n        /* \"#utility.yul\":12107:12154   */\n      mstore\n        /* \"#utility.yul\":12171:12302   */\n      tag_304\n        /* \"#utility.yul\":12297:12301   */\n      dup2\n        /* \"#utility.yul\":12171:12302   */\n      tag_168\n      jump\t// in\n    tag_304:\n        /* \"#utility.yul\":12163:12302   */\n      swap1\n      pop\n        /* \"#utility.yul\":11890:12309   */\n      swap2\n      swap1\n      pop\n      jump\t// out\n        /* \"#utility.yul\":12315:12860   */\n    tag_81:\n        /* \"#utility.yul\":12488:12492   */\n      0x00\n        /* \"#utility.yul\":12526:12529   */\n      0x80\n        /* \"#utility.yul\":12515:12524   */\n      dup3\n        /* \"#utility.yul\":12511:12530   */\n      add\n        /* \"#utility.yul\":12503:12530   */\n      swap1\n      pop\n        /* \"#utility.yul\":12540:12611   */\n      tag_306\n        /* \"#utility.yul\":12608:12609   */\n      0x00\n        /* \"#utility.yul\":12597:12606   */\n      dup4\n        /* \"#utility.yul\":12593:12610   */\n      add\n        /* \"#utility.yul\":12584:12590   */\n      dup8\n        /* \"#utility.yul\":12540:12611   */\n      tag_133\n      jump\t// in\n    tag_306:\n        /* \"#utility.yul\":12621:12693   */\n      tag_307\n        /* \"#utility.yul\":12689:12691   */\n      0x20\n        /* \"#utility.yul\":12678:12687   */\n      dup4\n        /* \"#utility.yul\":12674:12692   */\n      add\n        /* \"#utility.yul\":12665:12671   */\n      dup7\n        /* \"#utility.yul\":12621:12693   */\n      tag_133\n      jump\t// in\n    tag_307:\n        /* \"#utility.yul\":12703:12773   */\n      tag_308\n        /* \"#utility.yul\":12769:12771   */\n      0x40\n        /* \"#utility.yul\":12758:12767   */\n      dup4\n        /* \"#utility.yul\":12754:12772   */\n      add\n        /* \"#utility.yul\":12745:12751   */\n      dup6\n        /* \"#utility.yul\":12703:12773   */\n      tag_143\n      jump\t// in\n    tag_308:\n        /* \"#utility.yul\":12783:12853   */\n      tag_309\n        /* \"#utility.yul\":12849:12851   */\n      0x60\n        /* \"#utility.yul\":12838:12847   */\n      dup4\n        /* \"#utility.yul\":12834:12852   */\n      add\n        /* \"#utility.yul\":12825:12831   */\n      dup5\n        /* \"#utility.yul\":12783:12853   */\n      tag_143\n      jump\t// in\n    tag_309:\n        /* \"#utility.yul\":12315:12860   */\n      swap6\n      swap5\n      pop\n      pop\n      pop\n      pop\n      pop\n      jump\t// out\n        /* \"#utility.yul\":12866:13027   */\n    tag_169:\n        /* \"#utility.yul\":13006:13019   */\n      0x6e6f742063726561746f72000000000000000000000000000000000000000000\n        /* \"#utility.yul\":13002:13003   */\n      0x00\n        /* \"#utility.yul\":12994:13000   */\n      dup3\n        /* \"#utility.yul\":12990:13004   */\n      add\n        /* \"#utility.yul\":12983:13020   */\n      mstore\n        /* \"#utility.yul\":12866:13027   */\n      pop\n      jump\t// out\n        /* \"#utility.yul\":13033:13399   */\n    tag_170:\n        /* \"#utility.yul\":13175:13178   */\n      0x00\n        /* \"#utility.yul\":13196:13263   */\n      tag_312\n        /* \"#utility.yul\":13260:13262   */\n      0x0b\n        /* \"#utility.yul\":13255:13258   */\n      dup4\n        /* \"#utility.yul\":13196:13263   */\n      tag_155\n      jump\t// in\n    tag_312:\n        /* \"#utility.yul\":13189:13263   */\n      swap2\n      pop\n        /* \"#utility.yul\":13272:13365   */\n      tag_313\n        /* \"#utility.yul\":13361:13364   */\n      dup3\n        /* \"#utility.yul\":13272:13365   */\n      tag_169\n      jump\t// in\n    tag_313:\n        /* \"#utility.yul\":13390:13392   */\n      0x20\n        /* \"#utility.yul\":13385:13388   */\n      dup3\n        /* \"#utility.yul\":13381:13393   */\n      add\n        /* \"#utility.yul\":13374:13393   */\n      swap1\n      pop\n        /* \"#utility.yul\":13033:13399   */\n      swap2\n      swap1\n      pop\n      jump\t// out\n        /* \"#utility.yul\":13405:13824   */\n    tag_85:\n        /* \"#utility.yul\":13571:13575   */\n      0x00\n        /* \"#utility.yul\":13609:13611   */\n      0x20\n        /* \"#utility.yul\":13598:13607   */\n      dup3\n        /* \"#utility.yul\":13594:13612   */\n      add\n        /* \"#utility.yul\":13586:13612   */\n      swap1\n      pop\n        /* \"#utility.yul\":13658:13667   */\n      dup2\n        /* \"#utility.yul\":13652:13656   */\n      dup2\n        /* \"#utility.yul\":13648:13668   */\n      sub\n        /* \"#utility.yul\":13644:13645   */\n      0x00\n        /* \"#utility.yul\":13633:13642   */\n      dup4\n        /* \"#utility.yul\":13629:13646   */\n      add\n        /* \"#utility.yul\":13622:13669   */\n      mstore\n        /* \"#utility.yul\":13686:13817   */\n      tag_315\n        /* \"#utility.yul\":13812:13816   */\n      dup2\n        /* \"#utility.yul\":13686:13817   */\n      tag_170\n      jump\t// in\n    tag_315:\n        /* \"#utility.yul\":13678:13817   */\n      swap1\n      pop\n        /* \"#utility.yul\":13405:13824   */\n      swap2\n      swap1\n      pop\n      jump\t// out\n        /* \"#utility.yul\":13830:13994   */\n    tag_171:\n        /* \"#utility.yul\":13970:13986   */\n      0x706c6564676564203c20676f616c000000000000000000000000000000000000\n        /* \"#utility.yul\":13966:13967   */\n      0x00\n        /* \"#utility.yul\":13958:13964   */\n      dup3\n        /* \"#utility.yul\":13954:13968   */\n      add\n        /* \"#utility.yul\":13947:13987   */\n      mstore\n        /* \"#utility.yul\":13830:13994   */\n      pop\n      jump\t// out\n        /* \"#utility.yul\":14000:14366   */\n    tag_172:\n        /* \"#utility.yul\":14142:14145   */\n      0x00\n        /* \"#utility.yul\":14163:14230   */\n      tag_318\n        /* \"#utility.yul\":14227:14229   */\n      0x0e\n        /* \"#utility.yul\":14222:14225   */\n      dup4\n        /* \"#utility.yul\":14163:14230   */\n      tag_155\n      jump\t// in\n    tag_318:\n        /* \"#utility.yul\":14156:14230   */\n      swap2\n      pop\n        /* \"#utility.yul\":14239:14332   */\n      tag_319\n        /* \"#utility.yul\":14328:14331   */\n      dup3\n        /* \"#utility.yul\":14239:14332   */\n      tag_171\n      jump\t// in\n    tag_319:\n        /* \"#utility.yul\":14357:14359   */\n      0x20\n        /* \"#utility.yul\":14352:14355   */\n      dup3\n        /* \"#utility.yul\":14348:14360   */\n      add\n        /* \"#utility.yul\":14341:14360   */\n      swap1\n      pop\n        /* \"#utility.yul\":14000:14366   */\n      swap2\n      swap1\n      pop\n      jump\t// out\n        /* \"#utility.yul\":14372:14791   */\n    tag_90:\n        /* \"#utility.yul\":14538:14542   */\n      0x00\n        /* \"#utility.yul\":14576:14578   */\n      0x20\n        /* \"#utility.yul\":14565:14574   */\n      dup3\n        /* \"#utility.yul\":14561:14579   */\n      add\n        /* \"#utility.yul\":14553:14579   */\n      swap1\n      pop\n        /* \"#utility.yul\":14625:14634   */\n      dup2\n        /* \"#utility.yul\":14619:14623   */\n      dup2\n        /* \"#utility.yul\":14615:14635   */\n      sub\n        /* \"#utility.yul\":14611:14612   */\n      0x00\n        /* \"#utility.yul\":14600:14609   */\n      dup4\n        /* \"#utility.yul\":14596:14613   */\n      add\n        /* \"#utility.yul\":14589:14636   */\n      mstore\n        /* \"#utility.yul\":14653:14784   */\n      tag_321\n        /* \"#utility.yul\":14779:14783   */\n      dup2\n        /* \"#utility.yul\":14653:14784   */\n      tag_172\n      jump\t// in\n    tag_321:\n        /* \"#utility.yul\":14645:14784   */\n      swap1\n      pop\n        /* \"#utility.yul\":14372:14791   */\n      swap2\n      swap1\n      pop\n      jump\t// out\n        /* \"#utility.yul\":14797:14954   */\n    tag_173:\n        /* \"#utility.yul\":14937:14946   */\n      0x636c61696d656400000000000000000000000000000000000000000000000000\n        /* \"#utility.yul\":14933:14934   */\n      0x00\n        /* \"#utility.yul\":14925:14931   */\n      dup3\n        /* \"#utility.yul\":14921:14935   */\n      add\n        /* \"#utility.yul\":14914:14947   */\n      mstore\n        /* \"#utility.yul\":14797:14954   */\n      pop\n      jump\t// out\n        /* \"#utility.yul\":14960:15325   */\n    tag_174:\n        /* \"#utility.yul\":15102:15105   */\n      0x00\n        /* \"#utility.yul\":15123:15189   */\n      tag_324\n        /* \"#utility.yul\":15187:15188   */\n      0x07\n        /* \"#utility.yul\":15182:15185   */\n      dup4\n        /* \"#utility.yul\":15123:15189   */\n      tag_155\n      jump\t// in\n    tag_324:\n        /* \"#utility.yul\":15116:15189   */\n      swap2\n      pop\n        /* \"#utility.yul\":15198:15291   */\n      tag_325\n        /* \"#utility.yul\":15287:15290   */\n      dup3\n        /* \"#utility.yul\":15198:15291   */\n      tag_173\n      jump\t// in\n    tag_325:\n        /* \"#utility.yul\":15316:15318   */\n      0x20\n        /* \"#utility.yul\":15311:15314   */\n      dup3\n        /* \"#utility.yul\":15307:15319   */\n      add\n        /* \"#utility.yul\":15300:15319   */\n      swap1\n      pop\n        /* \"#utility.yul\":14960:15325   */\n      swap2\n      swap1\n      pop\n      jump\t// out\n        /* \"#utility.yul\":15331:15750   */\n    tag_93:\n        /* \"#utility.yul\":15497:15501   */\n      0x00\n        /* \"#utility.yul\":15535:15537   */\n      0x20\n        /* \"#utility.yul\":15524:15533   */\n      dup3\n        /* \"#utility.yul\":15520:15538   */\n      add\n        /* \"#utility.yul\":15512:15538   */\n      swap1\n      pop\n        /* \"#utility.yul\":15584:15593   */\n      dup2\n        /* \"#utility.yul\":15578:15582   */\n      dup2\n        /* \"#utility.yul\":15574:15594   */\n      sub\n        /* \"#utility.yul\":15570:15571   */\n      0x00\n        /* \"#utility.yul\":15559:15568   */\n      dup4\n        /* \"#utility.yul\":15555:15572   */\n      add\n        /* \"#utility.yul\":15548:15595   */\n      mstore\n        /* \"#utility.yul\":15612:15743   */\n      tag_327\n        /* \"#utility.yul\":15738:15742   */\n      dup2\n        /* \"#utility.yul\":15612:15743   */\n      tag_174\n      jump\t// in\n    tag_327:\n        /* \"#utility.yul\":15604:15743   */\n      swap1\n      pop\n        /* \"#utility.yul\":15331:15750   */\n      swap2\n      swap1\n      pop\n      jump\t// out\n        /* \"#utility.yul\":15756:15913   */\n    tag_175:\n        /* \"#utility.yul\":15896:15905   */\n      0x7374617274656400000000000000000000000000000000000000000000000000\n        /* \"#utility.yul\":15892:15893   */\n      0x00\n        /* \"#utility.yul\":15884:15890   */\n      dup3\n        /* \"#utility.yul\":15880:15894   */\n      add\n        /* \"#utility.yul\":15873:15906   */\n      mstore\n        /* \"#utility.yul\":15756:15913   */\n      pop\n      jump\t// out\n        /* \"#utility.yul\":15919:16284   */\n    tag_176:\n        /* \"#utility.yul\":16061:16064   */\n      0x00\n        /* \"#utility.yul\":16082:16148   */\n      tag_330\n        /* \"#utility.yul\":16146:16147   */\n      0x07\n        /* \"#utility.yul\":16141:16144   */\n      dup4\n        /* \"#utility.yul\":16082:16148   */\n      tag_155\n      jump\t// in\n    tag_330:\n        /* \"#utility.yul\":16075:16148   */\n      swap2\n      pop\n        /* \"#utility.yul\":16157:16250   */\n      tag_331\n        /* \"#utility.yul\":16246:16249   */\n      dup3\n        /* \"#utility.yul\":16157:16250   */\n      tag_175\n      jump\t// in\n    tag_331:\n        /* \"#utility.yul\":16275:16277   */\n      0x20\n        /* \"#utility.yul\":16270:16273   */\n      dup3\n        /* \"#utility.yul\":16266:16278   */\n      add\n        /* \"#utility.yul\":16259:16278   */\n      swap1\n      pop\n        /* \"#utility.yul\":15919:16284   */\n      swap2\n      swap1\n      pop\n      jump\t// out\n        /* \"#utility.yul\":16290:16709   */\n    tag_104:\n        /* \"#utility.yul\":16456:16460   */\n      0x00\n        /* \"#utility.yul\":16494:16496   */\n      0x20\n        /* \"#utility.yul\":16483:16492   */\n      dup3\n        /* \"#utility.yul\":16479:16497   */\n      add\n        /* \"#utility.yul\":16471:16497   */\n      swap1\n      pop\n        /* \"#utility.yul\":16543:16552   */\n      dup2\n        /* \"#utility.yul\":16537:16541   */\n      dup2\n        /* \"#utility.yul\":16533:16553   */\n      sub\n        /* \"#utility.yul\":16529:16530   */\n      0x00\n        /* \"#utility.yul\":16518:16527   */\n      dup4\n        /* \"#utility.yul\":16514:16531   */\n      add\n        /* \"#utility.yul\":16507:16554   */\n      mstore\n        /* \"#utility.yul\":16571:16702   */\n      tag_333\n        /* \"#utility.yul\":16697:16701   */\n      dup2\n        /* \"#utility.yul\":16571:16702   */\n      tag_176\n      jump\t// in\n    tag_333:\n        /* \"#utility.yul\":16563:16702   */\n      swap1\n      pop\n        /* \"#utility.yul\":16290:16709   */\n      swap2\n      swap1\n      pop\n      jump\t// out\n        /* \"#utility.yul\":16715:16870   */\n    tag_177:\n        /* \"#utility.yul\":16855:16862   */\n      0x656e646564000000000000000000000000000000000000000000000000000000\n        /* \"#utility.yul\":16851:16852   */\n      0x00\n        /* \"#utility.yul\":16843:16849   */\n      dup3\n        /* \"#utility.yul\":16839:16853   */\n      add\n        /* \"#utility.yul\":16832:16863   */\n      mstore\n        /* \"#utility.yul\":16715:16870   */\n      pop\n      jump\t// out\n        /* \"#utility.yul\":16876:17241   */\n    tag_178:\n        /* \"#utility.yul\":17018:17021   */\n      0x00\n        /* \"#utility.yul\":17039:17105   */\n      tag_336\n        /* \"#utility.yul\":17103:17104   */\n      0x05\n        /* \"#utility.yul\":17098:17101   */\n      dup4\n        /* \"#utility.yul\":17039:17105   */\n      tag_155\n      jump\t// in\n    tag_336:\n        /* \"#utility.yul\":17032:17105   */\n      swap2\n      pop\n        /* \"#utility.yul\":17114:17207   */\n      tag_337\n        /* \"#utility.yul\":17203:17206   */\n      dup3\n        /* \"#utility.yul\":17114:17207   */\n      tag_177\n      jump\t// in\n    tag_337:\n        /* \"#utility.yul\":17232:17234   */\n      0x20\n        /* \"#utility.yul\":17227:17230   */\n      dup3\n        /* \"#utility.yul\":17223:17235   */\n      add\n        /* \"#utility.yul\":17216:17235   */\n      swap1\n      pop\n        /* \"#utility.yul\":16876:17241   */\n      swap2\n      swap1\n      pop\n      jump\t// out\n        /* \"#utility.yul\":17247:17666   */\n    tag_109:\n        /* \"#utility.yul\":17413:17417   */\n      0x00\n        /* \"#utility.yul\":17451:17453   */\n      0x20\n        /* \"#utility.yul\":17440:17449   */\n      dup3\n        /* \"#utility.yul\":17436:17454   */\n      add\n        /* \"#utility.yul\":17428:17454   */\n      swap1\n      pop\n        /* \"#utility.yul\":17500:17509   */\n      dup2\n        /* \"#utility.yul\":17494:17498   */\n      dup2\n        /* \"#utility.yul\":17490:17510   */\n      sub\n        /* \"#utility.yul\":17486:17487   */\n      0x00\n        /* \"#utility.yul\":17475:17484   */\n      dup4\n        /* \"#utility.yul\":17471:17488   */\n      add\n        /* \"#utility.yul\":17464:17511   */\n      mstore\n        /* \"#utility.yul\":17528:17659   */\n      tag_339\n        /* \"#utility.yul\":17654:17658   */\n      dup2\n        /* \"#utility.yul\":17528:17659   */\n      tag_178\n      jump\t// in\n    tag_339:\n        /* \"#utility.yul\":17520:17659   */\n      swap1\n      pop\n        /* \"#utility.yul\":17247:17666   */\n      swap2\n      swap1\n      pop\n      jump\t// out\n        /* \"#utility.yul\":17672:17866   */\n    tag_111:\n        /* \"#utility.yul\":17712:17716   */\n      0x00\n        /* \"#utility.yul\":17732:17752   */\n      tag_341\n        /* \"#utility.yul\":17750:17751   */\n      dup3\n        /* \"#utility.yul\":17732:17752   */\n      tag_132\n      jump\t// in\n    tag_341:\n        /* \"#utility.yul\":17727:17752   */\n      swap2\n      pop\n        /* \"#utility.yul\":17766:17786   */\n      tag_342\n        /* \"#utility.yul\":17784:17785   */\n      dup4\n        /* \"#utility.yul\":17766:17786   */\n      tag_132\n      jump\t// in\n    tag_342:\n        /* \"#utility.yul\":17761:17786   */\n      swap3\n      pop\n        /* \"#utility.yul\":17810:17811   */\n      dup3\n        /* \"#utility.yul\":17807:17808   */\n      dup3\n        /* \"#utility.yul\":17803:17812   */\n      sub\n        /* \"#utility.yul\":17795:17812   */\n      swap1\n      pop\n        /* \"#utility.yul\":17834:17835   */\n      dup2\n        /* \"#utility.yul\":17828:17832   */\n      dup2\n        /* \"#utility.yul\":17825:17836   */\n      gt\n        /* \"#utility.yul\":17822:17859   */\n      iszero\n      tag_343\n      jumpi\n        /* \"#utility.yul\":17839:17857   */\n      tag_344\n      tag_166\n      jump\t// in\n    tag_344:\n        /* \"#utility.yul\":17822:17859   */\n    tag_343:\n        /* \"#utility.yul\":17672:17866   */\n      swap3\n      swap2\n      pop\n      pop\n      jump\t// out\n        /* \"#utility.yul\":17872:18033   */\n    tag_179:\n        /* \"#utility.yul\":18012:18025   */\n      0x6e6f742073746172746564000000000000000000000000000000000000000000\n        /* \"#utility.yul\":18008:18009   */\n      0x00\n        /* \"#utility.yul\":18000:18006   */\n      dup3\n        /* \"#utility.yul\":17996:18010   */\n      add\n        /* \"#utility.yul\":17989:18026   */\n      mstore\n        /* \"#utility.yul\":17872:18033   */\n      pop\n      jump\t// out\n        /* \"#utility.yul\":18039:18405   */\n    tag_180:\n        /* \"#utility.yul\":18181:18184   */\n      0x00\n        /* \"#utility.yul\":18202:18269   */\n      tag_347\n        /* \"#utility.yul\":18266:18268   */\n      0x0b\n        /* \"#utility.yul\":18261:18264   */\n      dup4\n        /* \"#utility.yul\":18202:18269   */\n      tag_155\n      jump\t// in\n    tag_347:\n        /* \"#utility.yul\":18195:18269   */\n      swap2\n      pop\n        /* \"#utility.yul\":18278:18371   */\n      tag_348\n        /* \"#utility.yul\":18367:18370   */\n      dup3\n        /* \"#utility.yul\":18278:18371   */\n      tag_179\n      jump\t// in\n    tag_348:\n        /* \"#utility.yul\":18396:18398   */\n      0x20\n        /* \"#utility.yul\":18391:18394   */\n      dup3\n        /* \"#utility.yul\":18387:18399   */\n      add\n        /* \"#utility.yul\":18380:18399   */\n      swap1\n      pop\n        /* \"#utility.yul\":18039:18405   */\n      swap2\n      swap1\n      pop\n      jump\t// out\n        /* \"#utility.yul\":18411:18830   */\n    tag_121:\n        /* \"#utility.yul\":18577:18581   */\n      0x00\n        /* \"#utility.yul\":18615:18617   */\n      0x20\n        /* \"#utility.yul\":18604:18613   */\n      dup3\n        /* \"#utility.yul\":18600:18618   */\n      add\n        /* \"#utility.yul\":18592:18618   */\n      swap1\n      pop\n        /* \"#utility.yul\":18664:18673   */\n      dup2\n        /* \"#utility.yul\":18658:18662   */\n      dup2\n        /* \"#utility.yul\":18654:18674   */\n      sub\n        /* \"#utility.yul\":18650:18651   */\n      0x00\n        /* \"#utility.yul\":18639:18648   */\n      dup4\n        /* \"#utility.yul\":18635:18652   */\n      add\n        /* \"#utility.yul\":18628:18675   */\n      mstore\n        /* \"#utility.yul\":18692:18823   */\n      tag_350\n        /* \"#utility.yul\":18818:18822   */\n      dup2\n        /* \"#utility.yul\":18692:18823   */\n      tag_180\n      jump\t// in\n    tag_350:\n        /* \"#utility.yul\":18684:18823   */\n      swap1\n      pop\n        /* \"#utility.yul\":18411:18830   */\n      swap2\n      swap1\n      pop\n      jump\t// out\n        /* \"#utility.yul\":18836:19278   */\n    tag_127:\n        /* \"#utility.yul\":18985:18989   */\n      0x00\n        /* \"#utility.yul\":19023:19025   */\n      0x60\n        /* \"#utility.yul\":19012:19021   */\n      dup3\n        /* \"#utility.yul\":19008:19026   */\n      add\n        /* \"#utility.yul\":19000:19026   */\n      swap1\n      pop\n        /* \"#utility.yul\":19036:19107   */\n      tag_352\n        /* \"#utility.yul\":19104:19105   */\n      0x00\n        /* \"#utility.yul\":19093:19102   */\n      dup4\n        /* \"#utility.yul\":19089:19106   */\n      add\n        /* \"#utility.yul\":19080:19086   */\n      dup7\n        /* \"#utility.yul\":19036:19107   */\n      tag_141\n      jump\t// in\n    tag_352:\n        /* \"#utility.yul\":19117:19189   */\n      tag_353\n        /* \"#utility.yul\":19185:19187   */\n      0x20\n        /* \"#utility.yul\":19174:19183   */\n      dup4\n        /* \"#utility.yul\":19170:19188   */\n      add\n        /* \"#utility.yul\":19161:19167   */\n      dup6\n        /* \"#utility.yul\":19117:19189   */\n      tag_141\n      jump\t// in\n    tag_353:\n        /* \"#utility.yul\":19199:19271   */\n      tag_354\n        /* \"#utility.yul\":19267:19269   */\n      0x40\n        /* \"#utility.yul\":19256:19265   */\n      dup4\n        /* \"#utility.yul\":19252:19270   */\n      add\n        /* \"#utility.yul\":19243:19249   */\n      dup5\n        /* \"#utility.yul\":19199:19271   */\n      tag_133\n      jump\t// in\n    tag_354:\n        /* \"#utility.yul\":18836:19278   */\n      swap5\n      swap4\n      pop\n      pop\n      pop\n      pop\n      jump\t// out\n\n    auxdata: 0xa2646970667358221220af4868e3df6384996c0ba69d3469b1cf464a028945fe467ffa278dd322859c1f64736f6c63430008110033\n}\n",
				"bytecode": {
					"linkReferences": {},
					"object": "60a06040523480156200001157600080fd5b5060405162001bd738038062001bd78339818101604052810190620000379190620000dc565b8073ffffffffffffffffffffffffffffffffffffffff1660808173ffffffffffffffffffffffffffffffffffffffff1681525050506200010e565b600080fd5b600073ffffffffffffffffffffffffffffffffffffffff82169050919050565b6000620000a48262000077565b9050919050565b620000b68162000097565b8114620000c257600080fd5b50565b600081519050620000d681620000ab565b92915050565b600060208284031215620000f557620000f462000072565b5b60006200010584828501620000c5565b91505092915050565b608051611a9162000146600039600081816103e50152818161092d01528181610d7c01528181610e94015261100b0152611a916000f3fe608060405234801561001057600080fd5b506004361061009e5760003560e01c806340e58ee51161006657806340e58ee51461014a578063711853ab14610166578063aa4fb63a14610182578063fc0c546a146101b2578063fde327be146101d05761009e565b806306661abd146100a3578063141961bc146100c1578063278ecde1146100f65780632c63f14614610112578063379607f51461012e575b600080fd5b6100ab6101ec565b6040516100b89190611117565b60405180910390f35b6100db60048036038101906100d69190611163565b6101f2565b6040516100ed9695949392919061120b565b60405180910390f35b610110600480360381019061010b9190611163565b61027b565b005b61012c60048036038101906101279190611298565b6104d6565b005b61014860048036038101906101439190611163565b61076c565b005b610164600480360381019061015f9190611163565b610a09565b005b610180600480360381019061017b91906112eb565b610c84565b005b61019c60048036038101906101979190611357565b610e6d565b6040516101a99190611117565b60405180910390f35b6101ba610e92565b6040516101c791906113f6565b60405180910390f35b6101ea60048036038101906101e591906112eb565b610eb6565b005b60005481565b60016020528060005260406000206000915090508060000160009054906101000a900473ffffffffffffffffffffffffffffffffffffffff16908060010154908060020154908060030160009054906101000a900463ffffffff16908060030160049054906101000a900463ffffffff16908060030160089054906101000a900460ff16905086565b60006001600083815260200190815260200160002090508060030160049054906101000a900463ffffffff1663ffffffff1642116102ee576040517f08c379a00000000000000000000000000000000000000000000000000000000081526004016102e59061146e565b60405180910390fd5b8060010154816002015410610338576040517f08c379a000000000000000000000000000000000000000000000000000000000815260040161032f906114da565b60405180910390fd5b60006002600084815260200190815260200160002060003373ffffffffffffffffffffffffffffffffffffffff1673ffffffffffffffffffffffffffffffffffffffff16815260200190815260200160002054905060006002600085815260200190815260200160002060003373ffffffffffffffffffffffffffffffffffffffff1673ffffffffffffffffffffffffffffffffffffffff168152602001908152602001600020819055507f000000000000000000000000000000000000000000000000000000000000000073ffffffffffffffffffffffffffffffffffffffff1663a9059cbb33836040518363ffffffff1660e01b815260040161043e9291906114fa565b6020604051808303816000875af115801561045d573d6000803e3d6000fd5b505050506040513d601f19601f82011682018060405250810190610481919061154f565b503373ffffffffffffffffffffffffffffffffffffffff16837f21e12a7cad0da5928167e1084ea4d5fdf8d9af66657a2543a9ac76a0ca081477836040516104c99190611117565b60405180910390a3505050565b428263ffffffff16111561051f576040517f08c379a0000000000000000000000000000000000000000000000000000000008152600401610516906115c8565b60405180910390fd5b8163ffffffff168163ffffffff16111561056e576040517f08c379a000000000000000000000000000000000000000000000000000000000815260040161056590611634565b60405180910390fd5b6276a7004261057d9190611683565b8163ffffffff1611156105c5576040517f08c379a00000000000000000000000000000000000000000000000000000000081526004016105bc90611703565b60405180910390fd5b60016000808282546105d79190611683565b925050819055506040518060c001604052803373ffffffffffffffffffffffffffffffffffffffff168152602001848152602001600081526020018363ffffffff1681526020018263ffffffff16815260200160001515815250600160008054815260200190815260200160002060008201518160000160006101000a81548173ffffffffffffffffffffffffffffffffffffffff021916908373ffffffffffffffffffffffffffffffffffffffff160217905550602082015181600101556040820151816002015560608201518160030160006101000a81548163ffffffff021916908363ffffffff16021790555060808201518160030160046101000a81548163ffffffff021916908363ffffffff16021790555060a08201518160030160086101000a81548160ff0219169083151502179055509050503373ffffffffffffffffffffffffffffffffffffffff167f0601cd0d650b473037e838a2696d41e654433d065b3f56b28d1d3302e44a304f60005485858560405161075f9493929190611723565b60405180910390a2505050565b60006001600083815260200190815260200160002090508060000160009054906101000a900473ffffffffffffffffffffffffffffffffffffffff1673ffffffffffffffffffffffffffffffffffffffff163373ffffffffffffffffffffffffffffffffffffffff1614610815576040517f08c379a000000000000000000000000000000000000000000000000000000000815260040161080c906117b4565b60405180910390fd5b8060030160049054906101000a900463ffffffff1663ffffffff164211610871576040517f08c379a00000000000000000000000000000000000000000000000000000000081526004016108689061146e565b60405180910390fd5b8060010154816002015410156108bc576040517f08c379a00000000000000000000000000000000000000000000000000000000081526004016108b390611820565b60405180910390fd5b8060030160089054906101000a900460ff161561090e576040517f08c379a00000000000000000000000000000000000000000000000000000000081526004016109059061188c565b60405180910390fd5b60018160030160086101000a81548160ff0219169083151502179055507f000000000000000000000000000000000000000000000000000000000000000073ffffffffffffffffffffffffffffffffffffffff1663a9059cbb3383600201546040518363ffffffff1660e01b815260040161098a9291906114fa565b6020604051808303816000875af11580156109a9573d6000803e3d6000fd5b505050506040513d601f19601f820116820180604052508101906109cd919061154f565b507f7bb2b3c10797baccb6f8c4791f1edd6ca2f0d028ee0eda64b01a9a57e3a653f7826040516109fd9190611117565b60405180910390a15050565b6000600160008381526020019081526020016000206040518060c00160405290816000820160009054906101000a900473ffffffffffffffffffffffffffffffffffffffff1673ffffffffffffffffffffffffffffffffffffffff1673ffffffffffffffffffffffffffffffffffffffff16815260200160018201548152602001600282015481526020016003820160009054906101000a900463ffffffff1663ffffffff1663ffffffff1681526020016003820160049054906101000a900463ffffffff1663ffffffff1663ffffffff1681526020016003820160089054906101000a900460ff1615151515815250509050806000015173ffffffffffffffffffffffffffffffffffffffff163373ffffffffffffffffffffffffffffffffffffffff1614610b6e576040517f08c379a0000000000000000000000000000000000000000000000000000000008152600401610b65906117b4565b60405180910390fd5b806060015163ffffffff164210610bba576040517f08c379a0000000000000000000000000000000000000000000000000000000008152600401610bb1906118f8565b60405180910390fd5b60016000838152602001908152602001600020600080820160006101000a81549073ffffffffffffffffffffffffffffffffffffffff0219169055600182016000905560028201600090556003820160006101000a81549063ffffffff02191690556003820160046101000a81549063ffffffff02191690556003820160086101000a81549060ff021916905550507f8bf30e7ff26833413be5f69e1d373744864d600b664204b4a2f9844a8eedb9ed82604051610c789190611117565b60405180910390a15050565b60006001600084815260200190815260200160002090508060030160049054906101000a900463ffffffff1663ffffffff16421115610cf8576040517f08c379a0000000000000000000000000000000000000000000000000000000008152600401610cef90611964565b60405180910390fd5b81816002016000828254610d0c9190611984565b92505081905550816002600085815260200190815260200160002060003373ffffffffffffffffffffffffffffffffffffffff1673ffffffffffffffffffffffffffffffffffffffff1681526020019081526020016000206000828254610d739190611984565b925050819055507f000000000000000000000000000000000000000000000000000000000000000073ffffffffffffffffffffffffffffffffffffffff1663a9059cbb33846040518363ffffffff1660e01b8152600401610dd59291906114fa565b6020604051808303816000875af1158015610df4573d6000803e3d6000fd5b505050506040513d601f19601f82011682018060405250810190610e18919061154f565b503373ffffffffffffffffffffffffffffffffffffffff16837f2eeeab891b26a214d1b25749f88a406bdea852bd8c9bfda977e0ef8114c180ba84604051610e609190611117565b60405180910390a3505050565b6002602052816000526040600020602052806000526040600020600091509150505481565b7f000000000000000000000000000000000000000000000000000000000000000081565b60006001600084815260200190815260200160002090508060030160009054906101000a900463ffffffff1663ffffffff16421015610f2a576040517f08c379a0000000000000000000000000000000000000000000000000000000008152600401610f2190611a04565b60405180910390fd5b8060030160049054906101000a900463ffffffff1663ffffffff16421115610f87576040517f08c379a0000000000000000000000000000000000000000000000000000000008152600401610f7e90611964565b60405180910390fd5b81816002016000828254610f9b9190611683565b92505081905550816002600085815260200190815260200160002060003373ffffffffffffffffffffffffffffffffffffffff1673ffffffffffffffffffffffffffffffffffffffff16815260200190815260200160002060008282546110029190611683565b925050819055507f000000000000000000000000000000000000000000000000000000000000000073ffffffffffffffffffffffffffffffffffffffff166323b872dd3330856040518463ffffffff1660e01b815260040161106693929190611a24565b6020604051808303816000875af1158015611085573d6000803e3d6000fd5b505050506040513d601f19601f820116820180604052508101906110a9919061154f565b503373ffffffffffffffffffffffffffffffffffffffff16837f06bdb975df800a73232998e71ed585d536222f1dfeaa622d7f62a23ada686c82846040516110f19190611117565b60405180910390a3505050565b6000819050919050565b611111816110fe565b82525050565b600060208201905061112c6000830184611108565b92915050565b600080fd5b611140816110fe565b811461114b57600080fd5b50565b60008135905061115d81611137565b92915050565b60006020828403121561117957611178611132565b5b60006111878482850161114e565b91505092915050565b600073ffffffffffffffffffffffffffffffffffffffff82169050919050565b60006111bb82611190565b9050919050565b6111cb816111b0565b82525050565b600063ffffffff82169050919050565b6111ea816111d1565b82525050565b60008115159050919050565b611205816111f0565b82525050565b600060c08201905061122060008301896111c2565b61122d6020830188611108565b61123a6040830187611108565b61124760608301866111e1565b61125460808301856111e1565b61126160a08301846111fc565b979650505050505050565b611275816111d1565b811461128057600080fd5b50565b6000813590506112928161126c565b92915050565b6000806000606084860312156112b1576112b0611132565b5b60006112bf8682870161114e565b93505060206112d086828701611283565b92505060406112e186828701611283565b9150509250925092565b6000806040838503121561130257611301611132565b5b60006113108582860161114e565b92505060206113218582860161114e565b9150509250929050565b611334816111b0565b811461133f57600080fd5b50565b6000813590506113518161132b565b92915050565b6000806040838503121561136e5761136d611132565b5b600061137c8582860161114e565b925050602061138d85828601611342565b9150509250929050565b6000819050919050565b60006113bc6113b76113b284611190565b611397565b611190565b9050919050565b60006113ce826113a1565b9050919050565b60006113e0826113c3565b9050919050565b6113f0816113d5565b82525050565b600060208201905061140b60008301846113e7565b92915050565b600082825260208201905092915050565b7f6e6f7420656e6465640000000000000000000000000000000000000000000000600082015250565b6000611458600983611411565b915061146382611422565b602082019050919050565b600060208201905081810360008301526114878161144b565b9050919050565b7f706c6564676564203e3d20676f616c0000000000000000000000000000000000600082015250565b60006114c4600f83611411565b91506114cf8261148e565b602082019050919050565b600060208201905081810360008301526114f3816114b7565b9050919050565b600060408201905061150f60008301856111c2565b61151c6020830184611108565b9392505050565b61152c816111f0565b811461153757600080fd5b50565b60008151905061154981611523565b92915050565b60006020828403121561156557611564611132565b5b60006115738482850161153a565b91505092915050565b7f7374617274206174203c206e6f77000000000000000000000000000000000000600082015250565b60006115b2600e83611411565b91506115bd8261157c565b602082019050919050565b600060208201905081810360008301526115e1816115a5565b9050919050565b7f656e64206174203c207374617274206174000000000000000000000000000000600082015250565b600061161e601183611411565b9150611629826115e8565b602082019050919050565b6000602082019050818103600083015261164d81611611565b9050919050565b7f4e487b7100000000000000000000000000000000000000000000000000000000600052601160045260246000fd5b600061168e826110fe565b9150611699836110fe565b92508282019050808211156116b1576116b0611654565b5b92915050565b7f656e64206174203e206d6178206475726174696f6e0000000000000000000000600082015250565b60006116ed601583611411565b91506116f8826116b7565b602082019050919050565b6000602082019050818103600083015261171c816116e0565b9050919050565b60006080820190506117386000830187611108565b6117456020830186611108565b61175260408301856111e1565b61175f60608301846111e1565b95945050505050565b7f6e6f742063726561746f72000000000000000000000000000000000000000000600082015250565b600061179e600b83611411565b91506117a982611768565b602082019050919050565b600060208201905081810360008301526117cd81611791565b9050919050565b7f706c6564676564203c20676f616c000000000000000000000000000000000000600082015250565b600061180a600e83611411565b9150611815826117d4565b602082019050919050565b60006020820190508181036000830152611839816117fd565b9050919050565b7f636c61696d656400000000000000000000000000000000000000000000000000600082015250565b6000611876600783611411565b915061188182611840565b602082019050919050565b600060208201905081810360008301526118a581611869565b9050919050565b7f7374617274656400000000000000000000000000000000000000000000000000600082015250565b60006118e2600783611411565b91506118ed826118ac565b602082019050919050565b60006020820190508181036000830152611911816118d5565b9050919050565b7f656e646564000000000000000000000000000000000000000000000000000000600082015250565b600061194e600583611411565b915061195982611918565b602082019050919050565b6000602082019050818103600083015261197d81611941565b9050919050565b600061198f826110fe565b915061199a836110fe565b92508282039050818111156119b2576119b1611654565b5b92915050565b7f6e6f742073746172746564000000000000000000000000000000000000000000600082015250565b60006119ee600b83611411565b91506119f9826119b8565b602082019050919050565b60006020820190508181036000830152611a1d816119e1565b9050919050565b6000606082019050611a3960008301866111c2565b611a4660208301856111c2565b611a536040830184611108565b94935050505056fea2646970667358221220af4868e3df6384996c0ba69d3469b1cf464a028945fe467ffa278dd322859c1f64736f6c63430008110033",
					"opcodes": "PUSH1 0xA0 PUSH1 0x40 MSTORE CALLVALUE DUP1 ISZERO PUSH3 0x11 JUMPI PUSH1 0x0 DUP1 REVERT JUMPDEST POP PUSH1 0x40 MLOAD PUSH3 0x1BD7 CODESIZE SUB DUP1 PUSH3 0x1BD7 DUP4 CODECOPY DUP2 DUP2 ADD PUSH1 0x40 MSTORE DUP2 ADD SWAP1 PUSH3 0x37 SWAP2 SWAP1 PUSH3 0xDC JUMP JUMPDEST DUP1 PUSH20 0xFFFFFFFFFFFFFFFFFFFFFFFFFFFFFFFFFFFFFFFF AND PUSH1 0x80 DUP2 PUSH20 0xFFFFFFFFFFFFFFFFFFFFFFFFFFFFFFFFFFFFFFFF AND DUP2 MSTORE POP POP POP PUSH3 0x10E JUMP JUMPDEST PUSH1 0x0 DUP1 REVERT JUMPDEST PUSH1 0x0 PUSH20 0xFFFFFFFFFFFFFFFFFFFFFFFFFFFFFFFFFFFFFFFF DUP3 AND SWAP1 POP SWAP2 SWAP1 POP JUMP JUMPDEST PUSH1 0x0 PUSH3 0xA4 DUP3 PUSH3 0x77 JUMP JUMPDEST SWAP1 POP SWAP2 SWAP1 POP JUMP JUMPDEST PUSH3 0xB6 DUP2 PUSH3 0x97 JUMP JUMPDEST DUP2 EQ PUSH3 0xC2 JUMPI PUSH1 0x0 DUP1 REVERT JUMPDEST POP JUMP JUMPDEST PUSH1 0x0 DUP2 MLOAD SWAP1 POP PUSH3 0xD6 DUP2 PUSH3 0xAB JUMP JUMPDEST SWAP3 SWAP2 POP POP JUMP JUMPDEST PUSH1 0x0 PUSH1 0x20 DUP3 DUP5 SUB SLT ISZERO PUSH3 0xF5 JUMPI PUSH3 0xF4 PUSH3 0x72 JUMP JUMPDEST JUMPDEST PUSH1 0x0 PUSH3 0x105 DUP5 DUP3 DUP6 ADD PUSH3 0xC5 JUMP JUMPDEST SWAP2 POP POP SWAP3 SWAP2 POP POP JUMP JUMPDEST PUSH1 0x80 MLOAD PUSH2 0x1A91 PUSH3 0x146 PUSH1 0x0 CODECOPY PUSH1 0x0 DUP2 DUP2 PUSH2 0x3E5 ADD MSTORE DUP2 DUP2 PUSH2 0x92D ADD MSTORE DUP2 DUP2 PUSH2 0xD7C ADD MSTORE DUP2 DUP2 PUSH2 0xE94 ADD MSTORE PUSH2 0x100B ADD MSTORE PUSH2 0x1A91 PUSH1 0x0 RETURN INVALID PUSH1 0x80 PUSH1 0x40 MSTORE CALLVALUE DUP1 ISZERO PUSH2 0x10 JUMPI PUSH1 0x0 DUP1 REVERT JUMPDEST POP PUSH1 0x4 CALLDATASIZE LT PUSH2 0x9E JUMPI PUSH1 0x0 CALLDATALOAD PUSH1 0xE0 SHR DUP1 PUSH4 0x40E58EE5 GT PUSH2 0x66 JUMPI DUP1 PUSH4 0x40E58EE5 EQ PUSH2 0x14A JUMPI DUP1 PUSH4 0x711853AB EQ PUSH2 0x166 JUMPI DUP1 PUSH4 0xAA4FB63A EQ PUSH2 0x182 JUMPI DUP1 PUSH4 0xFC0C546A EQ PUSH2 0x1B2 JUMPI DUP1 PUSH4 0xFDE327BE EQ PUSH2 0x1D0 JUMPI PUSH2 0x9E JUMP JUMPDEST DUP1 PUSH4 0x6661ABD EQ PUSH2 0xA3 JUMPI DUP1 PUSH4 0x141961BC EQ PUSH2 0xC1 JUMPI DUP1 PUSH4 0x278ECDE1 EQ PUSH2 0xF6 JUMPI DUP1 PUSH4 0x2C63F146 EQ PUSH2 0x112 JUMPI DUP1 PUSH4 0x379607F5 EQ PUSH2 0x12E JUMPI JUMPDEST PUSH1 0x0 DUP1 REVERT JUMPDEST PUSH2 0xAB PUSH2 0x1EC JUMP JUMPDEST PUSH1 0x40 MLOAD PUSH2 0xB8 SWAP2 SWAP1 PUSH2 0x1117 JUMP JUMPDEST PUSH1 0x40 MLOAD DUP1 SWAP2 SUB SWAP1 RETURN JUMPDEST PUSH2 0xDB PUSH1 0x4 DUP1 CALLDATASIZE SUB DUP2 ADD SWAP1 PUSH2 0xD6 SWAP2 SWAP1 PUSH2 0x1163 JUMP JUMPDEST PUSH2 0x1F2 JUMP JUMPDEST PUSH1 0x40 MLOAD PUSH2 0xED SWAP7 SWAP6 SWAP5 SWAP4 SWAP3 SWAP2 SWAP1 PUSH2 0x120B JUMP JUMPDEST PUSH1 0x40 MLOAD DUP1 SWAP2 SUB SWAP1 RETURN JUMPDEST PUSH2 0x110 PUSH1 0x4 DUP1 CALLDATASIZE SUB DUP2 ADD SWAP1 PUSH2 0x10B SWAP2 SWAP1 PUSH2 0x1163 JUMP JUMPDEST PUSH2 0x27B JUMP JUMPDEST STOP JUMPDEST PUSH2 0x12C PUSH1 0x4 DUP1 CALLDATASIZE SUB DUP2 ADD SWAP1 PUSH2 0x127 SWAP2 SWAP1 PUSH2 0x1298 JUMP JUMPDEST PUSH2 0x4D6 JUMP JUMPDEST STOP JUMPDEST PUSH2 0x148 PUSH1 0x4 DUP1 CALLDATASIZE SUB DUP2 ADD SWAP1 PUSH2 0x143 SWAP2 SWAP1 PUSH2 0x1163 JUMP JUMPDEST PUSH2 0x76C JUMP JUMPDEST STOP JUMPDEST PUSH2 0x164 PUSH1 0x4 DUP1 CALLDATASIZE SUB DUP2 ADD SWAP1 PUSH2 0x15F SWAP2 SWAP1 PUSH2 0x1163 JUMP JUMPDEST PUSH2 0xA09 JUMP JUMPDEST STOP JUMPDEST PUSH2 0x180 PUSH1 0x4 DUP1 CALLDATASIZE SUB DUP2 ADD SWAP1 PUSH2 0x17B SWAP2 SWAP1 PUSH2 0x12EB JUMP JUMPDEST PUSH2 0xC84 JUMP JUMPDEST STOP JUMPDEST PUSH2 0x19C PUSH1 0x4 DUP1 CALLDATASIZE SUB DUP2 ADD SWAP1 PUSH2 0x197 SWAP2 SWAP1 PUSH2 0x1357 JUMP JUMPDEST PUSH2 0xE6D JUMP JUMPDEST PUSH1 0x40 MLOAD PUSH2 0x1A9 SWAP2 SWAP1 PUSH2 0x1117 JUMP JUMPDEST PUSH1 0x40 MLOAD DUP1 SWAP2 SUB SWAP1 RETURN JUMPDEST PUSH2 0x1BA PUSH2 0xE92 JUMP JUMPDEST PUSH1 0x40 MLOAD PUSH2 0x1C7 SWAP2 SWAP1 PUSH2 0x13F6 JUMP JUMPDEST PUSH1 0x40 MLOAD DUP1 SWAP2 SUB SWAP1 RETURN JUMPDEST PUSH2 0x1EA PUSH1 0x4 DUP1 CALLDATASIZE SUB DUP2 ADD SWAP1 PUSH2 0x1E5 SWAP2 SWAP1 PUSH2 0x12EB JUMP JUMPDEST PUSH2 0xEB6 JUMP JUMPDEST STOP JUMPDEST PUSH1 0x0 SLOAD DUP2 JUMP JUMPDEST PUSH1 0x1 PUSH1 0x20 MSTORE DUP1 PUSH1 0x0 MSTORE PUSH1 0x40 PUSH1 0x0 KECCAK256 PUSH1 0x0 SWAP2 POP SWAP1 POP DUP1 PUSH1 0x0 ADD PUSH1 0x0 SWAP1 SLOAD SWAP1 PUSH2 0x100 EXP SWAP1 DIV PUSH20 0xFFFFFFFFFFFFFFFFFFFFFFFFFFFFFFFFFFFFFFFF AND SWAP1 DUP1 PUSH1 0x1 ADD SLOAD SWAP1 DUP1 PUSH1 0x2 ADD SLOAD SWAP1 DUP1 PUSH1 0x3 ADD PUSH1 0x0 SWAP1 SLOAD SWAP1 PUSH2 0x100 EXP SWAP1 DIV PUSH4 0xFFFFFFFF AND SWAP1 DUP1 PUSH1 0x3 ADD PUSH1 0x4 SWAP1 SLOAD SWAP1 PUSH2 0x100 EXP SWAP1 DIV PUSH4 0xFFFFFFFF AND SWAP1 DUP1 PUSH1 0x3 ADD PUSH1 0x8 SWAP1 SLOAD SWAP1 PUSH2 0x100 EXP SWAP1 DIV PUSH1 0xFF AND SWAP1 POP DUP7 JUMP JUMPDEST PUSH1 0x0 PUSH1 0x1 PUSH1 0x0 DUP4 DUP2 MSTORE PUSH1 0x20 ADD SWAP1 DUP2 MSTORE PUSH1 0x20 ADD PUSH1 0x0 KECCAK256 SWAP1 POP DUP1 PUSH1 0x3 ADD PUSH1 0x4 SWAP1 SLOAD SWAP1 PUSH2 0x100 EXP SWAP1 DIV PUSH4 0xFFFFFFFF AND PUSH4 0xFFFFFFFF AND TIMESTAMP GT PUSH2 0x2EE JUMPI PUSH1 0x40 MLOAD PUSH32 0x8C379A000000000000000000000000000000000000000000000000000000000 DUP2 MSTORE PUSH1 0x4 ADD PUSH2 0x2E5 SWAP1 PUSH2 0x146E JUMP JUMPDEST PUSH1 0x40 MLOAD DUP1 SWAP2 SUB SWAP1 REVERT JUMPDEST DUP1 PUSH1 0x1 ADD SLOAD DUP2 PUSH1 0x2 ADD SLOAD LT PUSH2 0x338 JUMPI PUSH1 0x40 MLOAD PUSH32 0x8C379A000000000000000000000000000000000000000000000000000000000 DUP2 MSTORE PUSH1 0x4 ADD PUSH2 0x32F SWAP1 PUSH2 0x14DA JUMP JUMPDEST PUSH1 0x40 MLOAD DUP1 SWAP2 SUB SWAP1 REVERT JUMPDEST PUSH1 0x0 PUSH1 0x2 PUSH1 0x0 DUP5 DUP2 MSTORE PUSH1 0x20 ADD SWAP1 DUP2 MSTORE PUSH1 0x20 ADD PUSH1 0x0 KECCAK256 PUSH1 0x0 CALLER PUSH20 0xFFFFFFFFFFFFFFFFFFFFFFFFFFFFFFFFFFFFFFFF AND PUSH20 0xFFFFFFFFFFFFFFFFFFFFFFFFFFFFFFFFFFFFFFFF AND DUP2 MSTORE PUSH1 0x20 ADD SWAP1 DUP2 MSTORE PUSH1 0x20 ADD PUSH1 0x0 KECCAK256 SLOAD SWAP1 POP PUSH1 0x0 PUSH1 0x2 PUSH1 0x0 DUP6 DUP2 MSTORE PUSH1 0x20 ADD SWAP1 DUP2 MSTORE PUSH1 0x20 ADD PUSH1 0x0 KECCAK256 PUSH1 0x0 CALLER PUSH20 0xFFFFFFFFFFFFFFFFFFFFFFFFFFFFFFFFFFFFFFFF AND PUSH20 0xFFFFFFFFFFFFFFFFFFFFFFFFFFFFFFFFFFFFFFFF AND DUP2 MSTORE PUSH1 0x20 ADD SWAP1 DUP2 MSTORE PUSH1 0x20 ADD PUSH1 0x0 KECCAK256 DUP2 SWAP1 SSTORE POP PUSH32 0x0 PUSH20 0xFFFFFFFFFFFFFFFFFFFFFFFFFFFFFFFFFFFFFFFF AND PUSH4 0xA9059CBB CALLER DUP4 PUSH1 0x40 MLOAD DUP4 PUSH4 0xFFFFFFFF AND PUSH1 0xE0 SHL DUP2 MSTORE PUSH1 0x4 ADD PUSH2 0x43E SWAP3 SWAP2 SWAP1 PUSH2 0x14FA JUMP JUMPDEST PUSH1 0x20 PUSH1 0x40 MLOAD DUP1 DUP4 SUB DUP2 PUSH1 0x0 DUP8 GAS CALL ISZERO DUP1 ISZERO PUSH2 0x45D JUMPI RETURNDATASIZE PUSH1 0x0 DUP1 RETURNDATACOPY RETURNDATASIZE PUSH1 0x0 REVERT JUMPDEST POP POP POP POP PUSH1 0x40 MLOAD RETURNDATASIZE PUSH1 0x1F NOT PUSH1 0x1F DUP3 ADD AND DUP3 ADD DUP1 PUSH1 0x40 MSTORE POP DUP2 ADD SWAP1 PUSH2 0x481 SWAP2 SWAP1 PUSH2 0x154F JUMP JUMPDEST POP CALLER PUSH20 0xFFFFFFFFFFFFFFFFFFFFFFFFFFFFFFFFFFFFFFFF AND DUP4 PUSH32 0x21E12A7CAD0DA5928167E1084EA4D5FDF8D9AF66657A2543A9AC76A0CA081477 DUP4 PUSH1 0x40 MLOAD PUSH2 0x4C9 SWAP2 SWAP1 PUSH2 0x1117 JUMP JUMPDEST PUSH1 0x40 MLOAD DUP1 SWAP2 SUB SWAP1 LOG3 POP POP POP JUMP JUMPDEST TIMESTAMP DUP3 PUSH4 0xFFFFFFFF AND GT ISZERO PUSH2 0x51F JUMPI PUSH1 0x40 MLOAD PUSH32 0x8C379A000000000000000000000000000000000000000000000000000000000 DUP2 MSTORE PUSH1 0x4 ADD PUSH2 0x516 SWAP1 PUSH2 0x15C8 JUMP JUMPDEST PUSH1 0x40 MLOAD DUP1 SWAP2 SUB SWAP1 REVERT JUMPDEST DUP2 PUSH4 0xFFFFFFFF AND DUP2 PUSH4 0xFFFFFFFF AND GT ISZERO PUSH2 0x56E JUMPI PUSH1 0x40 MLOAD PUSH32 0x8C379A000000000000000000000000000000000000000000000000000000000 DUP2 MSTORE PUSH1 0x4 ADD PUSH2 0x565 SWAP1 PUSH2 0x1634 JUMP JUMPDEST PUSH1 0x40 MLOAD DUP1 SWAP2 SUB SWAP1 REVERT JUMPDEST PUSH3 0x76A700 TIMESTAMP PUSH2 0x57D SWAP2 SWAP1 PUSH2 0x1683 JUMP JUMPDEST DUP2 PUSH4 0xFFFFFFFF AND GT ISZERO PUSH2 0x5C5 JUMPI PUSH1 0x40 MLOAD PUSH32 0x8C379A000000000000000000000000000000000000000000000000000000000 DUP2 MSTORE PUSH1 0x4 ADD PUSH2 0x5BC SWAP1 PUSH2 0x1703 JUMP JUMPDEST PUSH1 0x40 MLOAD DUP1 SWAP2 SUB SWAP1 REVERT JUMPDEST PUSH1 0x1 PUSH1 0x0 DUP1 DUP3 DUP3 SLOAD PUSH2 0x5D7 SWAP2 SWAP1 PUSH2 0x1683 JUMP JUMPDEST SWAP3 POP POP DUP2 SWAP1 SSTORE POP PUSH1 0x40 MLOAD DUP1 PUSH1 0xC0 ADD PUSH1 0x40 MSTORE DUP1 CALLER PUSH20 0xFFFFFFFFFFFFFFFFFFFFFFFFFFFFFFFFFFFFFFFF AND DUP2 MSTORE PUSH1 0x20 ADD DUP5 DUP2 MSTORE PUSH1 0x20 ADD PUSH1 0x0 DUP2 MSTORE PUSH1 0x20 ADD DUP4 PUSH4 0xFFFFFFFF AND DUP2 MSTORE PUSH1 0x20 ADD DUP3 PUSH4 0xFFFFFFFF AND DUP2 MSTORE PUSH1 0x20 ADD PUSH1 0x0 ISZERO ISZERO DUP2 MSTORE POP PUSH1 0x1 PUSH1 0x0 DUP1 SLOAD DUP2 MSTORE PUSH1 0x20 ADD SWAP1 DUP2 MSTORE PUSH1 0x20 ADD PUSH1 0x0 KECCAK256 PUSH1 0x0 DUP3 ADD MLOAD DUP2 PUSH1 0x0 ADD PUSH1 0x0 PUSH2 0x100 EXP DUP2 SLOAD DUP2 PUSH20 0xFFFFFFFFFFFFFFFFFFFFFFFFFFFFFFFFFFFFFFFF MUL NOT AND SWAP1 DUP4 PUSH20 0xFFFFFFFFFFFFFFFFFFFFFFFFFFFFFFFFFFFFFFFF AND MUL OR SWAP1 SSTORE POP PUSH1 0x20 DUP3 ADD MLOAD DUP2 PUSH1 0x1 ADD SSTORE PUSH1 0x40 DUP3 ADD MLOAD DUP2 PUSH1 0x2 ADD SSTORE PUSH1 0x60 DUP3 ADD MLOAD DUP2 PUSH1 0x3 ADD PUSH1 0x0 PUSH2 0x100 EXP DUP2 SLOAD DUP2 PUSH4 0xFFFFFFFF MUL NOT AND SWAP1 DUP4 PUSH4 0xFFFFFFFF AND MUL OR SWAP1 SSTORE POP PUSH1 0x80 DUP3 ADD MLOAD DUP2 PUSH1 0x3 ADD PUSH1 0x4 PUSH2 0x100 EXP DUP2 SLOAD DUP2 PUSH4 0xFFFFFFFF MUL NOT AND SWAP1 DUP4 PUSH4 0xFFFFFFFF AND MUL OR SWAP1 SSTORE POP PUSH1 0xA0 DUP3 ADD MLOAD DUP2 PUSH1 0x3 ADD PUSH1 0x8 PUSH2 0x100 EXP DUP2 SLOAD DUP2 PUSH1 0xFF MUL NOT AND SWAP1 DUP4 ISZERO ISZERO MUL OR SWAP1 SSTORE POP SWAP1 POP POP CALLER PUSH20 0xFFFFFFFFFFFFFFFFFFFFFFFFFFFFFFFFFFFFFFFF AND PUSH32 0x601CD0D650B473037E838A2696D41E654433D065B3F56B28D1D3302E44A304F PUSH1 0x0 SLOAD DUP6 DUP6 DUP6 PUSH1 0x40 MLOAD PUSH2 0x75F SWAP5 SWAP4 SWAP3 SWAP2 SWAP1 PUSH2 0x1723 JUMP JUMPDEST PUSH1 0x40 MLOAD DUP1 SWAP2 SUB SWAP1 LOG2 POP POP POP JUMP JUMPDEST PUSH1 0x0 PUSH1 0x1 PUSH1 0x0 DUP4 DUP2 MSTORE PUSH1 0x20 ADD SWAP1 DUP2 MSTORE PUSH1 0x20 ADD PUSH1 0x0 KECCAK256 SWAP1 POP DUP1 PUSH1 0x0 ADD PUSH1 0x0 SWAP1 SLOAD SWAP1 PUSH2 0x100 EXP SWAP1 DIV PUSH20 0xFFFFFFFFFFFFFFFFFFFFFFFFFFFFFFFFFFFFFFFF AND PUSH20 0xFFFFFFFFFFFFFFFFFFFFFFFFFFFFFFFFFFFFFFFF AND CALLER PUSH20 0xFFFFFFFFFFFFFFFFFFFFFFFFFFFFFFFFFFFFFFFF AND EQ PUSH2 0x815 JUMPI PUSH1 0x40 MLOAD PUSH32 0x8C379A000000000000000000000000000000000000000000000000000000000 DUP2 MSTORE PUSH1 0x4 ADD PUSH2 0x80C SWAP1 PUSH2 0x17B4 JUMP JUMPDEST PUSH1 0x40 MLOAD DUP1 SWAP2 SUB SWAP1 REVERT JUMPDEST DUP1 PUSH1 0x3 ADD PUSH1 0x4 SWAP1 SLOAD SWAP1 PUSH2 0x100 EXP SWAP1 DIV PUSH4 0xFFFFFFFF AND PUSH4 0xFFFFFFFF AND TIMESTAMP GT PUSH2 0x871 JUMPI PUSH1 0x40 MLOAD PUSH32 0x8C379A000000000000000000000000000000000000000000000000000000000 DUP2 MSTORE PUSH1 0x4 ADD PUSH2 0x868 SWAP1 PUSH2 0x146E JUMP JUMPDEST PUSH1 0x40 MLOAD DUP1 SWAP2 SUB SWAP1 REVERT JUMPDEST DUP1 PUSH1 0x1 ADD SLOAD DUP2 PUSH1 0x2 ADD SLOAD LT ISZERO PUSH2 0x8BC JUMPI PUSH1 0x40 MLOAD PUSH32 0x8C379A000000000000000000000000000000000000000000000000000000000 DUP2 MSTORE PUSH1 0x4 ADD PUSH2 0x8B3 SWAP1 PUSH2 0x1820 JUMP JUMPDEST PUSH1 0x40 MLOAD DUP1 SWAP2 SUB SWAP1 REVERT JUMPDEST DUP1 PUSH1 0x3 ADD PUSH1 0x8 SWAP1 SLOAD SWAP1 PUSH2 0x100 EXP SWAP1 DIV PUSH1 0xFF AND ISZERO PUSH2 0x90E JUMPI PUSH1 0x40 MLOAD PUSH32 0x8C379A000000000000000000000000000000000000000000000000000000000 DUP2 MSTORE PUSH1 0x4 ADD PUSH2 0x905 SWAP1 PUSH2 0x188C JUMP JUMPDEST PUSH1 0x40 MLOAD DUP1 SWAP2 SUB SWAP1 REVERT JUMPDEST PUSH1 0x1 DUP2 PUSH1 0x3 ADD PUSH1 0x8 PUSH2 0x100 EXP DUP2 SLOAD DUP2 PUSH1 0xFF MUL NOT AND SWAP1 DUP4 ISZERO ISZERO MUL OR SWAP1 SSTORE POP PUSH32 0x0 PUSH20 0xFFFFFFFFFFFFFFFFFFFFFFFFFFFFFFFFFFFFFFFF AND PUSH4 0xA9059CBB CALLER DUP4 PUSH1 0x2 ADD SLOAD PUSH1 0x40 MLOAD DUP4 PUSH4 0xFFFFFFFF AND PUSH1 0xE0 SHL DUP2 MSTORE PUSH1 0x4 ADD PUSH2 0x98A SWAP3 SWAP2 SWAP1 PUSH2 0x14FA JUMP JUMPDEST PUSH1 0x20 PUSH1 0x40 MLOAD DUP1 DUP4 SUB DUP2 PUSH1 0x0 DUP8 GAS CALL ISZERO DUP1 ISZERO PUSH2 0x9A9 JUMPI RETURNDATASIZE PUSH1 0x0 DUP1 RETURNDATACOPY RETURNDATASIZE PUSH1 0x0 REVERT JUMPDEST POP POP POP POP PUSH1 0x40 MLOAD RETURNDATASIZE PUSH1 0x1F NOT PUSH1 0x1F DUP3 ADD AND DUP3 ADD DUP1 PUSH1 0x40 MSTORE POP DUP2 ADD SWAP1 PUSH2 0x9CD SWAP2 SWAP1 PUSH2 0x154F JUMP JUMPDEST POP PUSH32 0x7BB2B3C10797BACCB6F8C4791F1EDD6CA2F0D028EE0EDA64B01A9A57E3A653F7 DUP3 PUSH1 0x40 MLOAD PUSH2 0x9FD SWAP2 SWAP1 PUSH2 0x1117 JUMP JUMPDEST PUSH1 0x40 MLOAD DUP1 SWAP2 SUB SWAP1 LOG1 POP POP JUMP JUMPDEST PUSH1 0x0 PUSH1 0x1 PUSH1 0x0 DUP4 DUP2 MSTORE PUSH1 0x20 ADD SWAP1 DUP2 MSTORE PUSH1 0x20 ADD PUSH1 0x0 KECCAK256 PUSH1 0x40 MLOAD DUP1 PUSH1 0xC0 ADD PUSH1 0x40 MSTORE SWAP1 DUP2 PUSH1 0x0 DUP3 ADD PUSH1 0x0 SWAP1 SLOAD SWAP1 PUSH2 0x100 EXP SWAP1 DIV PUSH20 0xFFFFFFFFFFFFFFFFFFFFFFFFFFFFFFFFFFFFFFFF AND PUSH20 0xFFFFFFFFFFFFFFFFFFFFFFFFFFFFFFFFFFFFFFFF AND PUSH20 0xFFFFFFFFFFFFFFFFFFFFFFFFFFFFFFFFFFFFFFFF AND DUP2 MSTORE PUSH1 0x20 ADD PUSH1 0x1 DUP3 ADD SLOAD DUP2 MSTORE PUSH1 0x20 ADD PUSH1 0x2 DUP3 ADD SLOAD DUP2 MSTORE PUSH1 0x20 ADD PUSH1 0x3 DUP3 ADD PUSH1 0x0 SWAP1 SLOAD SWAP1 PUSH2 0x100 EXP SWAP1 DIV PUSH4 0xFFFFFFFF AND PUSH4 0xFFFFFFFF AND PUSH4 0xFFFFFFFF AND DUP2 MSTORE PUSH1 0x20 ADD PUSH1 0x3 DUP3 ADD PUSH1 0x4 SWAP1 SLOAD SWAP1 PUSH2 0x100 EXP SWAP1 DIV PUSH4 0xFFFFFFFF AND PUSH4 0xFFFFFFFF AND PUSH4 0xFFFFFFFF AND DUP2 MSTORE PUSH1 0x20 ADD PUSH1 0x3 DUP3 ADD PUSH1 0x8 SWAP1 SLOAD SWAP1 PUSH2 0x100 EXP SWAP1 DIV PUSH1 0xFF AND ISZERO ISZERO ISZERO ISZERO DUP2 MSTORE POP POP SWAP1 POP DUP1 PUSH1 0x0 ADD MLOAD PUSH20 0xFFFFFFFFFFFFFFFFFFFFFFFFFFFFFFFFFFFFFFFF AND CALLER PUSH20 0xFFFFFFFFFFFFFFFFFFFFFFFFFFFFFFFFFFFFFFFF AND EQ PUSH2 0xB6E JUMPI PUSH1 0x40 MLOAD PUSH32 0x8C379A000000000000000000000000000000000000000000000000000000000 DUP2 MSTORE PUSH1 0x4 ADD PUSH2 0xB65 SWAP1 PUSH2 0x17B4 JUMP JUMPDEST PUSH1 0x40 MLOAD DUP1 SWAP2 SUB SWAP1 REVERT JUMPDEST DUP1 PUSH1 0x60 ADD MLOAD PUSH4 0xFFFFFFFF AND TIMESTAMP LT PUSH2 0xBBA JUMPI PUSH1 0x40 MLOAD PUSH32 0x8C379A000000000000000000000000000000000000000000000000000000000 DUP2 MSTORE PUSH1 0x4 ADD PUSH2 0xBB1 SWAP1 PUSH2 0x18F8 JUMP JUMPDEST PUSH1 0x40 MLOAD DUP1 SWAP2 SUB SWAP1 REVERT JUMPDEST PUSH1 0x1 PUSH1 0x0 DUP4 DUP2 MSTORE PUSH1 0x20 ADD SWAP1 DUP2 MSTORE PUSH1 0x20 ADD PUSH1 0x0 KECCAK256 PUSH1 0x0 DUP1 DUP3 ADD PUSH1 0x0 PUSH2 0x100 EXP DUP2 SLOAD SWAP1 PUSH20 0xFFFFFFFFFFFFFFFFFFFFFFFFFFFFFFFFFFFFFFFF MUL NOT AND SWAP1 SSTORE PUSH1 0x1 DUP3 ADD PUSH1 0x0 SWAP1 SSTORE PUSH1 0x2 DUP3 ADD PUSH1 0x0 SWAP1 SSTORE PUSH1 0x3 DUP3 ADD PUSH1 0x0 PUSH2 0x100 EXP DUP2 SLOAD SWAP1 PUSH4 0xFFFFFFFF MUL NOT AND SWAP1 SSTORE PUSH1 0x3 DUP3 ADD PUSH1 0x4 PUSH2 0x100 EXP DUP2 SLOAD SWAP1 PUSH4 0xFFFFFFFF MUL NOT AND SWAP1 SSTORE PUSH1 0x3 DUP3 ADD PUSH1 0x8 PUSH2 0x100 EXP DUP2 SLOAD SWAP1 PUSH1 0xFF MUL NOT AND SWAP1 SSTORE POP POP PUSH32 0x8BF30E7FF26833413BE5F69E1D373744864D600B664204B4A2F9844A8EEDB9ED DUP3 PUSH1 0x40 MLOAD PUSH2 0xC78 SWAP2 SWAP1 PUSH2 0x1117 JUMP JUMPDEST PUSH1 0x40 MLOAD DUP1 SWAP2 SUB SWAP1 LOG1 POP POP JUMP JUMPDEST PUSH1 0x0 PUSH1 0x1 PUSH1 0x0 DUP5 DUP2 MSTORE PUSH1 0x20 ADD SWAP1 DUP2 MSTORE PUSH1 0x20 ADD PUSH1 0x0 KECCAK256 SWAP1 POP DUP1 PUSH1 0x3 ADD PUSH1 0x4 SWAP1 SLOAD SWAP1 PUSH2 0x100 EXP SWAP1 DIV PUSH4 0xFFFFFFFF AND PUSH4 0xFFFFFFFF AND TIMESTAMP GT ISZERO PUSH2 0xCF8 JUMPI PUSH1 0x40 MLOAD PUSH32 0x8C379A000000000000000000000000000000000000000000000000000000000 DUP2 MSTORE PUSH1 0x4 ADD PUSH2 0xCEF SWAP1 PUSH2 0x1964 JUMP JUMPDEST PUSH1 0x40 MLOAD DUP1 SWAP2 SUB SWAP1 REVERT JUMPDEST DUP2 DUP2 PUSH1 0x2 ADD PUSH1 0x0 DUP3 DUP3 SLOAD PUSH2 0xD0C SWAP2 SWAP1 PUSH2 0x1984 JUMP JUMPDEST SWAP3 POP POP DUP2 SWAP1 SSTORE POP DUP2 PUSH1 0x2 PUSH1 0x0 DUP6 DUP2 MSTORE PUSH1 0x20 ADD SWAP1 DUP2 MSTORE PUSH1 0x20 ADD PUSH1 0x0 KECCAK256 PUSH1 0x0 CALLER PUSH20 0xFFFFFFFFFFFFFFFFFFFFFFFFFFFFFFFFFFFFFFFF AND PUSH20 0xFFFFFFFFFFFFFFFFFFFFFFFFFFFFFFFFFFFFFFFF AND DUP2 MSTORE PUSH1 0x20 ADD SWAP1 DUP2 MSTORE PUSH1 0x20 ADD PUSH1 0x0 KECCAK256 PUSH1 0x0 DUP3 DUP3 SLOAD PUSH2 0xD73 SWAP2 SWAP1 PUSH2 0x1984 JUMP JUMPDEST SWAP3 POP POP DUP2 SWAP1 SSTORE POP PUSH32 0x0 PUSH20 0xFFFFFFFFFFFFFFFFFFFFFFFFFFFFFFFFFFFFFFFF AND PUSH4 0xA9059CBB CALLER DUP5 PUSH1 0x40 MLOAD DUP4 PUSH4 0xFFFFFFFF AND PUSH1 0xE0 SHL DUP2 MSTORE PUSH1 0x4 ADD PUSH2 0xDD5 SWAP3 SWAP2 SWAP1 PUSH2 0x14FA JUMP JUMPDEST PUSH1 0x20 PUSH1 0x40 MLOAD DUP1 DUP4 SUB DUP2 PUSH1 0x0 DUP8 GAS CALL ISZERO DUP1 ISZERO PUSH2 0xDF4 JUMPI RETURNDATASIZE PUSH1 0x0 DUP1 RETURNDATACOPY RETURNDATASIZE PUSH1 0x0 REVERT JUMPDEST POP POP POP POP PUSH1 0x40 MLOAD RETURNDATASIZE PUSH1 0x1F NOT PUSH1 0x1F DUP3 ADD AND DUP3 ADD DUP1 PUSH1 0x40 MSTORE POP DUP2 ADD SWAP1 PUSH2 0xE18 SWAP2 SWAP1 PUSH2 0x154F JUMP JUMPDEST POP CALLER PUSH20 0xFFFFFFFFFFFFFFFFFFFFFFFFFFFFFFFFFFFFFFFF AND DUP4 PUSH32 0x2EEEAB891B26A214D1B25749F88A406BDEA852BD8C9BFDA977E0EF8114C180BA DUP5 PUSH1 0x40 MLOAD PUSH2 0xE60 SWAP2 SWAP1 PUSH2 0x1117 JUMP JUMPDEST PUSH1 0x40 MLOAD DUP1 SWAP2 SUB SWAP1 LOG3 POP POP POP JUMP JUMPDEST PUSH1 0x2 PUSH1 0x20 MSTORE DUP2 PUSH1 0x0 MSTORE PUSH1 0x40 PUSH1 0x0 KECCAK256 PUSH1 0x20 MSTORE DUP1 PUSH1 0x0 MSTORE PUSH1 0x40 PUSH1 0x0 KECCAK256 PUSH1 0x0 SWAP2 POP SWAP2 POP POP SLOAD DUP2 JUMP JUMPDEST PUSH32 0x0 DUP2 JUMP JUMPDEST PUSH1 0x0 PUSH1 0x1 PUSH1 0x0 DUP5 DUP2 MSTORE PUSH1 0x20 ADD SWAP1 DUP2 MSTORE PUSH1 0x20 ADD PUSH1 0x0 KECCAK256 SWAP1 POP DUP1 PUSH1 0x3 ADD PUSH1 0x0 SWAP1 SLOAD SWAP1 PUSH2 0x100 EXP SWAP1 DIV PUSH4 0xFFFFFFFF AND PUSH4 0xFFFFFFFF AND TIMESTAMP LT ISZERO PUSH2 0xF2A JUMPI PUSH1 0x40 MLOAD PUSH32 0x8C379A000000000000000000000000000000000000000000000000000000000 DUP2 MSTORE PUSH1 0x4 ADD PUSH2 0xF21 SWAP1 PUSH2 0x1A04 JUMP JUMPDEST PUSH1 0x40 MLOAD DUP1 SWAP2 SUB SWAP1 REVERT JUMPDEST DUP1 PUSH1 0x3 ADD PUSH1 0x4 SWAP1 SLOAD SWAP1 PUSH2 0x100 EXP SWAP1 DIV PUSH4 0xFFFFFFFF AND PUSH4 0xFFFFFFFF AND TIMESTAMP GT ISZERO PUSH2 0xF87 JUMPI PUSH1 0x40 MLOAD PUSH32 0x8C379A000000000000000000000000000000000000000000000000000000000 DUP2 MSTORE PUSH1 0x4 ADD PUSH2 0xF7E SWAP1 PUSH2 0x1964 JUMP JUMPDEST PUSH1 0x40 MLOAD DUP1 SWAP2 SUB SWAP1 REVERT JUMPDEST DUP2 DUP2 PUSH1 0x2 ADD PUSH1 0x0 DUP3 DUP3 SLOAD PUSH2 0xF9B SWAP2 SWAP1 PUSH2 0x1683 JUMP JUMPDEST SWAP3 POP POP DUP2 SWAP1 SSTORE POP DUP2 PUSH1 0x2 PUSH1 0x0 DUP6 DUP2 MSTORE PUSH1 0x20 ADD SWAP1 DUP2 MSTORE PUSH1 0x20 ADD PUSH1 0x0 KECCAK256 PUSH1 0x0 CALLER PUSH20 0xFFFFFFFFFFFFFFFFFFFFFFFFFFFFFFFFFFFFFFFF AND PUSH20 0xFFFFFFFFFFFFFFFFFFFFFFFFFFFFFFFFFFFFFFFF AND DUP2 MSTORE PUSH1 0x20 ADD SWAP1 DUP2 MSTORE PUSH1 0x20 ADD PUSH1 0x0 KECCAK256 PUSH1 0x0 DUP3 DUP3 SLOAD PUSH2 0x1002 SWAP2 SWAP1 PUSH2 0x1683 JUMP JUMPDEST SWAP3 POP POP DUP2 SWAP1 SSTORE POP PUSH32 0x0 PUSH20 0xFFFFFFFFFFFFFFFFFFFFFFFFFFFFFFFFFFFFFFFF AND PUSH4 0x23B872DD CALLER ADDRESS DUP6 PUSH1 0x40 MLOAD DUP5 PUSH4 0xFFFFFFFF AND PUSH1 0xE0 SHL DUP2 MSTORE PUSH1 0x4 ADD PUSH2 0x1066 SWAP4 SWAP3 SWAP2 SWAP1 PUSH2 0x1A24 JUMP JUMPDEST PUSH1 0x20 PUSH1 0x40 MLOAD DUP1 DUP4 SUB DUP2 PUSH1 0x0 DUP8 GAS CALL ISZERO DUP1 ISZERO PUSH2 0x1085 JUMPI RETURNDATASIZE PUSH1 0x0 DUP1 RETURNDATACOPY RETURNDATASIZE PUSH1 0x0 REVERT JUMPDEST POP POP POP POP PUSH1 0x40 MLOAD RETURNDATASIZE PUSH1 0x1F NOT PUSH1 0x1F DUP3 ADD AND DUP3 ADD DUP1 PUSH1 0x40 MSTORE POP DUP2 ADD SWAP1 PUSH2 0x10A9 SWAP2 SWAP1 PUSH2 0x154F JUMP JUMPDEST POP CALLER PUSH20 0xFFFFFFFFFFFFFFFFFFFFFFFFFFFFFFFFFFFFFFFF AND DUP4 PUSH32 0x6BDB975DF800A73232998E71ED585D536222F1DFEAA622D7F62A23ADA686C82 DUP5 PUSH1 0x40 MLOAD PUSH2 0x10F1 SWAP2 SWAP1 PUSH2 0x1117 JUMP JUMPDEST PUSH1 0x40 MLOAD DUP1 SWAP2 SUB SWAP1 LOG3 POP POP POP JUMP JUMPDEST PUSH1 0x0 DUP2 SWAP1 POP SWAP2 SWAP1 POP JUMP JUMPDEST PUSH2 0x1111 DUP2 PUSH2 0x10FE JUMP JUMPDEST DUP3 MSTORE POP POP JUMP JUMPDEST PUSH1 0x0 PUSH1 0x20 DUP3 ADD SWAP1 POP PUSH2 0x112C PUSH1 0x0 DUP4 ADD DUP5 PUSH2 0x1108 JUMP JUMPDEST SWAP3 SWAP2 POP POP JUMP JUMPDEST PUSH1 0x0 DUP1 REVERT JUMPDEST PUSH2 0x1140 DUP2 PUSH2 0x10FE JUMP JUMPDEST DUP2 EQ PUSH2 0x114B JUMPI PUSH1 0x0 DUP1 REVERT JUMPDEST POP JUMP JUMPDEST PUSH1 0x0 DUP2 CALLDATALOAD SWAP1 POP PUSH2 0x115D DUP2 PUSH2 0x1137 JUMP JUMPDEST SWAP3 SWAP2 POP POP JUMP JUMPDEST PUSH1 0x0 PUSH1 0x20 DUP3 DUP5 SUB SLT ISZERO PUSH2 0x1179 JUMPI PUSH2 0x1178 PUSH2 0x1132 JUMP JUMPDEST JUMPDEST PUSH1 0x0 PUSH2 0x1187 DUP5 DUP3 DUP6 ADD PUSH2 0x114E JUMP JUMPDEST SWAP2 POP POP SWAP3 SWAP2 POP POP JUMP JUMPDEST PUSH1 0x0 PUSH20 0xFFFFFFFFFFFFFFFFFFFFFFFFFFFFFFFFFFFFFFFF DUP3 AND SWAP1 POP SWAP2 SWAP1 POP JUMP JUMPDEST PUSH1 0x0 PUSH2 0x11BB DUP3 PUSH2 0x1190 JUMP JUMPDEST SWAP1 POP SWAP2 SWAP1 POP JUMP JUMPDEST PUSH2 0x11CB DUP2 PUSH2 0x11B0 JUMP JUMPDEST DUP3 MSTORE POP POP JUMP JUMPDEST PUSH1 0x0 PUSH4 0xFFFFFFFF DUP3 AND SWAP1 POP SWAP2 SWAP1 POP JUMP JUMPDEST PUSH2 0x11EA DUP2 PUSH2 0x11D1 JUMP JUMPDEST DUP3 MSTORE POP POP JUMP JUMPDEST PUSH1 0x0 DUP2 ISZERO ISZERO SWAP1 POP SWAP2 SWAP1 POP JUMP JUMPDEST PUSH2 0x1205 DUP2 PUSH2 0x11F0 JUMP JUMPDEST DUP3 MSTORE POP POP JUMP JUMPDEST PUSH1 0x0 PUSH1 0xC0 DUP3 ADD SWAP1 POP PUSH2 0x1220 PUSH1 0x0 DUP4 ADD DUP10 PUSH2 0x11C2 JUMP JUMPDEST PUSH2 0x122D PUSH1 0x20 DUP4 ADD DUP9 PUSH2 0x1108 JUMP JUMPDEST PUSH2 0x123A PUSH1 0x40 DUP4 ADD DUP8 PUSH2 0x1108 JUMP JUMPDEST PUSH2 0x1247 PUSH1 0x60 DUP4 ADD DUP7 PUSH2 0x11E1 JUMP JUMPDEST PUSH2 0x1254 PUSH1 0x80 DUP4 ADD DUP6 PUSH2 0x11E1 JUMP JUMPDEST PUSH2 0x1261 PUSH1 0xA0 DUP4 ADD DUP5 PUSH2 0x11FC JUMP JUMPDEST SWAP8 SWAP7 POP POP POP POP POP POP POP JUMP JUMPDEST PUSH2 0x1275 DUP2 PUSH2 0x11D1 JUMP JUMPDEST DUP2 EQ PUSH2 0x1280 JUMPI PUSH1 0x0 DUP1 REVERT JUMPDEST POP JUMP JUMPDEST PUSH1 0x0 DUP2 CALLDATALOAD SWAP1 POP PUSH2 0x1292 DUP2 PUSH2 0x126C JUMP JUMPDEST SWAP3 SWAP2 POP POP JUMP JUMPDEST PUSH1 0x0 DUP1 PUSH1 0x0 PUSH1 0x60 DUP5 DUP7 SUB SLT ISZERO PUSH2 0x12B1 JUMPI PUSH2 0x12B0 PUSH2 0x1132 JUMP JUMPDEST JUMPDEST PUSH1 0x0 PUSH2 0x12BF DUP7 DUP3 DUP8 ADD PUSH2 0x114E JUMP JUMPDEST SWAP4 POP POP PUSH1 0x20 PUSH2 0x12D0 DUP7 DUP3 DUP8 ADD PUSH2 0x1283 JUMP JUMPDEST SWAP3 POP POP PUSH1 0x40 PUSH2 0x12E1 DUP7 DUP3 DUP8 ADD PUSH2 0x1283 JUMP JUMPDEST SWAP2 POP POP SWAP3 POP SWAP3 POP SWAP3 JUMP JUMPDEST PUSH1 0x0 DUP1 PUSH1 0x40 DUP4 DUP6 SUB SLT ISZERO PUSH2 0x1302 JUMPI PUSH2 0x1301 PUSH2 0x1132 JUMP JUMPDEST JUMPDEST PUSH1 0x0 PUSH2 0x1310 DUP6 DUP3 DUP7 ADD PUSH2 0x114E JUMP JUMPDEST SWAP3 POP POP PUSH1 0x20 PUSH2 0x1321 DUP6 DUP3 DUP7 ADD PUSH2 0x114E JUMP JUMPDEST SWAP2 POP POP SWAP3 POP SWAP3 SWAP1 POP JUMP JUMPDEST PUSH2 0x1334 DUP2 PUSH2 0x11B0 JUMP JUMPDEST DUP2 EQ PUSH2 0x133F JUMPI PUSH1 0x0 DUP1 REVERT JUMPDEST POP JUMP JUMPDEST PUSH1 0x0 DUP2 CALLDATALOAD SWAP1 POP PUSH2 0x1351 DUP2 PUSH2 0x132B JUMP JUMPDEST SWAP3 SWAP2 POP POP JUMP JUMPDEST PUSH1 0x0 DUP1 PUSH1 0x40 DUP4 DUP6 SUB SLT ISZERO PUSH2 0x136E JUMPI PUSH2 0x136D PUSH2 0x1132 JUMP JUMPDEST JUMPDEST PUSH1 0x0 PUSH2 0x137C DUP6 DUP3 DUP7 ADD PUSH2 0x114E JUMP JUMPDEST SWAP3 POP POP PUSH1 0x20 PUSH2 0x138D DUP6 DUP3 DUP7 ADD PUSH2 0x1342 JUMP JUMPDEST SWAP2 POP POP SWAP3 POP SWAP3 SWAP1 POP JUMP JUMPDEST PUSH1 0x0 DUP2 SWAP1 POP SWAP2 SWAP1 POP JUMP JUMPDEST PUSH1 0x0 PUSH2 0x13BC PUSH2 0x13B7 PUSH2 0x13B2 DUP5 PUSH2 0x1190 JUMP JUMPDEST PUSH2 0x1397 JUMP JUMPDEST PUSH2 0x1190 JUMP JUMPDEST SWAP1 POP SWAP2 SWAP1 POP JUMP JUMPDEST PUSH1 0x0 PUSH2 0x13CE DUP3 PUSH2 0x13A1 JUMP JUMPDEST SWAP1 POP SWAP2 SWAP1 POP JUMP JUMPDEST PUSH1 0x0 PUSH2 0x13E0 DUP3 PUSH2 0x13C3 JUMP JUMPDEST SWAP1 POP SWAP2 SWAP1 POP JUMP JUMPDEST PUSH2 0x13F0 DUP2 PUSH2 0x13D5 JUMP JUMPDEST DUP3 MSTORE POP POP JUMP JUMPDEST PUSH1 0x0 PUSH1 0x20 DUP3 ADD SWAP1 POP PUSH2 0x140B PUSH1 0x0 DUP4 ADD DUP5 PUSH2 0x13E7 JUMP JUMPDEST SWAP3 SWAP2 POP POP JUMP JUMPDEST PUSH1 0x0 DUP3 DUP3 MSTORE PUSH1 0x20 DUP3 ADD SWAP1 POP SWAP3 SWAP2 POP POP JUMP JUMPDEST PUSH32 0x6E6F7420656E6465640000000000000000000000000000000000000000000000 PUSH1 0x0 DUP3 ADD MSTORE POP JUMP JUMPDEST PUSH1 0x0 PUSH2 0x1458 PUSH1 0x9 DUP4 PUSH2 0x1411 JUMP JUMPDEST SWAP2 POP PUSH2 0x1463 DUP3 PUSH2 0x1422 JUMP JUMPDEST PUSH1 0x20 DUP3 ADD SWAP1 POP SWAP2 SWAP1 POP JUMP JUMPDEST PUSH1 0x0 PUSH1 0x20 DUP3 ADD SWAP1 POP DUP2 DUP2 SUB PUSH1 0x0 DUP4 ADD MSTORE PUSH2 0x1487 DUP2 PUSH2 0x144B JUMP JUMPDEST SWAP1 POP SWAP2 SWAP1 POP JUMP JUMPDEST PUSH32 0x706C6564676564203E3D20676F616C0000000000000000000000000000000000 PUSH1 0x0 DUP3 ADD MSTORE POP JUMP JUMPDEST PUSH1 0x0 PUSH2 0x14C4 PUSH1 0xF DUP4 PUSH2 0x1411 JUMP JUMPDEST SWAP2 POP PUSH2 0x14CF DUP3 PUSH2 0x148E JUMP JUMPDEST PUSH1 0x20 DUP3 ADD SWAP1 POP SWAP2 SWAP1 POP JUMP JUMPDEST PUSH1 0x0 PUSH1 0x20 DUP3 ADD SWAP1 POP DUP2 DUP2 SUB PUSH1 0x0 DUP4 ADD MSTORE PUSH2 0x14F3 DUP2 PUSH2 0x14B7 JUMP JUMPDEST SWAP1 POP SWAP2 SWAP1 POP JUMP JUMPDEST PUSH1 0x0 PUSH1 0x40 DUP3 ADD SWAP1 POP PUSH2 0x150F PUSH1 0x0 DUP4 ADD DUP6 PUSH2 0x11C2 JUMP JUMPDEST PUSH2 0x151C PUSH1 0x20 DUP4 ADD DUP5 PUSH2 0x1108 JUMP JUMPDEST SWAP4 SWAP3 POP POP POP JUMP JUMPDEST PUSH2 0x152C DUP2 PUSH2 0x11F0 JUMP JUMPDEST DUP2 EQ PUSH2 0x1537 JUMPI PUSH1 0x0 DUP1 REVERT JUMPDEST POP JUMP JUMPDEST PUSH1 0x0 DUP2 MLOAD SWAP1 POP PUSH2 0x1549 DUP2 PUSH2 0x1523 JUMP JUMPDEST SWAP3 SWAP2 POP POP JUMP JUMPDEST PUSH1 0x0 PUSH1 0x20 DUP3 DUP5 SUB SLT ISZERO PUSH2 0x1565 JUMPI PUSH2 0x1564 PUSH2 0x1132 JUMP JUMPDEST JUMPDEST PUSH1 0x0 PUSH2 0x1573 DUP5 DUP3 DUP6 ADD PUSH2 0x153A JUMP JUMPDEST SWAP2 POP POP SWAP3 SWAP2 POP POP JUMP JUMPDEST PUSH32 0x7374617274206174203C206E6F77000000000000000000000000000000000000 PUSH1 0x0 DUP3 ADD MSTORE POP JUMP JUMPDEST PUSH1 0x0 PUSH2 0x15B2 PUSH1 0xE DUP4 PUSH2 0x1411 JUMP JUMPDEST SWAP2 POP PUSH2 0x15BD DUP3 PUSH2 0x157C JUMP JUMPDEST PUSH1 0x20 DUP3 ADD SWAP1 POP SWAP2 SWAP1 POP JUMP JUMPDEST PUSH1 0x0 PUSH1 0x20 DUP3 ADD SWAP1 POP DUP2 DUP2 SUB PUSH1 0x0 DUP4 ADD MSTORE PUSH2 0x15E1 DUP2 PUSH2 0x15A5 JUMP JUMPDEST SWAP1 POP SWAP2 SWAP1 POP JUMP JUMPDEST PUSH32 0x656E64206174203C207374617274206174000000000000000000000000000000 PUSH1 0x0 DUP3 ADD MSTORE POP JUMP JUMPDEST PUSH1 0x0 PUSH2 0x161E PUSH1 0x11 DUP4 PUSH2 0x1411 JUMP JUMPDEST SWAP2 POP PUSH2 0x1629 DUP3 PUSH2 0x15E8 JUMP JUMPDEST PUSH1 0x20 DUP3 ADD SWAP1 POP SWAP2 SWAP1 POP JUMP JUMPDEST PUSH1 0x0 PUSH1 0x20 DUP3 ADD SWAP1 POP DUP2 DUP2 SUB PUSH1 0x0 DUP4 ADD MSTORE PUSH2 0x164D DUP2 PUSH2 0x1611 JUMP JUMPDEST SWAP1 POP SWAP2 SWAP1 POP JUMP JUMPDEST PUSH32 0x4E487B7100000000000000000000000000000000000000000000000000000000 PUSH1 0x0 MSTORE PUSH1 0x11 PUSH1 0x4 MSTORE PUSH1 0x24 PUSH1 0x0 REVERT JUMPDEST PUSH1 0x0 PUSH2 0x168E DUP3 PUSH2 0x10FE JUMP JUMPDEST SWAP2 POP PUSH2 0x1699 DUP4 PUSH2 0x10FE JUMP JUMPDEST SWAP3 POP DUP3 DUP3 ADD SWAP1 POP DUP1 DUP3 GT ISZERO PUSH2 0x16B1 JUMPI PUSH2 0x16B0 PUSH2 0x1654 JUMP JUMPDEST JUMPDEST SWAP3 SWAP2 POP POP JUMP JUMPDEST PUSH32 0x656E64206174203E206D6178206475726174696F6E0000000000000000000000 PUSH1 0x0 DUP3 ADD MSTORE POP JUMP JUMPDEST PUSH1 0x0 PUSH2 0x16ED PUSH1 0x15 DUP4 PUSH2 0x1411 JUMP JUMPDEST SWAP2 POP PUSH2 0x16F8 DUP3 PUSH2 0x16B7 JUMP JUMPDEST PUSH1 0x20 DUP3 ADD SWAP1 POP SWAP2 SWAP1 POP JUMP JUMPDEST PUSH1 0x0 PUSH1 0x20 DUP3 ADD SWAP1 POP DUP2 DUP2 SUB PUSH1 0x0 DUP4 ADD MSTORE PUSH2 0x171C DUP2 PUSH2 0x16E0 JUMP JUMPDEST SWAP1 POP SWAP2 SWAP1 POP JUMP JUMPDEST PUSH1 0x0 PUSH1 0x80 DUP3 ADD SWAP1 POP PUSH2 0x1738 PUSH1 0x0 DUP4 ADD DUP8 PUSH2 0x1108 JUMP JUMPDEST PUSH2 0x1745 PUSH1 0x20 DUP4 ADD DUP7 PUSH2 0x1108 JUMP JUMPDEST PUSH2 0x1752 PUSH1 0x40 DUP4 ADD DUP6 PUSH2 0x11E1 JUMP JUMPDEST PUSH2 0x175F PUSH1 0x60 DUP4 ADD DUP5 PUSH2 0x11E1 JUMP JUMPDEST SWAP6 SWAP5 POP POP POP POP POP JUMP JUMPDEST PUSH32 0x6E6F742063726561746F72000000000000000000000000000000000000000000 PUSH1 0x0 DUP3 ADD MSTORE POP JUMP JUMPDEST PUSH1 0x0 PUSH2 0x179E PUSH1 0xB DUP4 PUSH2 0x1411 JUMP JUMPDEST SWAP2 POP PUSH2 0x17A9 DUP3 PUSH2 0x1768 JUMP JUMPDEST PUSH1 0x20 DUP3 ADD SWAP1 POP SWAP2 SWAP1 POP JUMP JUMPDEST PUSH1 0x0 PUSH1 0x20 DUP3 ADD SWAP1 POP DUP2 DUP2 SUB PUSH1 0x0 DUP4 ADD MSTORE PUSH2 0x17CD DUP2 PUSH2 0x1791 JUMP JUMPDEST SWAP1 POP SWAP2 SWAP1 POP JUMP JUMPDEST PUSH32 0x706C6564676564203C20676F616C000000000000000000000000000000000000 PUSH1 0x0 DUP3 ADD MSTORE POP JUMP JUMPDEST PUSH1 0x0 PUSH2 0x180A PUSH1 0xE DUP4 PUSH2 0x1411 JUMP JUMPDEST SWAP2 POP PUSH2 0x1815 DUP3 PUSH2 0x17D4 JUMP JUMPDEST PUSH1 0x20 DUP3 ADD SWAP1 POP SWAP2 SWAP1 POP JUMP JUMPDEST PUSH1 0x0 PUSH1 0x20 DUP3 ADD SWAP1 POP DUP2 DUP2 SUB PUSH1 0x0 DUP4 ADD MSTORE PUSH2 0x1839 DUP2 PUSH2 0x17FD JUMP JUMPDEST SWAP1 POP SWAP2 SWAP1 POP JUMP JUMPDEST PUSH32 0x636C61696D656400000000000000000000000000000000000000000000000000 PUSH1 0x0 DUP3 ADD MSTORE POP JUMP JUMPDEST PUSH1 0x0 PUSH2 0x1876 PUSH1 0x7 DUP4 PUSH2 0x1411 JUMP JUMPDEST SWAP2 POP PUSH2 0x1881 DUP3 PUSH2 0x1840 JUMP JUMPDEST PUSH1 0x20 DUP3 ADD SWAP1 POP SWAP2 SWAP1 POP JUMP JUMPDEST PUSH1 0x0 PUSH1 0x20 DUP3 ADD SWAP1 POP DUP2 DUP2 SUB PUSH1 0x0 DUP4 ADD MSTORE PUSH2 0x18A5 DUP2 PUSH2 0x1869 JUMP JUMPDEST SWAP1 POP SWAP2 SWAP1 POP JUMP JUMPDEST PUSH32 0x7374617274656400000000000000000000000000000000000000000000000000 PUSH1 0x0 DUP3 ADD MSTORE POP JUMP JUMPDEST PUSH1 0x0 PUSH2 0x18E2 PUSH1 0x7 DUP4 PUSH2 0x1411 JUMP JUMPDEST SWAP2 POP PUSH2 0x18ED DUP3 PUSH2 0x18AC JUMP JUMPDEST PUSH1 0x20 DUP3 ADD SWAP1 POP SWAP2 SWAP1 POP JUMP JUMPDEST PUSH1 0x0 PUSH1 0x20 DUP3 ADD SWAP1 POP DUP2 DUP2 SUB PUSH1 0x0 DUP4 ADD MSTORE PUSH2 0x1911 DUP2 PUSH2 0x18D5 JUMP JUMPDEST SWAP1 POP SWAP2 SWAP1 POP JUMP JUMPDEST PUSH32 0x656E646564000000000000000000000000000000000000000000000000000000 PUSH1 0x0 DUP3 ADD MSTORE POP JUMP JUMPDEST PUSH1 0x0 PUSH2 0x194E PUSH1 0x5 DUP4 PUSH2 0x1411 JUMP JUMPDEST SWAP2 POP PUSH2 0x1959 DUP3 PUSH2 0x1918 JUMP JUMPDEST PUSH1 0x20 DUP3 ADD SWAP1 POP SWAP2 SWAP1 POP JUMP JUMPDEST PUSH1 0x0 PUSH1 0x20 DUP3 ADD SWAP1 POP DUP2 DUP2 SUB PUSH1 0x0 DUP4 ADD MSTORE PUSH2 0x197D DUP2 PUSH2 0x1941 JUMP JUMPDEST SWAP1 POP SWAP2 SWAP1 POP JUMP JUMPDEST PUSH1 0x0 PUSH2 0x198F DUP3 PUSH2 0x10FE JUMP JUMPDEST SWAP2 POP PUSH2 0x199A DUP4 PUSH2 0x10FE JUMP JUMPDEST SWAP3 POP DUP3 DUP3 SUB SWAP1 POP DUP2 DUP2 GT ISZERO PUSH2 0x19B2 JUMPI PUSH2 0x19B1 PUSH2 0x1654 JUMP JUMPDEST JUMPDEST SWAP3 SWAP2 POP POP JUMP JUMPDEST PUSH32 0x6E6F742073746172746564000000000000000000000000000000000000000000 PUSH1 0x0 DUP3 ADD MSTORE POP JUMP JUMPDEST PUSH1 0x0 PUSH2 0x19EE PUSH1 0xB DUP4 PUSH2 0x1411 JUMP JUMPDEST SWAP2 POP PUSH2 0x19F9 DUP3 PUSH2 0x19B8 JUMP JUMPDEST PUSH1 0x20 DUP3 ADD SWAP1 POP SWAP2 SWAP1 POP JUMP JUMPDEST PUSH1 0x0 PUSH1 0x20 DUP3 ADD SWAP1 POP DUP2 DUP2 SUB PUSH1 0x0 DUP4 ADD MSTORE PUSH2 0x1A1D DUP2 PUSH2 0x19E1 JUMP JUMPDEST SWAP1 POP SWAP2 SWAP1 POP JUMP JUMPDEST PUSH1 0x0 PUSH1 0x60 DUP3 ADD SWAP1 POP PUSH2 0x1A39 PUSH1 0x0 DUP4 ADD DUP7 PUSH2 0x11C2 JUMP JUMPDEST PUSH2 0x1A46 PUSH1 0x20 DUP4 ADD DUP6 PUSH2 0x11C2 JUMP JUMPDEST PUSH2 0x1A53 PUSH1 0x40 DUP4 ADD DUP5 PUSH2 0x1108 JUMP JUMPDEST SWAP5 SWAP4 POP POP POP POP JUMP INVALID LOG2 PUSH5 0x6970667358 0x22 SLT KECCAK256 0xAF BASEFEE PUSH9 0xE3DF6384996C0BA69D CALLVALUE PUSH10 0xB1CF464A028945FE467F STATICCALL 0x27 DUP14 0xD3 0x22 DUP6 SWAP13 0x1F PUSH5 0x736F6C6343 STOP ADDMOD GT STOP CALLER "
				},
				"gasEstimates": {
					"creation": {
						"codeDepositCost": "1360200",
						"executionCost": "infinite",
						"totalCost": "infinite"
					},
					"external": {
						"campaigns(uint256)": "infinite",
						"cancel(uint256)": "infinite",
						"claim(uint256)": "infinite",
						"count()": "2430",
						"launch(uint256,uint32,uint32)": "infinite",
						"pledge(uint256,uint256)": "infinite",
						"pledgedAmount(uint256,address)": "infinite",
						"refund(uint256)": "infinite",
						"token()": "infinite",
						"unpledge(uint256,uint256)": "infinite"
					}
				},
				"methodIdentifiers": {
					"campaigns(uint256)": "141961bc",
					"cancel(uint256)": "40e58ee5",
					"claim(uint256)": "379607f5",
					"count()": "06661abd",
					"launch(uint256,uint32,uint32)": "2c63f146",
					"pledge(uint256,uint256)": "fde327be",
					"pledgedAmount(uint256,address)": "aa4fb63a",
					"refund(uint256)": "278ecde1",
					"token()": "fc0c546a",
					"unpledge(uint256,uint256)": "711853ab"
				}
			},
			"storageLayout": {
				"storage": [
					{
						"astId": 64,
						"contract": "CrowdFund.sol:CrowdFund",
						"label": "count",
						"offset": 0,
						"slot": "0",
						"type": "t_uint256"
					},
					{
						"astId": 69,
						"contract": "CrowdFund.sol:CrowdFund",
						"label": "campaigns",
						"offset": 0,
						"slot": "1",
						"type": "t_mapping(t_uint256,t_struct(Campaign)59_storage)"
					},
					{
						"astId": 75,
						"contract": "CrowdFund.sol:CrowdFund",
						"label": "pledgedAmount",
						"offset": 0,
						"slot": "2",
						"type": "t_mapping(t_uint256,t_mapping(t_address,t_uint256))"
					}
				],
				"types": {
					"t_address": {
						"encoding": "inplace",
						"label": "address",
						"numberOfBytes": "20"
					},
					"t_bool": {
						"encoding": "inplace",
						"label": "bool",
						"numberOfBytes": "1"
					},
					"t_mapping(t_address,t_uint256)": {
						"encoding": "mapping",
						"key": "t_address",
						"label": "mapping(address => uint256)",
						"numberOfBytes": "32",
						"value": "t_uint256"
					},
					"t_mapping(t_uint256,t_mapping(t_address,t_uint256))": {
						"encoding": "mapping",
						"key": "t_uint256",
						"label": "mapping(uint256 => mapping(address => uint256))",
						"numberOfBytes": "32",
						"value": "t_mapping(t_address,t_uint256)"
					},
					"t_mapping(t_uint256,t_struct(Campaign)59_storage)": {
						"encoding": "mapping",
						"key": "t_uint256",
						"label": "mapping(uint256 => struct CrowdFund.Campaign)",
						"numberOfBytes": "32",
						"value": "t_struct(Campaign)59_storage"
					},
					"t_struct(Campaign)59_storage": {
						"encoding": "inplace",
						"label": "struct CrowdFund.Campaign",
						"members": [
							{
								"astId": 48,
								"contract": "CrowdFund.sol:CrowdFund",
								"label": "creator",
								"offset": 0,
								"slot": "0",
								"type": "t_address"
							},
							{
								"astId": 50,
								"contract": "CrowdFund.sol:CrowdFund",
								"label": "goal",
								"offset": 0,
								"slot": "1",
								"type": "t_uint256"
							},
							{
								"astId": 52,
								"contract": "CrowdFund.sol:CrowdFund",
								"label": "pledged",
								"offset": 0,
								"slot": "2",
								"type": "t_uint256"
							},
							{
								"astId": 54,
								"contract": "CrowdFund.sol:CrowdFund",
								"label": "startAt",
								"offset": 0,
								"slot": "3",
								"type": "t_uint32"
							},
							{
								"astId": 56,
								"contract": "CrowdFund.sol:CrowdFund",
								"label": "endAt",
								"offset": 4,
								"slot": "3",
								"type": "t_uint32"
							},
							{
								"astId": 58,
								"contract": "CrowdFund.sol:CrowdFund",
								"label": "claimed",
								"offset": 8,
								"slot": "3",
								"type": "t_bool"
							}
						],
						"numberOfBytes": "128"
					},
					"t_uint256": {
						"encoding": "inplace",
						"label": "uint256",
						"numberOfBytes": "32"
					},
					"t_uint32": {
						"encoding": "inplace",
						"label": "uint32",
						"numberOfBytes": "4"
					}
				}
			},
			"userdoc": {
				"kind": "user",
				"methods": {},
				"version": 1
			}
		}
	}
}